:040000008A110C282D
:10000800FE00030E8312A2000A08A3008A15C02C62
:100018008A110E28BB308313FD000C30FE00A5307A
:10002800FF00A03084008A11F0268A110430F30002
:10003800F4008316BE01BB01BC01BD0183124E3022
:10004800F201840072308A158F2483018A15AB2E41
:10005800F21E080083163D1808008E1D41288E11D7
:10006800303083121805C300103A031D41281508C3
:100078000139DD00DC011408DC048312721B08005E
:100088005A306F0203185D288A11F0238A11F4226E
:100098008A116E086F0203185A28DC238A116F0B25
:1000A8005A280815ED116D0803199D130630EA0149
:1000B8005C298A11BC248A11FE228A1110303E0262
:1000C800693003193D0203186E287830EA0A6A027B
:1000D800031C7128DC238A11EA0164306F02031CB7
:1000E8007A286430EF000830F2125C29F4228A1171
:1000F80006305C2983160C080319EB280C088312B8
:10010800DF0083168C01BC1C8E288C018312081515
:100118009D17EB2883126D08031D942808159D135D
:1001280078218A117F218A11FB308312B000873031
:10013800B1005F08B200B301B4218A11A5218A1168
:10014800DF1FAB2883168C13EC238A115C295F1FF1
:10015800B22883160C13EC238A115C29DF1EC228EF
:1001680083168C1283126908031D0800EF01E62329
:100178008A110430ED155C218A11EB285F1DCB280C
:1001880083160C1103303D105C218A11EB28DF1C0B
:10019800D02883168C10EB285F1CEB2883160F10D1
:1001A8003B18DB2809305C219D176D160800831267
:1001B8006D126D0803199D13ED1DE42804305C29A8
:1001C8006D18E828ED1CEB289D136D10ED108316B3
:1001D8000D087D39031908000D088312DE007D30F3
:1001E800DE0583168D0178218A117F218A11BE30A0
:1001F8008312B0008730B1005E08B200B301B421A9
:100208008A11A5218A11DE1D2B2983168D11003034
:1002180092218A1164306F0203181C29F216831682
:100228003D18192906305C218A11F4228A112529E2
:100238006430EF00F21283163D18252908305C213E
:100248008A118316BC1C4A290A30BC1048295E1D35
:100258003C2983160D11013092218A11F21E4A2978
:100268006430F212EF0083163D184A2908304829F5
:100278005E1C4A2983160D10003092218A11F21251
:1002880083163D184A2907305C218A1183125E1EA5
:10029800522983160D129E133B145829DE1E582925
:1002A80083168D129E173B1083160D1B0D13080025
:1002B8008312BD001730F2108A1185268A11D201E7
:1002C800D3013D08E500E401721778218A117F21E6
:1002D8008A11EA308312B0008730B1006508B20095
:1002E800B301B4218A11A52983128F178316921797
:1002F8000E120E08E22B88158316861083128614B8
:100308008316111193130513AC3093000430940035
:100318008312081683161111911008008312A40085
:10032800240803199929240B08008F17831692179C
:100338008312241CA22983161717A42983161713BE
:10034800E22B06308312A5003030A400A40BAA29A2
:10035800A50BAA2983128F17831692170E16E22B64
:100368003230B7008312B7238A1100278A11BC00E4
:100378003C0803190800253A0319C6293C088222BB
:100388008A11B629B901CA29B917DC29B7238A11F4
:1003980000278A11BC00003A0319812A643A03191C
:1003A800DC290D3A0319DC29113A0319C829B629A1
:1003B800B91BEA29C3238A11BB1F212A0330B904B8
:1003C800BA09BB09BA0A0319BB0A212AC3238A112D
:1003D800212ABC01BC0A03103C0DD5238A11002731
:1003E8008A11B4008A1100278A11B5003B02031D47
:1003F800FF2934083A02031C292A0530BC0A3C06A6
:100408000319292AEF29BC01BC0A03103C0DCE238D
:100418008A1100278A11B4008A1100278A11B500B1
:100428003B02031D192A34083A02031C292A043006
:10043800BC0A3C060319292A092A390880390319F4
:10044800ED29803A0319072A292A3908033903199B
:10045800302A2D3082228A1183123C08B8007C2A67
:100468000A30AB00AC010310380DD5238A110027E0
:100478008A11A4008A1100278A11A5003B08A70049
:100488003A08A600A6228A112508AE002408AD0065
:10049800D0228A112B08303E6F2A3B08A7003A0861
:1004A800A6000310380DCE238A1100278A11A40054
:1004B8008A1100278A11A500A6222408B6000F3049
:1004C800B6053608D93E840087300318013EFF0080
:1004D8008A1100278A11BC00792A39088039031942
:1004E800342A803A0319512A792A3C0882228A112F
:1004F8008312B803380F712AB6290800A40083169E
:1005080013168312240883169600FF308312A50061
:10051800932A8312A503250F922A962A0000831690
:100528008E1C8D2AFF308312A500A02A8312A503F2
:10053800250F9F2AA32A0000831613189A2A8316C8
:1005480013120800A901AA01240825040319CB2ABB
:10055800A801A80AA51BB42A0310A40DA50DAD2A4D
:100568000310A90DAA0D25082702031DBD2A24087A
:100578002602031CC72A2408A6022508031CA70371
:10058800A70229140310A50CA40CA80BB42A2A0846
:10059800A5002908A40008002B082C040319EF2A39
:1005A800AF01AF0AAC1BDC2A0310AB0DAC0DD52A8A
:1005B8002C082E02031DE22A2B082D02031CEB2A0D
:1005C8002B08AD022C08031CAE03AE020310AC0CC2
:1005D800AB0CAF0BDC2A2E08AC002D08AB000800D2
:1005E8008312181083168E11831208169030980003
:1005F800181408000A3021238A112508F10024085C
:10060800F0000330B301B201B100E830B0003D089A
:10061800A4003E08A500A601A7017008A80071085B
:10062800A900AA01AB013C238A116F258A116F2307
:100638003108BE003008BD000800A7008F178316D8
:1006480098149A0183122708831699001814181809
:100658002B2B98101B088312A900A80183161C08CD
:100668008312A8048F132908A5002808A4000800ED
:10067800AC01AD01AE01AF01241C562B2808AC0714
:10068800290803110318013E031DAD072A080311A9
:100698000318013E031DAE072B0803110318013E82
:1006A800031DAF070310A80DA90DAA0DAB0D03106C
:1006B800A70CA60CA50CA40C2708260425042404C2
:1006C800031D402B2F08A7002E08A6002D08A50003
:1006D8002C08A4000800B801B901BA01BB0133080D
:1006E8003204310430040319AE2BBC01BC0AB31B1D
:1006F800832B0310B00DB10DB20DB30D7A2B03107F
:10070800B80DB90DBA0DBB0D33083702031D962B72
:1007180032083602031D962B31083502031D962B2D
:1007280030083402031CA82B3008B4023108031C1B
:10073800310FB5023208031C320FB6023308031C0E
:10074800330FB70238140310B30CB20CB10CB00C51
:10075800BC0B832B3B08B3003A08B2003908B10040
:100768003808B00008003108B5003008B400B00AF5
:100778000319B10A3508FF00340884000800370857
:10078800840083130008BA00840A0008BB00B70A73
:10079800B70A0800283E840087300318013EFF008E
:1007A80008001E3E840087300318013EFF00080041
:1007B8006B30EF0AD8000530D90008009213831275
:1007C8008F13080083163D10831208159D17080023
:1007D800FA308312E9000534BC248A11FE228A11FA
:1007E8003D08CE003E08CF008030D001D101CE07B1
:1007F800F3300318F430CF07FF30031CD007031C75
:10080800D1075108031DBA2C5008031DBA2C073014
:100818004F02031D112CD0304E020318BA2C510878
:10082800031D212C5008031D212C02304F02031DEB
:100838001F2CEF304E02031C2C2CEE30F00002303F
:10084800F100AA30DA000A30DB01EE005A30452CFC
:100858005108031D3A2C5008031D3A2C01304F0251
:10086800031D382CC3304E02031C472CC230F00045
:100878000130F1002C30DA000130DB005030EE009E
:100888000A30EC00672C5108031D542C5008031D36
:10089800542C4F08031D542C65304E02031C602C49
:1008A8006430F0005E30F101DA000130DB0009301D
:1008B800EE00EC01EC0A672CF001F101DA01DA0A2A
:1008C800DB01EE01EC015108A7005008A6004F0813
:1008D800A5004E08A4007008BF007108C000C1013F
:1008E800C2013F08A4024008031C400FA5024108AA
:1008F800031C410FA6024208031C420FA7026E0800
:10090800A800A901AA01AB018A113C238A11270872
:10091800D1002608D0002508CF002408CE005A08A8
:1009280078255108B7005008B6004F08B5004E08A2
:10093800B4008A116F238A113308D1003208D0001D
:100948003108CF003008CE006C08CE0701300318FC
:10095800CF070318D0070318D1074E08EE006430FC
:100968006E02031C08006430EE000800EE01080067
:100978005D08BE005C08BD00080083163D1C080029
:100988008312721E6D2D83168E1D0800831218089F
:100998003039031D672D83168E110E1283127212C1
:1009A80015080139C800C7011408C7041708013918
:1009B800CA00C9011608C90400304A0232300319B6
:1009C8004902031C4F2D00304802333003194702F7
:1009D800031C4F2D0B308A1121238A112508F100A1
:1009E8002408F0000D308A1121238A112508DB0024
:1009F8002408DA0078257008A4007108A5000330DF
:100A0800A601A701AB01AA01A900E830A8008A1134
:100A18003C238A116F258A116F238A113108C60079
:100A28003008C5004908B0004A08B100B201B30156
:100A38004708A4004808A500A601A7014508A80082
:100A48004608A900AA01AB018A113C238A116F2527
:100A58008A116F238A113308C2003208C100310895
:100A6800C0003008BF004208031D4F2D4108031D78
:100A78004F2D02304002031D432DEE303F02031874
:100A88004F2D8A11E6238A110530ED148A115C2155
:100A9800FA30E9000800081683168E110E129130FC
:100AA800632D83168E118312721215080139C40042
:100AB800C3011408C30483168E110E1283308312E7
:100AC80098007216080030301805BE00103A031955
:100AD800552D08165F2D2708B7002608B6002508EB
:100AE800B5002408B4000800B0005B08B100B201EA
:100AF800B301080083125208530403198F2D520AB8
:100B08001F300319530603198F2D0130D20200300C
:100B1800031CD303D302721F080052085304031D99
:100B28000800E72D65268A1100278A11AB00E40A20
:100B380065268A1100278A117D268A110F2E6526BF
:100B48008A1100278A11AB00E40A65268A1100275A
:100B58008A117D268A111730F2108526080065262D
:100B68008A1100278A11AB00E40A65268A1100273A
:100B78008A117D26FF30E600E700E800F21408003D
:100B880065268A1100278A11AB00E40A65268A11B6
:100B980000278A117D268A1165268A110027E80018
:100BA800E40A080065268A110027E300E40A6408BD
:100BB800E2000800E303031908006208E4000800E3
:100BC80017307213B02D03107726A900840A000885
:100BD800AA006408E40A290784002A0803182A0AD4
:100BE800FF008A1100278A11083A0319962D023A44
:100BF8000319A32D013A0319B32D073A0319C42D7C
:100C08001C3A0319D62D013A0319DE2D913A03191E
:100C1800E42D0E2E0800031077268A118E268A11DD
:100C280000278A11A600E40A031077268A118E2667
:100C38008A1100278A11A800E40A2608E800FA3079
:100C48002806031D292E6F082E2EFB302806031DAB
:100C5800302E6B08A800342EFC3028060319A80192
:100C68006430A7012802031C4A2E0330E80412301E
:100C780084008730FF008A1100278A11E7001230AC
:100C8800840087305F2E0A30A802A70A0A3028029B
:100C98000318472E2708031D532E0A30A7002708DC
:100CA800E5268A1100278A11E7002808123E8400E9
:100CB80087300318013EFF008A110027E600F2146E
:100CC80008000310650DA03E840083130008A900E6
:100CD800840A0008AA006408290784002A0803185F
:100CE8002A0AFF000800650DA03E8400831300084F
:100CF8000800AC00E40A2B08D300D2012C08D20467
:100D080008008316850483128504831686168312C9
:100D180086160800A400840A0008A50064082407B1
:100D2800840025080318250AFF00080083163D1CC7
:100D380008008312580859040319A82E0130D80254
:100D48000030031CD903D90258085904031DB32ED7
:100D58006B30D8000530D9006B08031DEB0356082B
:100D680057040319BD2E0130D6020030031CD703E7
:100D7800D70256085704031D080002306F020318F3
:100D8800EF037130D6000230D700A5016F08A40028
:100D98000A302402031CD42E0A30A402A50ACC2E41
:100DA8002508031DD92E0A30A5002508E5268A1135
:100DB80000278A11E7002408E5268A110027E600A3
:100DC8000800123E840087300318013EFF00080027
:100DD8007E088A007F088200EC268A118000840A37
:100DE80004087D0603190034FF0A0319FE0AF02ED1
:100E0000FF1B0A2F83137F1883170008840A031916
:100E1000FF0A08007F087F398A000408840A031942
:100E2000FF0A82003F3406345B344F3466346D343D
:100E30007D3407347F346F340034FF3401340034A0
:100E40000A34003464340034E83403341034273472
:100E500001340034103400340034013400341034D0
:100E6000083400347D3408340634083400347D34CA
:100E700008340534083400347D340834043408342C
:100E800000347D3408340334083400347D340834AD
:100E90000234083400347D3408340134083400341A
:100EA000FA341434FA34803408340134F434143409
:100EB000FA3408340134F4340034FC340834013496
:100EC000F4341834FB3480341034083408340034DB
:100ED00019341034FA340834003419341434FA3420
:100EE00011348034103402340A34003419340B3491
:100EF0000034193411348034103408340A34003486
:100F000019340B3400341934113480341034033460
:100F10000A34003419340B34003419341134803459
:100F200010340A340A34003419340B3400341934C0
:100F300011348034103406340A34003419340B343C
:100F4000003419341134803408340134F43400345A
:100F5000FC348034083400347D341434FA34803462
:100F600008340434E2341434FA3480340A3400345B
:100F7000013480340B3400347D3480342034203408
:100F800020342034203420342034203420342034C1
:100F90002034203420342034203441344634453445
:100FA0004934463431343D34253478342C340A34D1
:100FB000003430343134323433343434353436342C
:100FC00037343834393461346234633464346534EA
:100FD0006634003446345F3450346C3461347934D0
:100FE0004C3469346734683474342C3425346434B4
:100FF0000D340A34003441344634453449344634DF
:0E10000030343D34253478342C340A34003436
:10191E0064008001840A0406031900340406902C26
:10192E0017308316850083128500E33083168600F8
:10193E0063308312860083169E010800BA34873402
:10194E00B0348734543487349A34873464348734CB
:10195E0090348734AA34873486348734B634873447
:10196E007C3487347234873430348734A4348734EB
:10197E00FF340E180F1CC52C0F100E100E190F1D54
:10198E00D12C0F11F21583163E08BE0A07398312A9
:10199E000319721583128E188F1CD62C8F102308E4
:1019AE008A00220E8300FE0E7E0E0900081690306D
:1019BE009800E6242508DD002408DC000800043029
:1019CE00F001F101EE016E020318012D18148316B9
:1019DE008E1DEE2C8E11013083121505A6001408F3
:1019EE00F0070318F10A2608F1070430EE0A6E021A
:1019FE00031CED2C7108A7007008A6000310A70C9D
:101A0E00A60C0310A70CA60C2608F0002708F10060
:101A1E00A5007008A40008008312081683168E0114
:101A2E008D018C0190168D1210160D129E173B1003
:101A3E0010130D13831288120815003052250B3027
:101A4E008A1121238A152508F1002408F000B00020
:101A5E007108B1002C30B201B301B701B6004030AD
:101A6E00B5002030B4008A116F233008BD00310854
:101A7E00BE003208BF003308C0000310C00CBF0CFC
:101A8E00BE0CBD0C3D089E009D1383168F138C1348
:101A9E000F130C130800A500250803195D2D25084A
:101AAE000319080004302502031808008F17831647
:101ABE009217F330950583122508A4000130031008
:101ACE00A40DFF3E0310031D672D240D83169504F0
:101ADE008A11E22B8316BC138312721C782D831687
:101AEE00BC1783127210061B72148316BC1F812D35
:101AFE000130822D00308312BE00721C882D013001
:101B0E00892D00303E0603198F2D0430F400080095
:101B1E00740803190800F4037408031D08008316E3
:101B2E003C138312721C9D2D83163C178316BC1E0C
:101B3E00A22D0130A32D00308312BE0083163C1F50
:101B4E00AA2D0130AB2D003083123E060319B22DA3
:101B5E0083163C15B42D83163C113C123C193C1FC8
:101B6E00B92D3C16BC113C19BC1EBE2DBC15BC12A9
:101B7E003C1BBC168316BC1D08008312610803199A
:101B8E00E0013E30E00AE10005306006031D08006A
:101B9E0083160230BC060A308A115C298316BB12EA
:101BAE00BB1BBB168316BB1783129D1FE02D83161E
:101BBE00BB138316121DBB138316BB1EE82D0130FB
:101BCE00E92D00308312BE008316BB1FF02D0130AD
:101BDE00F12D003083123E060319F82D0230F3006A
:101BEE000800730803190800F3037308031D0800A7
:101BFE0083163B12BB1B3B1683163C1C082E013072
:101C0E00092E00308312BE0083163B1E102E0130AB
:101C1E00112E003083123E060319182E8316BB14A4
:101C2E001A2E8316BB10BB11BB183B1E1F2EBB15E5
:101C3E003B11BB183C1C242E3B153C103B1A3C148C
:101C4E008316BB1D312E3D148312013072128A1180
:101C5E005C218A1583163B193D1C080002303D108D
:101C6E008A115C29831254085504031D0800690863
:101C7E00031D080083163D1808008312F21E721B06
:101C8E0008008316121908008B01831208109B019D
:101C9E0088100816831690158D1110140D10101340
:101CAE000D130F140C1090168D1210160D1210111C
:101CBE000D118F128C120F110C118F108C10E83029
:101CCE008505831285058316861283128612831666
:101CDE00930111110E11831288114330831688005F
:101CEE0083128E148F100608D400D5018813640059
:101CFE00073083169F006300000092268A159B26EC
:101D0E001011101090110F104B308312D400D5010A
:101D1E008817640008008312081407308B007D308A
:101D2E00890081010E10080088148D018C0101308C
:101D3E009100F3309000E3309B00F0309C051C08BE
:101D4E000E158316BE0108008A1597248A158A156A
:101D5E0092268A158A159B268A158A1513258A15A9
:101D6E0003308312CD000830CC007630CB00CB0B85
:101D7E00BE2ECC0BBE2ECD0BBE2EC52E64308312C6
:101D8E00EB006B30D8000530D9008A15DD248A159A
:101D9E008A11F0238A156E08EF007130D6000230DA
:101DAE00D70083160030BC148A115C218A15FA30D4
:101DBE00D400E130D501ED01831689008312881716
:101DCE008316BB133C1083128E1764008312F21D10
:101DDE00062FF2118A15D5258A158A11C1248A1566
:101DEE0017308A1185268A1583163B178312F21C2B
:101DFE00062F83163B1F062F8A152B278A15831253
:101E0E00721D242F72118A1571258A158A119A2630
:101E1E008A158A117E258A158A112C208A1583121D
:101E2E00540855040319212F0130D4020030031C2D
:101E3E00D503D5026908031DE9038A117E208A1590
:101E4E008A1539268A15EC2EBA0A3B13E52F831212
:101E5E006618342F83160515362F83160511831237
:101E6E0066193C2F831685143E2F83168510831218
:101E7E00661A442F83160514462F831605108312F7
:101E8E0068194C2F831686164E2F8316861205124E
:101E9E008312051208008312E618582F83160516B2
:101EAE005A2F8316051283126718602F8316851416
:101EBE00622F831685108312E818682F8316051477
:101ECE006A2F831605108312E819702F8316861653
:101EDE00722F8316861205118312051108008312C4
:101EEE00E6197C2F831605167E2F83160512831294
:101EFE00E718842F83160515862F83160511831276
:101F0E0068188C2F831605148E2F831605108312D6
:101F1E00681A942F83168616962F831686128510AE
:101F2E008312851008008312E61AA02F8316051659
:101F3E00A22F831605128312E719A82F83160515F3
:101F4E00AA2F8316051183126719B02F83168514D5
:101F5E00B22F831685108312E81AB82F83168616B1
:101F6E00BA2F8316861205108312051008008312ED
:101F7E00661BC42F83160516C62F831605128312F1
:101F8E00671ACC2F83160515CE2F831605118312D3
:101F9E00E71AD42F83168514D62F83168510831235
:101FAE00671BDC2F83160514DE2F83160510861291
:101FBE0083128612FF308316BA0008003A08003AE0
:101FCE0003192E2F013A0319522F033A0319762FB4
:101FDE00013A03199A2F073A0319BE2FE12F080071
:0A400000FD3FD53F293F773F283FE1
:00000001FF
