:040000008A110C282D
:10000800FE00030E8312A2000A08A3008A11C32E61
:100018008A110E288316FF30A3007A308313FD005F
:100028000730FE00F130FF006C3084008A11E426AE
:100038008A11A201A001A10183124D30FA018400A6
:100048006C308A155D2683018A157F2F8316A012CE
:10005800A01BA0168316A01783129D1F3528831690
:10006800A0138316121DA0138316A01E3D2801306D
:100078003E2800308312BC008316A01F452801309B
:100088004628003083123C0603194D280230F90037
:100098000800790803190800F9037908031D080006
:1000A80083162012A01B201683127A1C5D280130AB
:1000B8005E280030BC008316201E642801306528A5
:1000C800003083123C0603196C288316A0146E288E
:1000D8008316A010A011A018201E7328A0152011A7
:1000E800A01C7B2883127A1C7B2883162015831278
:1000F8007A108316201E822883127A148316A01D74
:100108008B282114831201307A129C238A118316BA
:100118002019211C0800023021109C2BFA1E08000F
:100128008316211808008E1DA7288E1130308312DF
:100138001805C300103A031DA72815080139DC006B
:10014800DB011408DB0483127A1B08005A306902A9
:100158000318C128E0208A110A238A116808690255
:100168000318BE28E90A690BBE280815E7116708B5
:1001780003199D130630E4019C2B00248A11AB213E
:100188008A1110303E02693003193D020318D12844
:100198000C30E40A6402031CD328E90AE401643041
:1001A8006902031CDC286430E9000830FA129C2B31
:1001B8000A238A1106309C2B00248A11AB218A114C
:1001C8003D08CD003E08CE008030CF01D001CD07DC
:1001D800F3300318F430CE07FF30031CCF07031C9D
:1001E800D0075008031DA9294F08031DA929073066
:1001F8004E02031D0129D0304D020318A9295008C9
:10020800031D11294F08031D112902304E02031D39
:100218000F29EF304D02031C1C29EE30EA00023092
:10022800EB00AA30D9000A30DA01E8005A30352943
:100238005008031D2A294F08031D2A2901304E02A0
:10024800031D2829C3304D02031C3729C230EA0098
:100258000130EB002C30D9000130DA005030E800D2
:100268000A30E60057295008031D44294F08031D8A
:1002780044294E08031D442965304D02031C5029AA
:100288006430EA005E30EB01D9000130DA00093051
:10029800E800E601E60A5729EA01EB01D901D90A83
:1002A800DA01E801E6015008A7004F08A6004E0849
:1002B800A5004D08A4006A08BF006B08C000C10172
:1002C800C2013F08A4024008031C400FA5024108D0
:1002D800031C410FA6024208031C420FA70268082C
:1002E800A800A901AA01AB01D7228A112708D000CA
:1002F8002608CF002508CE002408CD005908F6238B
:100308008A115008B7004F08B6004E08B5004D08CE
:10031800B4008F228A113308D0003208CF00310888
:10032800CE003008CD006608CD0701300318CE078F
:100338000318CF070318D0074D08E8006430680297
:10034800031C08006430E8000800E80108000A30CF
:1003580074228A112508EB002408EA000330B3014F
:10036800B201B100E830B0003D08A4003E08A50085
:10037800A601A7016A08A8006B08A900AA01AB0199
:10038800D7228A11E7238A118F223108BE0030084C
:10039800BD0008008316211C080083127A1E722AE9
:1003A80083168E1D0800831218083039031D6C2A25
:1003B80083168E110E1283127A1215080139C7009E
:1003C800C6011408C60417080139C900C80116086F
:1003D800C80400304902323003194802031C542A69
:1003E80000304702333003194602031C542A0B30ED
:1003F80074228A112508EB002408EA000D307422C3
:100408008A112508DA002408D900F6238A116A0817
:10041800A4006B08A5000330A601A701AB01AA013F
:10042800A900E830A800D7228A11E7238A118F2271
:100438008A113108C5003008C4004808B0004908CE
:10044800B100B201B3014608A4004708A500A601FF
:10045800A7014408A8004508A900AA01AB01D722B2
:100468008A11E7238A118F228A113308C1003208C2
:10047800C0003108BF003008BE004108031D542ADF
:100488004008031D542A03303F02031D4D2A8430BF
:100498003E020318542AF0238A110530E7149C2BD6
:1004A800081683168E110E129130682A83168E1143
:1004B80083127A1215080139C300C2011408C20454
:1004C80083168E110E128330831298007A16080054
:1004D80030301805BD00103A03195A2A0816642A44
:1004E800A7008F17831698149A018312270883167A
:1004F8009900181418187E2A98101B088312A9004E
:10050800A80183161C088312A8048F132908A500C4
:100518002808A4000800B801B901BA01BB013308D2
:100528003204310430040319CE2ABC01BC0AB31BBF
:10053800A32A0310B00DB10DB20DB30D9A2A031002
:10054800B80DB90DBA0DBB0D33083702031DB62A15
:1005580032083602031DB62A31083502031DB62AB1
:1005680030083402031CC82A3008B4023108031CBE
:10057800310FB5023208031C320FB6023308031CD0
:10058800330FB70238140310B30CB20CB10CB00C13
:10059800BC0BA32A3B08B3003A08B2003908B100E3
:1005A8003808B0000800AC01AD01AE01AF01241C51
:1005B800F12A2808AC07290803110318013E031D76
:1005C800AD072A0803110318013E031DAE072B08C7
:1005D80003110318013E031DAF070310A80DA90D51
:1005E800AA0DAB0D0310A70CA60CA50CA40C27088C
:1005F800260425042404031DDB2A2F08A7002E083F
:10060800A6002D08A5002C08A400080083121810C5
:1006180083168E118312081690309800181408005B
:1006280083160C080319542B8C1F1D2B8C130530B3
:100638009C2B0C1F222B0C1305309C2B8C1E2E2B55
:100648008C128312E901F0238A110430E7159C23E8
:100658008A11542B0C1D362B0C11033021109C23AE
:100668008A11542B8C1C3A2B8C10542B0F1C542B96
:100678000F102018442B09309C239D17671608007B
:1006880083126712670803199D13E71D4D2B043069
:100698009C2B6718512BE71C542B9D136710E710F0
:1006A80083160D08031908008D1D702B8D1100305D
:1006B800BB238A116430690203186C2BFA1683165F
:1006C8002118692B06309C238A110A238A118D2B45
:1006D8006430E900FA127B2B0D1D802B0D110130BF
:1006E800BB238A11FA1E8D2B6430FA12E900831697
:1006F80021188D2B08308B2B0D1C8D2B0D100030E5
:10070800BB238A11FA12831621188D2B07309C23DC
:100718008A1183160D1E942B0D129E132014992BEB
:100728008D1E992B8D129E1720100D1B0D1308007E
:100738008312BB007A1FA42B05306006031908003A
:100748001730FA108A11EE258A11D101D2013B081F
:10075800E000DF017A17CE238A11D42383126008C0
:10076800B000A530B1018A1114248A11052C831216
:10077800A40024080319C22B240B08008F17831622
:1007880092178312241CCB2B83161717CD2B831695
:100798001713FC2B8F17831692170E120E08FC2BBB
:1007A80088158316861083128614831611119313E5
:1007B8000513AC3093000430940083120816831696
:1007C8001111911008002708B7002608B60025085F
:1007D800B5002408B40008008316211083120815F8
:1007E8009D170800B0005A08B100B201B301080013
:1007F800921383128F1308005C08BE005B08BD00CB
:10080800080006308312A5003030A400A40B0A2C7F
:10081800A50B0A2C83128F17831692170E16FC2B22
:10082800B6003030B40083123608B60A84008A1144
:1008380000278A11BA003A0803190800253A031953
:10084800292C3A0899248A11172CB5013608B60ABA
:1008580084008A1100278A11BA00003A0319982CDB
:10086800643A03193B2C0D3A03193B2C172C340816
:10087800840083130008B800840A0008B900B40A89
:10088800B40AB91F4E2C0330B504B809B909B80A1F
:100898000319B90ABA01BA0A03103A0D0D3E8400C9
:1008A8008A1100278A11B2008A1100278A11B30021
:1008B8003902031D612C32083802031C682C0530EC
:1008C800BA0A3A06031D502C3508033903196F2C50
:1008D8002D3099248A1183123A08B700932C0A30D4
:1008E800AB00AC010310370D0D3E84008A110027C0
:1008F8008A11A4008A1100278A11A5003908A700C7
:100908003808A600BD248A112508AE002408AD00C9
:10091800E7248A112B08303EBA0099248A118312E1
:10092800B703370F732C172C0800A400831613166F
:100938008312240883169600FF308312A500AA2C80
:100948008312A503250FA92CAD2C000083168E1C3D
:10095800A42CFF308312A500B72C8312A503250F02
:10096800B62CBA2C000083161318B12C8316131258
:100978000800A901AA01240825040319E22CA801EA
:10098800A80AA51BCB2C0310A40DA50DC42C03107D
:10099800A90DAA0D25082702031DD42C2408260218
:1009A800031CDE2C2408A6022508031CA703A702A3
:1009B80029140310A50CA40CA80BCB2C2A08A500FD
:1009C8002908A40008002B082C040319062DAF01E0
:1009D800AF0AAC1BF32C0310AB0DAC0DEC2C2C08A0
:1009E8002E02031DF92C2B082D02031C022D2B08A7
:1009F800AD022C08031CAE03AE020310AC0CAB0C0A
:100A0800AF0BF32C2E08AC002D08AB0008008312A6
:100A18005108520403191C2D510A1F30031952069C
:100A280003191C2D0130D1020030031CD203D2025D
:100A38007A1F080051085204031D0800742DDF2591
:100A48008A1100278A11A700DF0ADF258A110027EB
:100A58008A11E6258A11962DDF258A1100278A1129
:100A6800A700DF0ADF258A1100278A11E6258A11E7
:100A78001730FA10EE250800DF258A1100278A11A1
:100A8800A700DF0ADF258A1100278A11E625FF3033
:100A9800E100E200E300FA140800DF258A110027CC
:100AA8008A11A700DF0ADF258A1100278A11E625A7
:100AB8008A11DF258A110027E300DF0A0800DF25F5
:100AC8008A110027DE00DF0A5F08DD000800DE0368
:100AD800031908005D08DF00080017307A133D2D60
:100AE80060086C3E84005F08DF0A831300078400F7
:100AF8008A1100278A11083A0319232D023A03198B
:100B0800302D013A0319402D073A0319512D1C3A8B
:100B18000319632D013A03196B2D913A0319712DAD
:100B2800952D0800DF258A1100278A11A400DF0A05
:100B3800DF258A1100278A11A600DF0A2408E300AE
:100B4800FA302606031DAA2D6908AF2DFB302606AC
:100B5800031DB12D6508A600B52DFC302606031926
:100B6800A6016430A5012602031CC72D0330E30447
:100B7800013084008A1100278A11E2000130D92D42
:100B88000A30A602A50A0A3026020318C42D250831
:100B9800031DD02D0A30A5002508013E84008A11C6
:100BA80000278A11E2002608013E84008A110027E6
:100BB800E100FA14080060086C3E84005F08000732
:100BC80084000800A800DF0A2708D200D1012808FD
:100BD800D1040800831685048312850483168616BB
:100BE800831286160800A30A2013B12E83126118F7
:100BF800002E83160515022E83160511831261191E
:100C0800082E831685140A2E831685108312611AFE
:100C1800102E83160514122E8316051083126319DD
:100C2800182E831686161A2E83168612051283121C
:100C3800051208008312E118242E83160516262EA5
:100C480083160512831262182C2E831685142E2EF5
:100C5800831685108312E318342E83160514362E56
:100C6800831605108312E3193C2E831686163E2E32
:100C78008316861205118312051108008312E119E3
:100C8800482E831605164A2E831605128312E2187B
:100C9800502E83160515522E8316051183126318DC
:100CA800582E831605145A2E831605108312631ABC
:100CB800602E83168616622E83168612851083127E
:100CC800851008008312E11A6C2E831605166E2E05
:100CD800831605128312E219742E83160515762ED3
:100CE80083160511831262197C2E831685147E2EB5
:100CF800831685108312E31A842E83168616862E91
:100D08008316861205108312051008008312611BD2
:100D1800902E83160516922E831605128312621AD8
:100D2800982E831605159A2E831605118312E21A3A
:100D3800A02E83168514A22E831685108312621B9B
:100D4800A82E83160514AA2E831605108612831260
:100D58008612FF308316A30008002308003A0319FF
:100D6800FA2D013A03191E2E033A0319422E013AAD
:100D78000319662E073A03198A2EAD2E08000E189D
:100D88000F1CC82E0F100E100E190F1DD42E0F1188
:100D9800FA1583162208A20A0739831203197A154D
:100DA80083128E188F1CD92E8F1023088A00220ECA
:100DB8008300FE0E7E0E09007E088A007F088200EE
:100DC800E0268A118000840A04087D06031900348D
:100DD800FF0A0319FE0AE42E1730831685008312D2
:100DE8008500E330831686006330831286008316FD
:040DF8009E01080050
:100E000007308A000408840A820700343F3406341D
:100E10005B344F3466346D347D3407347F346F3443
:100E20000034FF34013400340A34003464340034B4
:100E3000E834033410342734083400347D34083463
:100E40000634083400347D34083405340834003462
:100E50007D3408340434083400347D3408340334D9
:100E6000083400347D3408340234083400347D34CE
:100E70000834013408340034FA341434FA34803439
:100E800008340134F4341434FA3408340134F434BA
:100E90000034FC3408340134F4341834FB34803426
:100EA000103408340834003419341034FA34083457
:100EB000003419341434FA341134803410340234C8
:100EC0000A34003419340B340034193411348034AA
:100ED000103408340A34003419340B340034193413
:100EE00011348034103403340A34003419340B3490
:100EF000003419341134803410340A340A34003484
:100F000019340B340034193411348034103406345D
:100F10000A34003419340B34003419341134803459
:100F200008340134F4340034FC34803408340034A0
:100F30007D341434FA34803408340434E234143404
:100F4000FA3480340A340034013480340B340034F1
:100F50007D34803446345F3450346C3461347934B9
:100F60004C3469346734683474342C342534643434
:100F70000D340A340034081690309800C427250830
:100F8000DC002408DB0008000430EA01EB01E80182
:100F900068020318DF2F181483168E1DCC2F8E11B4
:100FA000013083121505A6001408EA070318EB0A9E
:100FB0002608EB070430E80A6802031CCB2F6B08F5
:100FC000A7006A08A6000310A70CA60C0310A70C24
:100FD000A60C2608EA002708EB00A5006A08A40072
:100FE0000800A13497343B3481344B347734913446
:0E0FF0006D349D346334593417348B3404341B
:101CBA0064008001840A04060319003404065E2EB7
:101CCA008316211C08008312570858040319732E1F
:101CDA000130D7020030031CD803D8025708580431
:101CEA00031D7E2E6B30D7000530D8006508031D12
:101CFA00E503550856040319882E0130D502003031
:101D0A00031CD603D60255085604031D08000230E8
:101D1A0069020318E9037130D5000230D600A50123
:101D2A006908A4000A302402031C9F2E0A30A40268
:101D3A00A50A972E2508031DA42E0A30A5002508FA
:101D4A00013E84008A1100278A15E2002408013E18
:101D5A0084008A110027E1000800831208168316FE
:101D6A008E018D018C0190168D1210160D129E1780
:101D7A00201010130D138312881208150030F12653
:101D8A000B308A1174228A152508EB002408EA0010
:101D9A00B0006B08B1002C30B201B301B701B60034
:101DAA004030B5002030B4008A118F223008BD00BF
:101DBA003108BE003208BF003308C0000310C00C4F
:101DCA00BF0CBE0CBD0C3D089E009D1383168F13DD
:101DDA008C130F130C130800A50025080319FC2EF9
:101DEA0025080319080004302502031808008F1774
:101DFA0083169217F330950583122508A400013043
:101E0A000310A40DFF3E0310031D062F240D831695
:101E1A0095048A11FC2B831253085404031D0800ED
:101E2A008316211808008312FA1E7A1B08008316EB
:101E3A00121908008B01831208109B0188100816DA
:101E4A00831690158D1110140D1010130D130F1405
:101E5A000C1090168D1210160D1210110D118F12F2
:101E6A008C120F110C118F108C10E830850583121B
:101E7A008505831686128312861283169301111121
:101E8A000E118312881143308316880083128E1430
:101E9A008F100608D300D401881364000730831614
:101EAA009F006300000066278A156F271011101023
:101EBA0090110F104B308312D300D401881764009D
:101ECA0008008312081407308B007D3089008101D5
:101EDA000E10080088148D018C0101309100F33036
:101EEA009000E3309B00F0309C051C080E15831609
:101EFA00A20108008A11F0268A158A1566278A1512
:101F0A008A156F278A158A15B2268A150330831215
:101F1A00CC000830CB007630CA00CA0B922FCB0B0C
:101F2A00922FCC0B922F992F64308312E5006B30DD
:101F3A00D7000530D8008A11BB278A158A11E020FC
:101F4A008A156808E9007130D5000230D6000030E1
:101F5A008A119C238A15FA30D300E130D401E701B3
:101F6A0083168900831288178316A01383127A10A6
:101F7A008E1764008312FA1DD82FFA118A112A20AB
:101F8A008A158A11CE218A1517308A11EE258A15EB
:101F9A00831620178312FA1CD82F8316201FD82FD6
:101FAA008A11F7258A1583127A1DF02F7A118A155C
:101FBA0065268A158A110B258A158A1192208A1597
:101FCA008312530854040319F02F0130D30200304E
:101FDA00031CD403D4028A1114238A158A151027E4
:041FEA008A15BE2F67
:0A400000FD3FD53F293F773F283FE1
:00000001FF
