:040000008A110C282D
:10000800FE00030E8312CA000A08CB008A15CF2C03
:100018008A110E28BC308313FD000C30FE00E93035
:10002800FF00A03084008A15C3248A11FF30F7002E
:100038000430F800F900203084004A308A15A924D9
:10004800F301F401F501F60183018A153B2D081629
:1000580083168E018D018C0190168D1210160D12CB
:100068009E178312F510831610130D13831288122E
:1000780008150030E7268A110230BF000B308326AE
:100088008A1158278A1115278A11DC009F265808DB
:10009800E5005908E6005A08E7005B08E800031085
:1000A800E80CE70CE60CE50C65089E009D1383162A
:1000B8008F138C130F130C1308007312731B731612
:1000C800831273179D1B7313831612196D288312DD
:1000D80073138312731E7228013073280030E600F0
:1000E800731F7828013079280030660603197F28A5
:1000F8000230F8000800780803190800F8037808A7
:10010800031D0800F311731BF3158312F31F8E28C8
:1001180001308F280030E600F31D9428013095281F
:100128000030660603199B28831273149D288312D6
:10013800731073117318F31DA2287315F310731835
:10014800F31FA728F314F313F319F3178312731982
:100158007418B32801307614F512E3248A11F31CBD
:10016800080099121913761C080002307610E32C47
:10017800F4137518F41783127510061B751483127F
:10018800F41FC8280130C9280030EA00751CCE28A1
:100198000130CF2800306A060319D5280430F90049
:1001A8001B29790803191B29F9037908031D1B2941
:1001B8007413751CE02874178312F41EE5280130A7
:1001C800E6280030EA00741FEB280130EC280030E4
:1001D8006A060319F22883127415F428831274111D
:1001E80074127419741FF9287416F4117419F41E12
:1001F800FE28F415F412741BF4168312F41D1B293F
:100208003708031D0829B6013E30B60AB700053085
:100218003606031D14290230F4060A30E3248A1135
:10022800741C1B29741099120D30E3248A111E21A5
:100238008A116C2B3708031D080003303606031992
:10024800F41808000430B601BF0A3F02031C2E2927
:10025800BF01BF0A0C30E3248A110B3083268A11B0
:1002680086278A113F0B3E2935278A11DC009F26F5
:100278008A11052F02303F06031D49294808152712
:100288008A11DC009F268A11052F03303F06031DC3
:10029800080029278A11DC009F268A11052F751B63
:1002A8007618080083168E1D67298E113030831248
:1002B8001805EB00103A031D672915080139B3002A
:1002C800B2011408B2048312F51B08005A30470221
:1002D80003188229A1228A117A268A114608470220
:1002E80003187F2971278A11470B7F290815C51123
:1002F800450803199D130630C201E32C81278A1192
:10030800A2218A11103066026930031965020318A8
:1003180092290C30C20A4202031C952971278A11BE
:10032800C20164304702031C9E296430C7000830AC
:100338007513E32C7A268A110630E32C0A308326BB
:100348008A114D08C9004C08C8000330DB01DA01E6
:10035800D900E830D8006508CC006608CD00CE0189
:10036800CF014808D0004908D100D201D3016E223C
:100378008A1120278A119F265908E6005808E500A7
:100388000800761C0800F51E6C2A83168E1D0800CE
:10039800831218083039031D662A83168E110E122F
:1003A8008312F51215080139F000EF011408EF0463
:1003B80017080139F200F1011608F1040030720241
:1003C800323003197102031C4E2A00307002333098
:1003D80003196F02031C4E2A0B3083268A114D081D
:1003E800C9004C08C8000D3083268A114D08B10099
:1003F8004C08B0007B278A114808CC004908CD007A
:100408000330CE01CF01D301D201D100E830D000B2
:100418006E228A1120278A119F268A115908EE0018
:100428005808ED007108D8007208D900DA01DB011C
:100438006F08CC007008CD00CE01CF016D08D00048
:100448006E08D100D201D3016E228A1120278A11A9
:100458009F268A115B08EA005A08E9005908E80053
:100468005808E7006A08031D4E2A6908031D4E2A2A
:1004780002306802031D422AEE30670203184E2A32
:100488007610741008159D170530C514E324FA304A
:10049800C1000800081683168E110E129130622AC8
:1004A80083168E118312F51215080139EC00EB0141
:1004B8001408EB0483168E110E12833083129800F1
:1004C800F516080030301805E600103A0319542ACA
:1004D80008165E2AD401D501D601D7014C1C882AFA
:1004E8005008D407510803110318013E031DD5070E
:1004F800520803110318013E031DD60753080311C0
:100508000318013E031DD7070310D00DD10DD20DDE
:10051800D30D0310CF0CCE0CCD0CCC0C4F084E04D1
:100528004D044C04031D722A5708CF005608CE000C
:100538005508CD005408CC00080081278A11A22153
:100548008A116508A0006608A1008030A201A301F5
:10055800A007F3300318F430A107FF30031CA207EB
:10056800031CA3072308031D6A2B2208031D6A2BFB
:1005780007302102031DC22AD030200203186A2B3B
:100588002308031DD22A2208031DD22A0230210281
:10059800031DD02AEF302002031CDD2AEE30C800EC
:1005A8000230C900AA30B0000A30B101C6005A3082
:1005B800F62A2308031DEB2A2208031DEB2A013023
:1005C8002102031DE92AC3302002031CF82AC23085
:1005D800C8000130C9002C30B0000130B1005030E3
:1005E800C6000A30C400182B2308031D052B220857
:1005F800031D052B2108031D052B65302002031C54
:10060800112B6430C8005E30C901B0000130B10060
:100618000930C600C401C40A182BC801C901B001B9
:10062800B00AB101C601C4012308CF002208CE00D8
:100638002108CD002008CC004808E7004908E80058
:10064800E901EA016708CC026808031C680FCD02BB
:100658006908031C690FCE026A08031C6A0FCF02DF
:100668004608D000D101D201D3016E228A114F0869
:10067800A3004E08A2004D08A1004C08A0003008B5
:100688007B278A112308DF002208DE002108DD000D
:100698002008DC009F268A115B08A3005A08A200E4
:1006A8005908A1005808A0004408A0070130031801
:1006B800A1070318A2070318A3072008C60064307F
:1006C8004602031C08006430C6000800C601080082
:1006D800370803197418BC2BF418BC2B02303606E3
:1006E800031DBC2BB601F5187F2B0930E324081530
:1006F8009D174516080045124508031D852B08154A
:100708009D13C51D892B0430E32C45188D2BC51C62
:10071800912B08159D134510C51074149916EE30C9
:10072800A6000230A7000B3083268A1158278A11A9
:10073800D8004908D9001C30DA01DB01DF01DE00EE
:10074800FD30DD00E030DC009F268A115808E60005
:100758005908E7005A08E8005B08E9000310E90CAB
:10076800E80CE70CE60C66089E000B30E3248A11BF
:10077800741C080026082704031908000130A60283
:100788000030031CA703A70226082704031D08003E
:10079800741099120D30E32C83160C080319742C6D
:1007A8000C088312B50083168C018312F41CE22B0B
:1007B80083168C01831208159D17742C4508031D98
:1007C800E72B08159D13FE248A1105258A11FC3094
:1007D8008312D8008830D9003508DA00DB013A25C1
:1007E8008A112B258A11B51FFE2B83168C136B27B4
:1007F8008A11E32C351F052C83160C136B278A11DD
:10080800E32CB51E172C83168C1283124108031D86
:100818000800C7017610741008159D170430C51517
:10082800E3248A11742C351D212C83160C11831294
:1008380003307610E3248A11742CB51C262C8316F9
:100848008C10742C351C742C83160F100B308326D7
:100858008A1186278A113F0B342C35278A11422C9E
:1008680002303F06031D3C2C480815278A11422CEC
:1008780003303F06031D542C29278A11DC009F26CC
:100888008A115808E6005908E7005A08E8005B088A
:10089800E9000310E90CE80CE70CE60C66089E007A
:1008A800741C5E2C74101917E8307313F313A4002A
:1008B8000330A500F518652C0930E3249D1745166B
:1008C80008004512450803199D13C51D6D2C0430F9
:1008D800E32C4518712CC51C742C9D134510C510AC
:1008E80083160D087D39031908000D088312B4001A
:1008F8007D30B40583168D01FE248A1105258A11E1
:10090800BF308312D8008830D9003408DA00DB0100
:100918003A258A112B258A11B41DB32C83168D1103
:1009280083120030741018258A11643047020318A6
:10093800A62C75177618A32C0630E3248A117A267C
:100948008A11AE2C6430C70075137618AE2C0830A7
:10095800E3248A11F41CD02C0A30F410CE2C341D58
:10096800C32C83160D11013018258A11751FD02C40
:1009780064307513C7007618D02C0830CE2C341C80
:10098800D02C83160D10003018258A11751376188F
:10099800D02C0730E3248A11341ED82C83160D126C
:1009A8009E138312F514DF2CB41EDF2C83168D12D0
:1009B8009E178312F51083160D1B0D130800E50012
:1009C800173075118A1582278A11A801A9016508AF
:1009D800BB00BA01F517FE248A1105258A11EB30F0
:1009E8008312D8008830D9003B08DA00DB013A25A9
:1009F8008A112B2D83128F17831692170E120E0849
:100A0800772F881583168610831286148316111182
:100A180093130513AC309300043094008312081626
:100A280083161111911008008312CC004C08031989
:100A38001F2D4C0B08008F178316921783124C1C1E
:100A4800282D831617172A2D83161713772F06308C
:100A58008312CD003030CC00CC0B302DCD0B302D97
:100A680083128F17831692170E16772F5A30DF00CE
:100A7800831241278A1500208A11E40064080319AB
:100A88000800253A03194C2D640808268A113C2DC4
:100A9800E101502DE117622D41278A1500208A11A6
:100AA800E400003A0319072E643A0319622D0D3A3F
:100AB8000319622D113A03194E2D3C2DE11B702D9F
:100AC8004D278A11E31FA72D0330E104E209E3094A
:100AD800E20A0319E30AA72D4D278A11A72DE4017D
:100AE800E40A0310640D64278A1500208A11DC00CB
:100AF8008A1500208A11DD006302031D852D5C081C
:100B08006202031CAF2D0530E40A64060319AF2DF9
:100B1800752DE401E40A0310640D5D278A15002091
:100B28008A11DC008A1500208A11DD006302031D8A
:100B38009F2D5C086202031CAF2D0430E40A640692
:100B48000319AF2D8F2D610880390319732D803A51
:100B580003198D2DAF2D610803390319B62D2D30DA
:100B680008268A1183126408E000022E0A30D30096
:100B7800D4010310600D64278A1500208A11CC0067
:100B88008A1500208A11CD006308CF006208CE00C4
:100B98002C268A114D08D6004C08D50056268A11F5
:100BA8005308303EF52D6308CF006208CE000310CD
:100BB800600D5D278A1500208A11CC008A15002057
:100BC8008A11CD002C264C08DE000F30DE055E08A9
:100BD800DA3E840088300318013EFF008A150020A1
:100BE8008A11E400FF2D610880390319BA2D803A73
:100BF8000319D72DFF2D640808268A118312E003F4
:100C0800600FF72D3C2D0800CC00831613168312B5
:100C18004C0883169600FF308312CD00192E8312DC
:100C2800CD034D0F182E1C2E000083168E1C132E7C
:100C3800FF308312CD00262E8312CD034D0F252EB3
:100C4800292E000083161318202E8316131208006D
:100C5800D001D1014C084D040319512ED201D20AFA
:100C6800CD1B3A2E0310CC0DCD0D332E0310D00D15
:100C7800D10D4D084F02031D432E4C084E02031C94
:100C88004D2E4C08CE024D08031CCF03CF02501442
:100C98000310CD0CCC0CD20B3A2E5108CD005008C5
:100CA800CC000800530854040319752ED701D70A3D
:100CB800D41B622E0310D30DD40D5B2E540856029C
:100CC800031D682E53085502031C712E5308D502C4
:100CD8005408031CD603D6020310D40CD30CD70B2C
:100CE800622E5608D4005508D30008001810831641
:100CF8008E11831208169030980018140800831279
:100D0800CF008F17831698149A0183124F08831601
:100D18009900181418188E2E98101B088312D100E9
:100D2800D00183161C088312D0048F135108CD00FC
:100D38005008CC000800E001E101E201E3015B0892
:100D48005A04590458040319DE2EE401E40ADB1B93
:100D5800B32E0310D80DD90DDA0DDB0DAA2E031012
:100D6800E00DE10DE20DE30D5B085F02031DC62EE9
:100D78005A085E02031DC62E59085D02031DC62EC1
:100D880058085C02031CD82E5808DC025908031CBA
:100D9800590FDD025A08031C5A0FDE025B08031CB8
:100DA8005B0FDF0260140310DB0CDA0CD90CD80CD3
:100DB800E40BB32E6308DB006208DA006108D9008F
:100DC8006008D8000800CD004D080319F22E4D0820
:100DD8000319080004304D02031808008F17831602
:100DE8009217F330950583124D08CC00013003109B
:100DF800CC0DFF3E0310031DFC2E4C0D83169504ED
:100E0800772F5808E6005908E7005A08E8005B08F9
:100E1800E9000310E90CE80CE70CE60C66089E00F4
:100E28000800D8004908D9002D30DA01DB01DF01BC
:100E3800DE00C630DD00C0344F08DF004E08DE009B
:100E48004D08DD004C08DC0008004808D8004908B7
:100E5800D9002F30DA01DB01DF01DE004D30DD0083
:100E680060344808D8004908D9002C30DA01DB0181
:100E7800DF01DE004030DD0020345908DD0058086D
:100E8800DC00D80A0319D90A5D08FF005C08840051
:100E980008005F08840083130008E200840A000841
:100EA800E300DF0ADF0A08004D08C9004C08C80043
:100EB8000800283E840088300318013EFF0008001F
:100EC8001E3E840088300318013EFF00080083128C
:100ED800FA3076107410C10005346B30C70AAE00C2
:100EE8000530AF000800921383128F130800D80052
:100EF8003108D900DA01DB0108003308E6003208BE
:100F0800E50008004D08C9004C08C8000800831215
:100F18002A082B04031D0800410803197618080045
:100F2800751FF51B08008316121908008B01831220
:100F380008109B0188100816831690158D1110143F
:100F48000D1010130D130F140C1090168D1210168F
:100F58000D1210110D118F128C120F110C118F1010
:100F68008C10E83085058312850583168612831256
:100F780086128316930111110E11831288114330C2
:100F88008316880083128E148F100608AA00AB01FE
:100F980088136400073083169F0063000000E2276F
:100FA8008A11EB2783161011101090110F104B3077
:100FB8008312AA00AB018817640008008312081482
:100FC80007308B007D30890081010E1008008814DD
:100FD8008D018C0101309100F3309000E3309B00CB
:0C0FE800F0309C051C080E15C00108002C
:10100000FF1B0A2883137F1883170008840A03191B
:10101000FF0A08007F087F398A000408840A031940
:10102000FF0A82003F3406345B344F3466346D343B
:101030007D3407347F346F340034FF34013400349E
:101040000A34003464340034E83403341034273470
:1010500001340034103400340034013400341034CE
:10106000083400347D3408340634083400347D34C8
:1010700008340534083400347D340834043408342A
:1010800000347D3408340334083400347D340834AB
:10109000023408340034893408340134803408348C
:1010A0000134F4341434FA3408340134F4340034A0
:1010B000FC3408340134F4341834FB3480341034F4
:1010C00008340834003419341034FA340834003445
:1010D00019341434FA3411348034103402340A349C
:1010E000003419340B340034193411348034103482
:1010F00008340A34003419340B34003419341134F0
:101100008034103403340A34003419340B3400347E
:1011100019341134803410340A340A340034193448
:101120000B340034193411348034103406340A344A
:10113000003419340B340034193411348034083439
:101140000034FA341434FA34803408340134F4347A
:101150000034FC34803408340434E2341434FA3477
:10116000803408340434E2341434FA3480340A34D9
:101170000034013480340B3400347D348034203426
:1011800020342034203420342034203420342034BF
:101190002034203420342034203420344134463468
:1011A00045344934463431343D34253478342C3494
:1011B0000A34003430343134323433343434353456
:1011C0003634373438343934613462346334643417
:1011D00065346634003446345F3450346C346134E2
:1011E00079344C3469346734683474342C3425349D
:1011F00064340D340A3400344134463445344934BF
:10120000463430343D34253478342C340A340034B8
:1019520064008001840A0406031900340406AA2CD8
:1019620017308316850083128500E33083168600C4
:1019720063308312860083169E0108007E088A0067
:101982007F088200BF248A158000840A04087D062D
:1019920003190034FF0A0319FE0AC32C0E180F1C88
:1019A200D42C0F100E100E190F1DDE2C0F117516F0
:1019B2004008C00A07390319F5158E188F1CE22C4E
:1019C2008F104B088A004A0E8300FE0E7E0E09001D
:1019D200BB348834B13488344F34883495348834F5
:1019E2005F3488348B348834AB348834813488341F
:1019F200B7348834773488346D348834303488345A
:101A0200A53488349F3488340816903098000E2507
:101A12004D08B3004C08B20008000430C801C901E7
:101A2200C60146020318292D181483168E1D162D81
:101A32008E11013083121505CE001408C807031851
:101A4200C90A4E08C9070430C60A4602031C152DEE
:101A52004908CF004808CE000310CF0CCE0C03106B
:101A6200CF0CCE0C4E08C8004F08C900CD00480864
:101A7200CC0008008A15B1248A158A11E2278A153A
:101A82008A11EB278A158A112B208A1503308316B7
:101A9200BE000830BD007630BC00BC0B4E2DBD0B25
:101AA2004E2DBE0B4E2D552D64308312C3006B306C
:101AB200AE000530AF008A1505258A158A11A122CC
:101AC2008A154608C7007130AC000230AD00003004
:101AD200F4148A11E3248A15FA30AA00E130AB012A
:101AE200C50183168900831288177313F3138E17A7
:101AF20064008312751E8F2D75128A1161208A155A
:101B02008A11C5218A1517308A1582278A15F3167C
:101B12007519F31E8F2D8A15B5258A15F51DAE2D63
:101B2200F5118A11BC208A158A1597278A158A15FC
:101B32007B268A158A1153218A152A082B04031938
:101B4200A82D0130AA020030031CAB03AB024108EE
:101B5200031DC1033708031DB7038A11D0238A1559
:101B62008A118B278A15792DF70AF312692E3C18F0
:101B7200BD2D83160515BF2D8316051183123C1941
:101B8200C52D83168514C72D8316851083123C1A22
:101B9200CD2D83160514CF2D8316051083123E1901
:101BA200D52D83168616D72D83168612051283121B
:101BB20005120800BC18E02D83160516E22D8316C7
:101BC200051283123D18E82D83168514EA2D83161B
:101BD20085108312BE18F02D83160514F22D83167C
:101BE20005108312BE19F82D83168616FA2D831658
:101BF20086120511831205110800BC19032E8316E3
:101C02000516052E831605128312BD180B2E831698
:101C120005150D2E8316051183123E18132E8316F9
:101C22000514152E8316051083123E1A1B2E8316D9
:101C320086161D2E831686128510831285100800C3
:101C4200BC1A262E83160516282E83160512831219
:101C5200BD192E2E83160515302E831605118312FB
:101C62003D19362E83168514382E8316851083125D
:101C7200BE1A3E2E83168616402E83168612051035
:101C82008312051008003C1B492E831605164B2EA5
:101C92008316051283123D1A512E83160515532EF3
:101CA200831605118312BD1A592E831685145B2ED5
:101CB2008316851083123D1B612E83160514632E35
:101CC20083160510861283128612FF30F700080071
:101CD2007708003A0319B82D013A0319DB2D033AAC
:101CE2000319FE2D013A0319212E073A0319442E36
:101CF200662E08002808290403198B2E280A1F3093
:101D02000319290603198B2E0130A8020030031C87
:101D1200A903A902F51F080028082904031D0800C9
:101D2200E32E62278A1500208A15D300BA0A622799
:101D32008A1500208A157A278A150B2F62278A15A1
:101D420000208A15D300BA0A62278A1500208A1554
:101D52007A278A15173075118227080062278A159B
:101D620000208A15D300BA0A62278A1500208A1534
:101D72007A27FF30BC00BD00BE007515080062273F
:101D82008A1500208A15D300BA0A62278A15002014
:101D92008A157A278A1562278A150020BE00BA0A98
:101DA200080062278A150020B900BA0A3A08B8006A
:101DB2000800B903031908003808BA0008001730F0
:101DC200F513AC2E03107427D100840A0008D20048
:101DD2003A08BA0A5107840052080318520AFF004F
:101DE2008A1500208A15083A0319922E023A03191D
:101DF2009F2E013A0319AF2E073A0319C02E1C3A3F
:101E02000319D22E013A0319DA2E913A0319E02E60
:101E12000A2F0800031074278A158B278A150020C1
:101E22008A15CE00BA0A031074278A158B278A15E1
:101E320000208A15D000BA0A4E08BE00FA305006B9
:101E4200031D252F4708302FFB305006031D2B2F73
:101E52004308302FFC305006031D312F3F08D000BD
:101E62006430CF015002031C472F0330BE041230EE
:101E720084008830FF008A1500208A15BD001230C8
:101E8200840088305C2F0A30D002CF0A0A30500218
:101E92000318442F4F08031D502F0A30CF004F085C
:101EA200F0278A1500208A15BD005008123E8400D2
:101EB20088300318013EFF008A150020BC0075150A
:101EC200080003103B0DA03E840083130008D100DC
:101ED200840A0008D2003A08510784005208031805
:101EE200520AFF0008003B0DA03E84008313000845
:101EF2000800D400BA0A5308A900A8015408A8048B
:101F020008008316850483128504831686168312BD
:101F120086160800CC00840A0008CD003A084C0757
:101F220084004D0803184D0AFF000800761C0800C3
:101F3200191FA92F240825040319A92F0130A4026F
:101F42000030031CA503A5022408250403199917D0
:101F52002E082F040319B32F0130AE020030031CE8
:101F6200AF03AF022E082F04031DBE2F6B30AE004D
:101F72000530AF004308031DC3032C082D040319C9
:101F8200C82F0130AC020030031CAD03AD022C0897
:101F92002D04031D0800023047020318C7037130E5
:101FA200AC000230AD00CD014708CC000A304C0233
:101FB200031CDF2F0A30CC02CD0AD72F4D08031D98
:101FC200E42F0A30CD004D08F0278A1500208A152B
:101FD200BD004C08F0278A150020BC000800123E04
:0C1FE200840088300318013EFF00080056
:0A400000FD3FD53F293F773F283FE1
:00000001FF
