:040000008A110C282D
:10000800FE00030E8312A2000A08A3008A15582CCA
:100018008A110E28BB308313FD000C30FE003D30E2
:10002800FF00A03084008A11F1268A110430F40000
:10003800F5008316BE01BB01BC01BD0183124E3021
:10004800F301840073308A15272483018A15812DD2
:10005800F31E080083163D1808008E1D41288E11D6
:10006800303083121805C300103A031D41281508C3
:100078000139DD00DC011408DC048312731B08005D
:100088005A30700203185D288A11F0238A11F4226D
:100098008A116F08700203185A28DC238A11700B22
:1000A8005A280815EE116E0803199D130630EB0146
:1000B8005C298A11BC248A11FE228A1110303E0262
:1000C800693003193D0203186E287830EB0A6B0279
:1000D800031C7128DC238A11EB0164307002031CB5
:1000E8007A286430F0000830F3125C29F4228A116F
:1000F80006305C2983160C080319EB280C088312B8
:10010800DF0083168C01BC1C8E288C018312081515
:100118009D17EB2883126E08031D942808159D135C
:1001280078218A117F218A11FB308312B000873031
:10013800B1005F08B200B301B4218A11A5218A1168
:10014800DF1FAB2883168C13EC238A115C295F1FF1
:10015800B22883160C13EC238A115C29DF1EC228EF
:1001680083168C1283126A08031D0800F001E62327
:100178008A110430EE155C218A11EB285F1DCB280B
:1001880083160C1103303D105C218A11EB28DF1C0B
:10019800D02883168C10EB285F1CEB2883160F10D1
:1001A8003B18DB2809305C219D176E160800831266
:1001B8006E126E0803199D13EE1DE42804305C29A5
:1001C8006E18E828EE1CEB289D136E10EE108316AF
:1001D8000D087D39031908000D088312DE007D30F3
:1001E800DE0583168D0178218A117F218A11BE30A0
:1001F8008312B0008730B1005E08B200B301B421A9
:100208008A11A5218A11DE1D2B2983168D11003034
:1002180092218A116430700203181C29F316831680
:100228003D18192906305C218A11F4228A112529E2
:100238006430F000F31283163D18252908305C213C
:100248008A118316BC1C4A290A30BC1048295E1D35
:100258003C2983160D11013092218A11F31E4A2977
:100268006430F312F00083163D184A2908304829F3
:100278005E1C4A2983160D10003092218A11F31250
:1002880083163D184A2907305C218A1183125E1EA5
:10029800522983160D129E133B145829DE1E582925
:1002A80083168D129E173B1083160D1B0D13080025
:1002B8008312BD001730F3108A1186268A11D201E5
:1002C800D3013D08E500E401731778218A117F21E5
:1002D8008A11EA308312B0008730B1006508B20095
:1002E800B301B4218A11A52983128F178316921797
:1002F8000E120E08E22B88158316861083128614B8
:100308008316111193130513AC3093000430940035
:100318008312081683161111911008008312A40085
:10032800240803199929240B08008F17831692179C
:100338008312241CA22983161717A42983161713BE
:10034800E22B06308312A5003030A400A40BAA29A2
:10035800A50BAA2983128F17831692170E16E22B64
:100368003230B7008312B7238A1100278A11BC00E4
:100378003C0803190800253A0319C6293C088222BB
:100388008A11B629B901CA29B917DC29B7238A11F4
:1003980000278A11BC00003A0319812A643A03191C
:1003A800DC290D3A0319DC29113A0319C829B629A1
:1003B800B91BEA29C3238A11BB1F212A0330B904B8
:1003C800BA09BB09BA0A0319BB0A212AC3238A112D
:1003D800212ABC01BC0A03103C0DD5238A11002731
:1003E8008A11B4008A1100278A11B5003B02031D47
:1003F800FF2934083A02031C292A0530BC0A3C06A6
:100408000319292AEF29BC01BC0A03103C0DCE238D
:100418008A1100278A11B4008A1100278A11B500B1
:100428003B02031D192A34083A02031C292A043006
:10043800BC0A3C060319292A092A390880390319F4
:10044800ED29803A0319072A292A3908033903199B
:10045800302A2D3082228A1183123C08B8007C2A67
:100468000A30AB00AC010310380DD5238A110027E0
:100478008A11A4008A1100278A11A5003B08A70049
:100488003A08A600A6228A112508AE002408AD0065
:10049800D0228A112B08303E6F2A3B08A7003A0861
:1004A800A6000310380DCE238A1100278A11A40054
:1004B8008A1100278A11A500A6222408B6000F3049
:1004C800B6053608D93E840087300318013EFF0080
:1004D8008A1100278A11BC00792A39088039031942
:1004E800342A803A0319512A792A3C0882228A112F
:1004F8008312B803380F712AB6290800A40083169E
:1005080013168312240883169600FF308312A50061
:10051800932A8312A503250F922A962A0000831690
:100528008E1C8D2AFF308312A500A02A8312A503F2
:10053800250F9F2AA32A0000831613189A2A8316C8
:1005480013120800A901AA01240825040319CB2ABB
:10055800A801A80AA51BB42A0310A40DA50DAD2A4D
:100568000310A90DAA0D25082702031DBD2A24087A
:100578002602031CC72A2408A6022508031CA70371
:10058800A70229140310A50CA40CA80BB42A2A0846
:10059800A5002908A40008002B082C040319EF2A39
:1005A800AF01AF0AAC1BDC2A0310AB0DAC0DD52A8A
:1005B8002C082E02031DE22A2B082D02031CEB2A0D
:1005C8002B08AD022C08031CAE03AE020310AC0CC2
:1005D800AB0CAF0BDC2A2E08AC002D08AB000800D2
:1005E8008312181083168E11831208169030980003
:1005F800181408000A3021238A112508F20024085B
:10060800F1000330B301B201B100E830B0003D0899
:10061800A4003E08A500A601A7017108A800720859
:10062800A900AA01AB013C238A116F258A116F2307
:100638003108BE003008BD000800A7008F178316D8
:1006480098149A0183122708831699001814181809
:100658002B2B98101B088312A900A80183161C08CD
:100668008312A8048F132908A5002808A4000800ED
:10067800AC01AD01AE01AF01241C562B2808AC0714
:10068800290803110318013E031DAD072A080311A9
:100698000318013E031DAE072B0803110318013E82
:1006A800031DAF070310A80DA90DAA0DAB0D03106C
:1006B800A70CA60CA50CA40C2708260425042404C2
:1006C800031D402B2F08A7002E08A6002D08A50003
:1006D8002C08A4000800B801B901BA01BB0133080D
:1006E8003204310430040319AE2BBC01BC0AB31B1D
:1006F800832B0310B00DB10DB20DB30D7A2B03107F
:10070800B80DB90DBA0DBB0D33083702031D962B72
:1007180032083602031D962B31083502031D962B2D
:1007280030083402031CA82B3008B4023108031C1B
:10073800310FB5023208031C320FB6023308031C0E
:10074800330FB70238140310B30CB20CB10CB00C51
:10075800BC0B832B3B08B3003A08B2003908B10040
:100768003808B00008003108B5003008B400B00AF5
:100778000319B10A3508FF00340884000800370857
:10078800840083130008BA00840A0008BB00B70A73
:10079800B70A0800283E840087300318013EFF008E
:1007A80008001E3E840087300318013EFF00080041
:1007B8006B30F00AD8000530D90008009213831274
:1007C8008F13080083163D10831208159D17080023
:1007D800FA308312EA000534BC248A11FE228A11F9
:1007E8003D08CE003E08CF008030D001D101CE07B1
:1007F800F3300318F430CF07FF30031CD007031C75
:10080800D1075108031DBA2C5008031DBA2C073014
:100818004F02031D112CD0304E020318BA2C510878
:10082800031D212C5008031D212C02304F02031DEB
:100838001F2CEF304E02031C2C2CEE30F10002303E
:10084800F200AA30DA000A30DB01EF005A30452CFA
:100858005108031D3A2C5008031D3A2C01304F0251
:10086800031D382CC3304E02031C472CC230F10044
:100878000130F2002C30DA000130DB005030EF009C
:100888000A30ED00672C5108031D542C5008031D35
:10089800542C4F08031D542C65304E02031C602C49
:1008A8006430F1005E30F201DA000130DB0009301B
:1008B800EF00ED01ED0A672CF101F201DA01DA0A25
:1008C800DB01EF01ED015108A7005008A6004F0811
:1008D800A5004E08A4007108BF007208C000C1013D
:1008E800C2013F08A4024008031C400FA5024108AA
:1008F800031C410FA6024208031C420FA7026F08FF
:10090800A800A901AA01AB018A113C238A11270872
:10091800D1002608D0002508CF002408CE005A08A8
:1009280078255108B7005008B6004F08B5004E08A2
:10093800B4008A116F238A113308D1003208D0001D
:100948003108CF003008CE006D08CE0701300318FB
:10095800CF070318D0070318D1074E08EF006430FB
:100968006F02031C08006430EF000800EF01080064
:100978005D08BE005C08BD00080083163D1C080029
:100988008312731E6D2D83168E1D0800831218089E
:100998003039031D672D83168E110E1283127312C0
:1009A80015080139C800C7011408C7041708013918
:1009B800CA00C9011608C90400304A0232300319B6
:1009C8004902031C4F2D00304802333003194702F7
:1009D800031C4F2D0B308A1121238A112508F200A0
:1009E8002408F1000D308A1121238A112508DB0023
:1009F8002408DA0078257108A4007208A5000330DD
:100A0800A601A701AB01AA01A900E830A8008A1134
:100A18003C238A116F258A116F238A113108C60079
:100A28003008C5004908B0004A08B100B201B30156
:100A38004708A4004808A500A601A7014508A80082
:100A48004608A900AA01AB018A113C238A116F2527
:100A58008A116F238A113308C2003208C100310895
:100A6800C0003008BF004208031D4F2D4108031D78
:100A78004F2D02304002031D432DEE303F02031874
:100A88004F2D8A11E6238A110530EE148A115C2154
:100A9800FA30EA000800081683168E110E129130FB
:100AA800632D83168E118312731215080139C40041
:100AB800C3011408C30483168E110E1283308312E7
:100AC80098007316080030301805BE00103A031954
:100AD800552D08165F2D2708B7002608B6002508EB
:100AE800B5002408B4000800B0005B08B100B201EA
:100AF800B301080083125208530403198F2D520AB8
:100B08001F300319530603198F2D0130D20200300C
:100B1800031CD303D302731F080052085304031D98
:100B28000800E72D66268A1100278A11AB00E40A1F
:100B380066268A1100278A117E268A110F2E6626BC
:100B48008A1100278A11AB00E40A66268A11002759
:100B58008A117E268A111730F31086260800662629
:100B68008A1100278A11AB00E40A66268A11002739
:100B78008A117E26FF30E600E700E800F31408003B
:100B880066268A1100278A11AB00E40A66268A11B4
:100B980000278A117E268A1166268A110027E80016
:100BA800E40A080066268A110027E300E40A6408BC
:100BB800E2000800E303031908006208E4000800E3
:100BC80017307313B02D03107826A900840A000883
:100BD800AA006408E40A290784002A0803182A0AD4
:100BE800FF008A1100278A11083A0319962D023A44
:100BF8000319A32D013A0319B32D073A0319C42D7C
:100C08001C3A0319D62D013A0319DE2D913A03191E
:100C1800E42D0E2E0800031078268A118F268A11DB
:100C280000278A11A600E40A031078268A118F2665
:100C38008A1100278A11A800E40A2608E800FA3079
:100C48002806031D292E7008342EFB302806031DA4
:100C58002F2E6C08342EFC302806031D352E69080B
:100C6800A8006430A7012802031C4B2E0330E804B7
:100C7800123084008730FF008A1100278A11E700AC
:100C8800123084008730602E0A30A802A70A0A3082
:100C980028020318482E2708031D542E0A30A700DF
:100CA8002708E6268A1100278A11E7002808123E3D
:100CB800840087300318013EFF008A110027E600F0
:100CC800F31408000310650DA03E84008313000888
:100CD800A900840A0008AA006408290784002A08D1
:100CE80003182A0AFF000800650DA03E840083133C
:100CF80000080800AC00E40A2B08D300D2012C0835
:100D0800D204080083168504831285048316861688
:100D1800831286160800A400840A0008A500640847
:100D28002407840025080318250AFF0008008316F5
:100D38003D1C08008312580859040319A92E0130D4
:100D4800D8020030031CD903D90258085904031DDE
:100D5800B42E6B30D8000530D9006C08031DEC03A5
:100D6800560857040319BE2E0130D6020030031C62
:100D7800D703D70256085704031D08000230700233
:100D88000318F0037130D6000230D700A5017008AF
:100D9800A4000A302402031CD52E0A30A402A50A96
:100DA800CD2E2508031DDA2E0A30A5002508E626D3
:100DB8008A1100278A11E7002408E6268A110027ED
:100DC800E6000800123E840087300318013EFF0049
:100DD80008007E088A007F088200ED268A118000BC
:100DE800840A04087D0603190034FF0A0319FE0A61
:020DF800F12EDA
:100E0000FF1B0A2F83137F1883170008840A031916
:100E1000FF0A08007F087F398A000408840A031942
:100E2000FF0A82003F3406345B344F3466346D343D
:100E30007D3407347F346F340034FF3401340034A0
:100E40000A34003464340034E83403341034273472
:100E500001340034103400340034013400341034D0
:100E6000083400347D3408340634083400347D34CA
:100E700008340534083400347D340834043408342C
:100E800000347D3408340334083400347D340834AD
:100E90000234083400347D3408340134083400341A
:100EA000FA341434FA34803408340134F434143409
:100EB000FA3408340134F4340034FC340834013496
:100EC000F4341834FB3480341034083408340034DB
:100ED00019341034FA340834003419341434FA3420
:100EE00011348034103402340A34003419340B3491
:100EF0000034193411348034103408340A34003486
:100F000019340B3400341934113480341034033460
:100F10000A34003419340B34003419341134803459
:100F200010340A340A34003419340B3400341934C0
:100F300011348034103406340A34003419340B343C
:100F4000003419341134803408340134F43400345A
:100F5000FC348034083400347D341434FA34803462
:100F600008340434E2341434FA3480340A3400345B
:100F7000013480340B3400347D3480342034203408
:100F800020342034203420342034203420342034C1
:100F90002034203420342034203441344634453445
:100FA0004934463431343D34253478342C340A34D1
:100FB000003430343134323433343434353436342C
:100FC00037343834393461346234633464346534EA
:100FD0006634003446345F3450346C3461347934D0
:100FE0004C3469346734683474342C3425346434B4
:100FF0000D340A34003441344634453449344634DF
:0E10000030343D34253478342C340A34003436
:10184E0064008001840A0406031900340406282C5F
:10185E0017308316850083128500E33083168600C9
:10186E0063308312860083169E010800BA348734D3
:10187E00B0348734543487349A348734643487349C
:10188E0090348734AA34873486348734B634873418
:10189E007C3487347234873430348734A4348734BC
:1018AE00FF340E180F1C5D2C0F100E100E190F1D8D
:1018BE00692C0F11F31583163E08BE0A07398312E1
:1018CE000319731583128E188F1C6E2C8F1023081C
:1018DE008A00220E8300FE0E7E0E0900081690303E
:1018EE0098007E242508DD002408DC000800043062
:1018FE00F101F201EF016F020318992C18148316EF
:10190E008E1D862C8E11013083121505A60014082B
:10191E00F1070318F20A2608F2070430EF0A6F02E5
:10192E00031C852C7208A7007108A6000310A70CD3
:10193E00A60C0310A70CA60C2608F1002708F2002F
:10194E00A5007108A40008008316BB12BB1BBB16B2
:10195E008316BB1783129D1FB62C8316BB138316DB
:10196E00121DBB138316BB1EBE2C0130BF2C0030C4
:10197E008312BE008316BB1FC62C0130C72C00304D
:10198E0083123E060319CE2C0230F40008007408B0
:10199E0003190800F4037408031D080083163B1294
:1019AE00BB1B3B1683163C1CDE2C0130DF2C00309B
:1019BE008312BE0083163B1EE62C0130E72C00304E
:1019CE0083123E060319EE2C8316BB14F02C8316DD
:1019DE00BB10BB11BB183B1EF52CBB153B11BB1826
:1019EE003C1CFA2C3B153C103B1A3C148316BB1DB9
:1019FE00072D3D148312013073128A115C218A1552
:101A0E0083163B193D1C080002303D108A115C29DB
:101A1E00831254085504031D08006A08031D0800AC
:101A2E0083163D1808008312F31E731B08008316DD
:101A3E00121908008B01831208109B0188100816DA
:101A4E00831690158D1110140D1010130D130F1405
:101A5E000C1090168D1210160D1210110D118F12F2
:101A6E008C120F110C118F108C10E830850583121B
:101A7E008505831686128312861283169301111121
:101A8E000E118312881143308316880083128E1430
:101A9E008F100608D400D501881364000730831612
:101AAE009F006300000068258A1571251011101023
:101ABE0090110F104B308312D400D501881764009B
:101ACE0008008312081407308B007D3089008101D5
:101ADE000E10080088148D018C0101309100F33036
:101AEE009000E3309B00F0309C051C080E15831609
:101AFE00BE0108008A152F248A158A1568258A15B5
:101B0E008A1571258A158A15D0268A1503308312F7
:101B1E00CD000830CC007630CB00CB0B942DCC0B07
:101B2E00942DCD0B942D9B2D64308312EC006B30D5
:101B3E00D8000530D9008A1575248A158A11F0232C
:101B4E008A156F08F0007130D6000230D700831668
:101B5E000030BC148A115C218A15FA30D400E130B1
:101B6E00D501EE0183168900831288178316BB13E5
:101B7E003C1083128E1764008312F31DDC2DF311BB
:101B8E008A15AB248A158A11C1248A1517308A1139
:101B9E0086268A1583163B178312F31CDC2D8316BB
:101BAE003B1FDC2D8A1504268A158312731DFD2D0D
:101BBE0073118A1525278A158A119B268A158A1173
:101BCE007E258A158A112C208A15831254085504F5
:101BDE000319F72D0130D4020030031CD503D502B2
:101BEE006A08031DEA036108031DE1038A117E20C2
:101BFE008A158A150F258A15C22DBA0A3B13BE2ED9
:101C0E00831266180D2E831605150F2E83160511D9
:101C1E0083126619152E83168514172E83168510BA
:101C2E008312661A1D2E831605141F2E8316051099
:101C3E0083126819252E83168616272E8316861272
:101C4E0005128312051208008312E618312E831630
:101C5E000516332E8316051283126718392E831636
:101C6E0085143B2E831685108312E818412E831699
:101C7E000514432E831605108312E819492E831678
:101C8E0086164B2E83168612051183120511080037
:101C9E008312E619552E83160516572E8316051236
:101CAE008312E7185D2E831605155F2E8316051118
:101CBE0083126818652E83160514672E8316051079
:101CCE008312681A6D2E831686166F2E8316861251
:101CDE0085108312851008008312E61A792E83165A
:101CEE0005167B2E831605128312E719812E831695
:101CFE000515832E8316051183126719892E8316F7
:101D0E0085148B2E831685108312E81A912E831656
:101D1E008616932E83168612051083120510080060
:101D2E008312661B9D2E831605169F2E8316051293
:101D3E008312671AA52E83160515A72E8316051175
:101D4E008312E71AAD2E83168514AF2E83168510D7
:101D5E008312671BB52E83160514B72E8316051036
:101D6E00861283128612FF308316BA0008003A08D4
:101D7E00003A0319072E013A03192B2E033A0319C1
:101D8E004F2E013A0319732E073A0319972EBA2EC6
:101D9E0008008312081683168E018D018C01901691
:101DAE008D1210160D129E173B1010130D13831269
:101DBE0088120815003006270230E9000B308A1110
:101DCE0021238A152508F2002408F100EA278A113A
:101DDE006F233008BD003108BE003208BF00330843
:101DEE00C0000310C00CBF0CBE0CBD0C3D089E0005
:101DFE009D1383168F138C130F130C130800A5005D
:101E0E0025080319112F250803190800043025028F
:101E1E00031808008F1783169217F3309505831257
:101E2E002508A40001300310A40DFF3E0310031D6E
:101E3E001B2F240D831695048A11E22B8316BC13D7
:101E4E008312731C2C2F8316BC1783127310061B60
:101E5E0073148316BC1F352F0130362F00308312BA
:101E6E00C200731C3C2F01303D2F00304206031977
:101E7E00432F0430F5008B2F750803198B2FF503B4
:101E8E007508031D8B2F83163C138312731C512F61
:101E9E0083163C178316BC1E562F0130572F003069
:101EAE008312C20083163C1F5E2F01305F2F00305D
:101EBE00831242060319662F83163C15682F83166C
:101ECE003C113C123C193C1F6D2F3C16BC113C19A9
:101EDE00BC1E722FBC15BC123C1BBC168316BC1D3F
:101EEE008B2F83126108031D7D2FE0013E30E00A27
:101EFE00E10005306006031D8B2F83160230BC06F1
:101F0E000A308A115C218A158C2F83126108031DF9
:101F1E00080003306006031D08000430E001E90AE2
:101F2E006902031C9C2FE901E90A0C308A115C211D
:101F3E008A150B308A1121238A152508F2002408F0
:101F4E00F100690BBB2F7108B0007208B1002A3086
:101F5E00B201B301B701B600B930B5008030B4009C
:101F6E008A116F238A15DA2F02306906031DC52FD9
:101F7E007108EA278A116F238A15DA2F0330690652
:101F8E00031D08007108B0007208B1002D30B201B7
:101F9E00B301B701B600C630B500C030B4008A1127
:101FAE006F238A15DA2F3008BE003108BF003208C1
:101FBE00C0003308C1000310C10CC00CBF0CBE0C16
:101FCE003E089E000800B0007208B1002C30B2012D
:101FDE00B301B701B6004030B5002030B4000800A0
:0A400000FD3FD53F293F773F283FE1
:00000001FF
