:040000008A110C282D
:10000800FE00030E8312A2000A08A3008A11C12F62
:100018008A110E28AC308313FD000630FE00DF3055
:10002800FF00A03084008A11E3278A118316AE01ED
:10003800AF01AC01AD0183124F30F501840075307A
:100048008A11EB2683018A11612E8312F51E08009E
:100058008316AD1808008E1D3F288E11303083128C
:100068001805C300103A031D3F2815080139DE00A2
:10007800DD011408DD048312751B08005A30720272
:100088000318592878208A11AA238A117108720244
:1000980003185628F20A720B56280815F011700832
:1000A80003199D130630EE01822B01248A11372192
:1000B8008A1110303E02693003193D02031869287D
:1000C8000C30EE0A6E02031C6B28F20AEE01633054
:1000D8007202031C74286330F2000830F512822B78
:1000E800AA238A110630822B01248A1137218A110A
:1000F8003D08CF003E08D0008030D101D201CF07A3
:10010800F3300318F430D007FF30031CD107031C69
:10011800D2075208031D35295108031D3529073018
:100128005002031D9928D0304F0203183529520870
:10013800031DA9285108031DA92802305002031DD8
:10014800A728EF304F02031CB428EE30F30002302A
:10015800F400AA30DB000930DC01F1005A30CD2868
:100168005208031DC2285108031DC228013050023D
:10017800031DC028C3304F02031CCF28C230F30030
:100188000130F4002C30DB000130DC005030F1008D
:100198000A30EF00EF285208031DDC285108031D20
:1001A800DC285008031DDC2865304F02031CE828B2
:1001B8006430F3005E30F401DB000130DC0009300C
:1001C800F100EF01EF0AEF28F301F401DB01DB0A8C
:1001D800DC01F101EF01DB238A117308BF00740809
:1001E800C000C101C2013F08A4024008031C400F1F
:1001F800A5024108031C410FA6024208031C420F36
:10020800A7027108A800A901AA01AB01C5228A1199
:100218002708D2002608D1002508D0002408CF00DE
:100228005B08FB238A115208B7005108B600500832
:10023800B5004F08B4007D228A11E4238A116F08A3
:10024800CF0701300318D0070318D1070318D207C6
:100258004F08F10063307102031C08006330F1009D
:100268000800F10108000A3062228A112508F4000A
:100278002408F3000330B301B201B100E830B00044
:100288003D08A4003E08A500A601A7017308A80020
:100298007408A900AA01AB01C5228A11D2238A11C8
:1002A8007D223108BE003008BD0008008312081600
:1002B80083168E018D018C0190168D1210160D1269
:1002C8009E172C1010130D13831288120815003076
:1002D800B4238A110B3062228A112508F4002408FD
:1002E800F300B0007408B1003030B201B301B701B7
:1002F800B600D430B500B4017D228A11E4238A11F6
:100308000310D20CD10CD00CCF0CDB238A1152086D
:10031800AB005108AA005008A9004F08A800C52240
:100328002508CF002608D0002708D100D2014F08A1
:10033800023E9E009D1383168F178C130F130C1308
:1003480008008316AD1C08008312751E602A8316E8
:100358008E1D0800831218083039031D5A2A831687
:100368008E110E128312751215080139C900C801C1
:100378001408C80417080139CB00CA011608CA04B2
:1003880000304B021E3003194A02031C3E2A00307B
:1003980049021F3003194802031C3E2A0B3062220F
:1003A8008A112508F4002408F3000D3062228A110E
:1003B8002508DC002408DB00FB238A117308A4004D
:1003C8007408A5000330A601A701AB01AA01A90082
:1003D800E830A800C5228A11D2238A117D228A1109
:1003E8003108C5003008C4004A08B0004B08B10005
:1003F800B201B3014808A4004908A500A601A70155
:100408004408A8004508A900AA01AB01C5228A1121
:10041800D2238A117D228A113308C3003208C20010
:100428003108C1003008C0004308031D2B2A4208C8
:10043800031D2B2A03304102031D242A8430400265
:1004480003182B2AF5238A110530F014822B430850
:10045800031D392A4208031D392A05304102031DAC
:10046800372ADD304002031C3E2AF5238A11093061
:100478007014822B83168E110E129130562A831611
:100488008E118312751215080139C700C6011408A8
:10049800C6044708BE004608BD00372183168E11E2
:1004A8000E12833083129800751608003030180534
:1004B800BF00103A0319432A0816522AA7008F17BB
:1004C800831698149A018312270883169900181422
:1004D80018186C2A98101B088312A900A801831603
:1004E8001C088312A8048F132908A5002808A40053
:1004F8000800B801B901BA01BB013308320431045C
:1005080030040319BC2ABC01BC0AB31B912A03108E
:10051800B00DB10DB20DB30D882A0310B80DB90D89
:10052800BA0DBB0D33083702031DA42A3208360260
:10053800031DA42A31083502031DA42A30083402F9
:10054800031CB62A3008B4023108031C310FB50267
:100558003208031C320FB6023308031C330FB702EC
:1005680038140310B30CB20CB10CB00CBC0B912AAC
:100578003B08B3003A08B2003908B1003808B000A7
:100588000800AC01AD01AE01AF01241CDF2A280828
:10059800AC07290803110318013E031DAD072A08FB
:1005A80003110318013E031DAE072B08031103189E
:1005B800013E031DAF070310A80DA90DAA0DAB0D31
:1005C8000310A70CA60CA50CA40C270826042504C8
:1005D8002404031DC92A2F08A7002E08A6002D08E9
:1005E800A5002C08A400080083160C080319382B52
:1005F8008C1F012B8C130530822B0C1F062B0C1320
:100608000530822B8C1E122B8C128312F201F523DB
:100618008A110430F01582238A11382B0C1D1A2BED
:100628000C110330AD1082238A11382B8C1C1E2B21
:100638008C10382B0F1C382B0F102C18282B093036
:1006480082239D1770160800831270127008031910
:100658009D13F01D312B0430822B7018352BF01CA4
:10066800382B9D137010F01083160D08031908001D
:100678000D1E542B0D12003097238A11633072021D
:100688000318502BF5168316AD184D2B0630822310
:100698008A11AA238A11712B6330F200F5125F2B9D
:1006A8000D1D642B0D11013097238A11F51E712B36
:1006B8006330F512F2008316AD18712B08306F2BDA
:1006C8008D1E712B8D12003097238A11F512831617
:1006D800AD18712B073082238A1183160D1E792BD2
:1006E8008D120D129E132C147F2B8D1E7F2B8D12B5
:1006F8000D129E172C100D1B0D1308008312A40059
:10070800751F8A2B05306506031908001F30751000
:100718008A115C258A11D301D401ED232408E50050
:10072800E401751708008312A400240803199E2BFE
:10073800240B08008F17831692178312241CA72BEB
:1007480083161717A92B83161713062C8312181054
:1007580083168E118312081690309800181408001A
:10076800A50025080319BF2B250803190800043024
:100778002502031808008F1783169217F330950582
:1007880083122508A40001300310A40DFF3E0310B6
:10079800031DC92B240D83169504062C2708B700C2
:1007A8002608B6002508B5002408B4000800520839
:1007B800A7005108A6005008A5004F08A40008008B
:1007C8003308D2003208D1003108D0003008CF00F9
:1007D8000800EC01EB01EA01E90106160F100E1002
:1007E80008008316AD10831208159D170800B00085
:1007F8005C08B100B201B30108005E08BE005D08E4
:10080800BD000800921383128F1308008312530847
:10081800540403191B2C530A1F30031954060319D7
:100828001B2C0130D3020030031CD403D402751FE3
:10083800080053085404031D08009D2C55258A11EF
:1008480000278A11AE00E40A55258A1100278A116B
:1008580065258A11BF248A1155258A1100278A1116
:10086800AE00E40A55258A1100278A11AD00E40A72
:1008780055258A1100278A11AB00E40A55258A11EB
:1008880000278A11AC00E40A2E0803190800EC00BE
:100898002D08E8002B08E7002C08E900080055257A
:1008A8008A1100278A11AE00E40A55258A1100270B
:1008B8008A1165258A11BF2C55258A1100278A11AE
:1008C800AE00E40A55258A1100278A1165258A1188
:1008D8001F3075105C25080055258A1100278A11DC
:1008E800AE00E40A55258A1100278A1165258A1168
:1008F80055258A110027E600E40A080055258A11C3
:100908000027E300E40A6408E2000800E30303198F
:1009180008006208E4000800751375108A11ED23B9
:100928008A111F305C258A11650B08008316AD10EB
:1009380008006508A03E84006408E40A83130007E1
:1009480084008A1100278A11073A0319222C0F3ACA
:100958000319532C023A0319602C063A0319702C18
:100968001C3A0319822C013A03198A2C913A03196B
:10097800902CBE2C080055258A1100278A11A80042
:10098800E40A55258A1100278A11A900E40A552589
:100998008A1100278A11AA00FE30E40A2906031DDD
:1009A800F92C05305802DD3003195702031CDE2CE0
:1009B8000430EF2C03305802E93003195702031CA6
:1009C800E72C0330EF2C01305802F5300319570299
:1009D800031CF12C0230A900F92C570858040319FC
:1009E800F82CA901A90AF92CA9012A0FFD2CFF301E
:1009F800022DFE302A06031D032D7208AA002908BD
:100A0800A4002A08A50028080B2575140800A600CC
:100A1800A701E6001A2D0F30162D0730162D0330CA
:100A2800162D0130DF002B2DDF012B2D2408003A75
:100A38000319182D013A0319152D033A0319132D1B
:100A4800013A0319112D073A03190F2D2B2D643084
:100A58002502031C3E2D0B3084008A1100278A11C1
:100A6800E1000B3084008A110027E00008000A30FA
:100A7800A502A70A0A30250203183B2D2708031DE3
:100A8800472D0A30A7002708013E84008A11002755
:100A98008A11E1002508013E84008A110027E00040
:100AA80008006508A03E8400640800078400080068
:100AB8008316850483128504831686168312861688
:100AC8000800AD00E40A2E08D400D3012D08D30491
:100AD8000800AA0A2C134F2E83126018762D83164D
:100AE8008515782D83168511831260197E2D83163E
:100AF8000515802D831605118312601A862D83161D
:100B08008514882D8316851083125F188E2D831601
:100B18000514902D831605108312661A962D8316D8
:100B28008616982D83168612051283120512080060
:100B38008312E018A22D83160516A42D831605121C
:100B480083126118AA2D83160515AC2D831605117D
:100B58008312E618B22D83168514B42D83168510DA
:100B68008312DF18BA2D83160514BC2D83160510C1
:100B78008312E61AC22D83168616C42D8316861292
:100B880085118312851108008312E019CE2D831672
:100B98000516D02D831605128312E118D62D83165B
:100BA8008515D82D8316851183126618DE2D8316B8
:100BB8008514E02D8316851083125F19E62D8316A0
:100BC8000514E82D831605108312661BEE2D831677
:100BD8008616F02D8316861205118312051108005A
:100BE8008312E01AFA2D83160516FC2D83160512BA
:100BF8008312E119022E83168515042E831685119A
:100C0800831261190A2E831605150C2E83160511F9
:100C18008312DF19122E83160514142E831605105D
:100C2800831266191A2E831686161C2E83168612B0
:100C380085108312851008008312601B262E8316E8
:100C48000516282E831605128312611A2E2E831676
:100C58008515302E831685118312E11A362E8316D8
:100C68000515382E831605118312611B3E2E831637
:100C78008514402E831685108312E619462E831696
:100C88008616482E83168612051083120510FF302B
:100C98008316AA0008002A08003A0319702D013AA1
:100CA80003199C2D033A0319C82D013A0319F42D91
:100CB800073A0319202E4B2E08008A11EF278A11B4
:100CC8008A15B1278A118A15E7278A118A115A21AC
:100CD8008A1103308312CE000830CD007630CC0064
:100CE800CC0B742ECD0B742ECE0B742E7B2ED030E5
:100CF8008312D7000730D800ED018A15A8278A117A
:100D08008A1178208A117108F2007130D9000230F6
:100D1800DA000030F5158A1182238A11FA30D500DD
:100D2800E130D601F00183168900831288178316F3
:100D3800AC132D1083128E1764008312751DBA2E02
:100D480075118A1572268A118A11A5218A111F30F8
:100D58008A115C258A1183162C178312751CBA2EEA
:100D680083162C1FBA2E8A116D258A118312F51C41
:100D7800D82EF5108A152A268A118A110A248A1172
:100D88008A1129208A118A15D8268A118A1572266D
:100D98008A118312550856040319D82E0130D5023A
:100DA8000030031CD603D6028A11F8228A118A154C
:100DB80049278A11A02EA3340D3498348D343D343C
:100DC80082345D34B534AE347734FF34043464008F
:0E0DD8008001840A0406031900340406EC2E80
:100E000007308A000408840A820700343F3406341D
:100E10005B344F3466346D347D3407347F346F3443
:100E20000034FF340734003400343234FE34FE34EE
:100E3000313400340034013410340A340C340034BA
:100E4000193406340C34003419340A340C340034A8
:100E5000193412340C340034193422340C34003474
:100E6000193442340C340034193402341134073448
:100E700000347D347E34FE34FE345134003400348A
:100E8000013480340734003419340034FE34FF3424
:100E90001134193419340A340834003419347E34C6
:100EA000FE3400341034093408340034193400346A
:100EB000FE34FF340834003419347E34FE340034F8
:100EC00011348034073400343E3403340034FE34AB
:100ED00071340034003405340C3400343E340234B0
:100EE000103409340C3400343E3403340C340034F0
:100EF0003E340234113480340734013477347E3484
:100F0000FE34FE3411347D3400340334803407342D
:100F10000034FA347E34FE34FE3411347D3400342F
:100F2000023480340734013477347E34FE34FE34A6
:100F300011341F341F340234803407340034FA343F
:100F40007E34FE34FE3451340034003401348034B5
:100F500007340034FA347F34043458341134FA340A
:100F600000340134803408341D344C3402340034ED
:100F7000FE34803408340134773402340034FE34D3
:100F800080340E180F1CC72F0F100E1006160E19E6
:100F90000F1DD32F0F11751583162F08AF0A0739B0
:100FA00083120319F51483128E188F1CD82F8F10FB
:100FB00023088A00220E8300FE0E7E0E09007E08A2
:100FC0008A007F088200DF278A118000840A0408D3
:100FD0007D0603190034FF0A0319FE0AE32F1F30B0
:100FE0008316850083128500A7308316860077302C
:0C0FF00083128600043083169E00080067
:101C54008316AD1C08007D308312ED0A6D02031C4F
:101C64003E2EED015708580403193E2E0130D702C9
:101C74000030031CD803D80259085A040319482E0B
:101C84000130D9020030031CDA03DA0259085A047D
:101C9400031D0800023072020318F2037130D900E8
:101CA4000230DA00A5017208A4000A302402031CE1
:101CB4005F2E0A30A402A50A572E2508031D642EA0
:101CC4000A30A5002508013E84008A1100278A15E0
:101CD400E1002408013E84008A110027E000080086
:101CE4008316AC12AC1BAC168316AC1783129D1F63
:101CF4007D2E8316AC138316121DAC138316AC1EF3
:101D0400852E0130862E00308312A5008316AC1F69
:101D14008D2E01308E2E0030831225060319962E47
:101D240002308316AB00080083162B080319080041
:101D3400AB032B08031D08002C12AC1B2C168316B6
:101D44002D1CA62E0130A72E00308312A500831669
:101D54002C1EAE2E0130AF2E00308312250603193F
:101D6400B62E8316AC14B82E8316AC10AC11AC1876
:101D74002C1EBD2EAC152C11AC182D1CC22E2C15EE
:101D84002D102C1A2D148316AC1DCF2EAD148312D6
:101D9400013075128A1182238A1583162C19AD1C01
:101DA4000800AD108312E301E30A080083126C1EDD
:101DB400F52E6C126C0860390319EE2EEC1EE52E1C
:101DC4008316AE01AE0A8312081407308B00FA3072
:101DD400890081010E10F52E43278A150319F42E6C
:101DE4000616F52E06126C08603903191D2F0E1005
:101DF4000612EC1E0E2F8316FA30AE0AAE0A2E021D
:101E0400031C072F8312EC121D2F2E088312890046
:101E140081010F100E141D2F83160230AE03AE0382
:101E24002E020318072F83126C130616E9030319F5
:101E34001D2F6030EC046A080319322FEA036A0884
:101E4400031D08006B080319292F06120800E90373
:101E54006908031908006808EB006708EA0008002D
:101E64006B0803190800EB036B08031D0800E90362
:101E740069080319412F43278A150319272F0616CA
:101E840008006808EB006708EA006A080800831283
:101E940055085604031D08008316AD180800831264
:101EA400F51E751B08008316121908008312F51D10
:101EB400622FF511A8278A1178208A157108F2007B
:101EC4008B0108109B0188100816831690158D113C
:101ED40010140D1010130D130F140C1090168D12F6
:101EE40010160D1210110D118F128C120F110C11EE
:101EF4008F108C10E03085058312850583168612B9
:101F0400831286128316930111110E118312881104
:101F140007308316880083128E148F100608D500AC
:101F2400D60188136400073083169F006300000005
:101F3400B1278A15E7271011101090110F104B309C
:101F44008312D500D6018817640008000816903063
:101F54009800BA272508DE002408DD000800831253
:101F6400081407308B007D30890081010E100800B1
:101F74000430F301F401F10171020318D52F181490
:101F840083168E1DC22F8E11013083121505A600F3
:101F94001408F3070318F40A2608F4070430F10AB6
:101FA4007102031CC12F7408A7007308A600031054
:101FB400A70CA60C0310A70CA60C2608F3002708F0
:101FC400F400A5007308A400080088148D018C0196
:101FD40001309100F3309000E3309B00F0309C0519
:0A1FE4001C080E158316AF0108005B
:0A400000FD3FD53F693FF73F243F25
:00000001FF
