:040000008A110C282D
:10000800FE00030E8312A0000A08A1008A15412EE3
:100018008A110E28AE308313FD000E30FE00233007
:10002800FF00A03084008A1535268A11FF30F700BA
:100038000430F800F9004B30840073308A150D261F
:10004800F301F401F501F60183018A157D2F0A30C9
:10005800F2228A112308F2002208F1000330B101CC
:10006800B001AF00E830AE003B08A2003C08A30096
:10007800A401A5017108A6007208A700A801A9019A
:1000880055238A11A3238A110D232F08BC002E089B
:10009800BB0008006008031D080003305F06031951
:1000A800F41808000430DF01E80A6802031C5E281F
:1000B800E801E80A0C30D3228A110B30F2228A11A7
:1000C800D5238A11680B6E28AC238A11B2000D2340
:1000D8008A11882B02306806031D79287108982335
:1000E8008A11B2000D238A11882B03306806031D7C
:1000F8000800B8238A11B2000D238A11882B761CB8
:100108000800F51E2A2983168E1D08008312180878
:100118003039031D242983168E110E128312F5120D
:1001280015080139C500C4011408C40417080139A9
:10013800C700C6011608C60400304702323003194A
:100148004602031C0C2900304502333003194402CF
:10015800031C0C290B30F2228A112308F200220812
:10016800F1000D30F2228A112308DC002208DB009E
:10017800CF238A117108A2007208A3000330A401DA
:10018800A501A901A801A700E830A60055238A11F6
:10019800A3238A110D238A112F08C3002E08C20039
:1001A8004608AE004708AF00B001B1014408A200FC
:1001B8004508A300A401A5014208A6004308A7001A
:1001C800A801A90155238A11A3238A110D238A1195
:1001D8003108BF003008BE002F08BD002E08BC0043
:1001E8003F08031D0C293E08031D0C2902303D025F
:1001F800031D0029EE303C0203180C2976107410F8
:1002080008159D170530EE14D322FA30EA000800CD
:10021800081683168E110E129130202983168E111E
:100228008312F51215080139C100C0011408C00471
:1002380083168E110E12833083129800F51608006B
:1002480030301805BB00103A0319122908161C296A
:10025800F4137518F41783127510061B751483129E
:10026800F41F3829013039290030BF00751C3E2998
:1002780001303F2900303F06031945290430F900B1
:100288008B29790803198B29F9037908031D8B2910
:100298007413751C502974178312F41E55290130E4
:1002A80056290030BF00741F5B2901305C290030DB
:1002B8003F06031962298312741564298312741185
:1002C80074127419741F69297416F4117419F41EC0
:1002D8006E29F415F412741BF4168312F41D8B297D
:1002E8006008031D7829DF013E30DF0AE000053091
:1002F8005F06031D84290230F4060A30D3228A11CE
:10030800741C8B29741099120D30D3228A114E2037
:100318008A118E29600803197418DE29F418DE2959
:1003280002305F06031DDE29DF01F518A129093017
:10033800D32208159D176E1608006E126E08031D4D
:10034800A72908159D13EE1DAB290430D32A6E1872
:10035800AF29EE1CB32908159D136E10EE10741406
:100368009916EE30D1000230D2000B30F2228A11F9
:10037800C4238A11AE007208AF001C30B001B1016D
:10038800B501B400FD30B300E030B2000D238A118E
:100398002E08BB002F08BC003008BD003108BE0085
:1003A8000310BE0CBD0CBC0CBB0C3B089E000B30F4
:1003B800D3228A11741C080051085204031908003A
:1003C8000130D1020030031CD203D202510852047A
:1003D800031D0800741099120D30D32A83160C08D7
:1003E8000319802A8312F41CFF2983168C018312B7
:1003F80008159D17802A6E08031D042A08159D13E9
:1004080083168C1F0B2A8C13C9238A11D32A0C1F1D
:10041800112A0C13C9238A11D32A8C1E222A8C1262
:1004280083126A08031D0800F0017610741008157D
:100438009D170430EE15D3228A11802A0C1D2B2A11
:100448000C11831203307610D3228A11802A8C1C57
:100458002F2A8C10802A0F1C802A0F104B308312F1
:10046800D5000B30D601F2228A11D5238A11680BE8
:10047800402AAC238A114E2A02306806031D482AF6
:10048800710898238A114E2A03306806031D602AD2
:10049800B8238A11B2000D238A112E08BB002F0839
:1004A800BC003008BD003108BE000310BE0CBD0CF6
:1004B800BC0CBB0C3B089E00741C6A2A74101917EC
:1004C800E8307313F313CF000330D000F518712A06
:1004D8000930D3229D176E1608006E126E08031994
:1004E8009D13EE1D792A0430D32A6E187D2AEE1C3E
:1004F800802A9D136E10EE1083160D08031908004C
:100508008D1DA62A8D11831200307410DF228A11E6
:10051800643070020318992A75177618952A0630E0
:10052800D3228A112F248A11A12A6430F00075136E
:100538007618A12A0830D3228A11F41CC12A0A305D
:10054800F410BF2A0D1DB52A0D110130DF228A11C2
:10055800751FC12A64307513F0007618C12A083057
:10056800BF2A0D1CC12A0D100030DF228A11751315
:100578007618C12A0730D3228A1183160D1EC92A7C
:100588000D129E138312F514CF2A8D1ECF2A8D12B9
:100598009E178312F51083160D1B0D130800A20079
:1005A800173075118A11F425D301D4012208E4000B
:1005B800E301F51708008312A20022080319E62AAE
:1005C800220B08008F17831692178312221CEF2A1A
:1005D80083161717F12A83161713DA2BA5008F171E
:1005E800831698149A018312250883169900181403
:1005F8001818FC2A98101B088312A700A601831656
:100608001C088312A6048F132708A3002608A2003B
:100618000800B601B701B801B901310830042F0448
:100628002E0403194C2BBA01BA0AB11B212B031053
:10063800AE0DAF0DB00DB10D182B0310B60DB70DE3
:10064800B80DB90D31083502031D342B30083402BA
:10065800031D342B2F083302031D342B2E083202BE
:10066800031C462B2E08B2022F08031C2F0FB302BF
:100678003008031C300FB4023108031C310FB502D7
:1006880036140310B10CB00CAF0CAE0CBA0B212B06
:100698003908B1003808B0003708AF003608AE0096
:1006A8000800AA01AB01AC01AD01221C6F2B260882
:1006B800AA07270803110318013E031DAB072808E2
:1006C80003110318013E031DAC0729080311031881
:1006D800013E031DAD070310A60DA70DA80DA90D1A
:1006E8000310A50CA40CA30CA20C250824042304B5
:1006F8002204031D592B2D08A5002C08A4002B0843
:10070800A3002A08A20008002E08BB002F08BC007E
:100718003008BD003108BE000310BE0CBD0CBC0C77
:10072800BB0C3B089E000800AE007208AF002D30DD
:10073800B001B101B501B400C630B300C03425081A
:10074800B5002408B4002308B3002208B20008004A
:100758007108AE007208AF002C30B001B101B501CC
:10076800B4004030B30020347108AE007208AF0006
:100778002F30B001B101B501B4004D30B300603481
:100788002308F2002208F10008008312FA307610DC
:100798007410EA000534AE005C08AF00B001B10186
:1007A80008002308F2002208F100080092138312BF
:1007B8008F130800751B7618080083168E1DF22B00
:1007C8008E11303083121805C100103A031DF22B28
:1007D80015080139DE00DD011408DD048312F51B5C
:1007E80008005A30700203180E2C38248A112F245E
:1007F8008A116F08700203180A2C06258A11700BDB
:100808000A2C0815EE116E0803199D130630EB012A
:100818008A11D32A0C258A112B208A1110303C0208
:10082800693003193B0203181E2C0C30EB0A6B02CB
:10083800031C212C06258A11EB0164307002031C6D
:100848002B2C6430F000083075138A11D32A2F241A
:1008580006308A11D32A181083168E1183120816AF
:1008680090309800181408000C258A112B208A1142
:100878003B08CB003C08CC008030CD01CE01CB0733
:10088800F3300318F430CC07FF30031CCD07031CEA
:10089800CE074E08031D042D4D08031D042D0730F7
:1008A8004C02031D592CD0304B020318042D4E085E
:1008B800031D692C4D08031D692C02304C02031DD1
:1008C800672CEF304B02031C742CEE30F100023021
:1008D800F200AA30DB000A30DC01EF005A308D2C20
:1008E8004E08031D822C4D08031D822C01304C023A
:1008F800031D802CC3304B02031C8F2CC230F10027
:100908000130F2002C30DB000130DC005030EF0009
:100918000A30ED00AF2C4E08031D9C2C4D08031D1A
:100928009C2C4C08031D9C2C65304B02031CA82CE6
:100938006430F1005E30F201DB000130DC00093088
:10094800EF00ED01ED0AAF2CF101F201DB01DB0A4A
:10095800DC01EF01ED014E08A5004D08A4004C088C
:10096800A3004B08A2007108BD007208BE00BF01B9
:10097800C0013D08A2023E08031C3E0FA3023F0827
:10098800031C3F0FA4024008031C400FA5026F0878
:10099800A600A701A801A9018A1155238A112508D3
:1009A800CE002408CD002308CC002208CB005B0829
:1009B8008A11CF238A114E08B5004D08B4004C089F
:1009C800B3004B08B2008A110D238A113108CE00FA
:1009D8003008CD002F08CC002E08CB006D08CB07BF
:1009E80001300318CC070318CD070318CE074B08AE
:1009F800EF0064306F02031C08006430EF00080049
:100A0800EF0108006B30F00AD9000530DA00080061
:100A18005E08BC005D08BB000800530854040319B5
:100A2800212D530A1F30031954060319212D0130B3
:100A3800D3020030031CD403D402F51F0800530866
:100A48005404031D0800792DE5258A1100278A1111
:100A5800A500E30AE5258A1100278A11EC258A11E9
:100A68009B2DE5258A1100278A11A500E30AE525B3
:100A78008A1100278A11EC258A1117307511F4257F
:100A88000800E5258A1100278A11A500E30AE52553
:100A98008A1100278A11EC25FF30E500E600E700FF
:100AA80075150800E5258A1100278A11A500E30AB3
:100AB800E5258A1100278A11EC258A11E5258A1176
:100AC8000027E700E30A0800E5258A110027E2006D
:100AD800E30A6308E1000800E2030319080061085B
:100AE800E30008001730F513422D6408A03E840087
:100AF8006308E30A8313000784008A1100278A1118
:100B0800083A0319282D023A0319352D013A031919
:100B1800452D073A0319562D1C3A0319682D013A39
:100B28000319702D913A0319762D9A2D0800E525A1
:100B38008A1100278A11A200E30AE5258A110027F5
:100B48008A11A400E30A2208E700FA302406031DEC
:100B5800AF2D7008BA2DFB302406031DB52D6C0887
:100B6800BA2DFC302406031DBB2D6808A400643090
:100B7800A3012402031CCD2D0330E70401308400B7
:100B88008A1100278A11E6000130DF2D0A30A402FD
:100B9800A30A0A3024020318CA2D2308031DD62DE0
:100BA8000A30A3002308013E84008A1100278A1115
:100BB800E6002408013E84008A110027E500751527
:100BC80008006408A03E8400630800078400080049
:100BD800A600E30A2508D400D3012608D304080098
:100BE8008316850483128504831686168312861657
:100BF8000800F70AF312B12E6518052E831605159D
:100C0800072E83160511831265190D2E8316851478
:100C18000F2E831685108312651A152E8316051458
:100C2800172E83160510831267191D2E8316861634
:100C38001F2E831686120512831205120800E51866
:100C4800282E831605162A2E831605128312661877
:100C5800302E83168514322E831685108312E718DA
:100C6800382E831605143A2E831605108312E719B9
:100C7800402E83168616422E83168612051183127D
:100C880005110800E5194B2E831605164D2E8316FF
:100C980005128312E618532E83160515552E831652
:100CA8000511831267185B2E831605145D2E8316B3
:100CB80005108312671A632E83168616652E83160F
:100CC80086128510831285100800E51A6E2E831689
:100CD8000516702E831605128312E619762E8316D2
:100CE8000515782E83160511831266197E2E831634
:100CF8008514802E831685108312E71A862E831694
:100D08008616882E83168612051083120510080091
:100D1800651B912E83160516932E831605128312D2
:100D2800661A992E831605159B2E831605118312B4
:100D3800E61AA12E83168514A32E83168510831216
:100D4800661BA92E83160514AB2E83160510861272
:100D580083128612FF30F70008007708003A03195B
:100D6800002E013A0319232E033A0319462E013A9D
:100D78000319692E073A03198C2EAE2E080008169F
:100D880090309800CC262308DE002208DD000800F9
:100D98000430F101F201EF016F020318E72E181475
:100DA80083168E1DD42E8E11013083121505A400D2
:100DB8001408F1070318F20A2408F2070430EF0AAE
:100DC8006F02031CD32E7208A5007108A40003103B
:100DD800A50CA40C0310A50CA40C2408F1002508EC
:0A0DE800F200A3007108A200080049
:100E000007308A000408840A820700343F3406341D
:100E10005B344F3466346D347D3407347F346F3443
:100E20000034FF34083400347D3408340634083488
:100E300000347D3408340534083400347D340834FB
:100E40000434083400347D34083403340834003466
:100E50007D340834023408340034893408340134D1
:100E6000803408340134F4341434FA34083401344E
:100E7000F4340034FC3408340134F4341834FB34D2
:100E80008034103408340834003419341034FA34FF
:100E90000834003419341434FA34113480341034E2
:100EA00002340A34003419340B3400341934113448
:100EB0008034103408340A34003419340B340034CC
:100EC000193411348034103403340A3400341934A2
:100ED0000B34003419341134803410340A340A3499
:100EE000003419340B340034193411348034103484
:100EF00006340A34003419340B34003419341134F4
:100F0000803408340034FA341434FA348034083429
:100F10000134F4340034FC34803408340434E234D2
:100F20001434FA34803408340434E2341434FA3497
:100F300080340A340034013480340B3400347D347E
:100F400080347312731B7316831273179D1B7313F4
:100F500083161219AD2F831273138312731EB22FCF
:100F60000130B32F0030A300731FB82F0130B92F09
:100F7000003023060319BF2F0230F800080078085C
:100F800003190800F8037808031D0800F311731B08
:100F9000F3158312F31FCE2F0130CF2F0030A300A3
:100FA000F31DD42F0130D52F003023060319DB2F7A
:100FB00083127314DD2F8312731073117318F31DD2
:100FC000E22F7315F3107318F31FE72FF314F313C5
:100FD000F319F317831273197418F42F0130761470
:100FE000F5128A11D3228A11F31C080099121913E1
:0C0FF000761C0800023076108A11D32A0B
:101C1A0064008001840A04060319003404060E2EA7
:101C2A0017308316850083128500E33083168600F9
:101C3A0063308312860083169E01080098348E341E
:101C4A002C3472343C34683488345E3494345434DA
:101C5A004A340D3482347C347E088A007F0882003C
:101C6A0031268A158000840A04087D060319003487
:101C7A00FF0A0319FE0A352E0E180F1C462E0F10E6
:101C8A000E100E190F1D502E0F1175166908E90A4C
:101C9A0007390319F5158E188F1C542E8F10210839
:101CAA008A00200E8300FE0E7E0E09000816831697
:101CBA008E018D018C0190168D1210160D129E1731
:101CCA008312F510831610130D1383128812081548
:101CDA00003094260230E8000B308A11F2228A156D
:101CEA008A11C4238A158A1198238A15B2008A1187
:101CFA000D232E08BB002F08BC003008BD00310898
:101D0A00BE000310BE0CBD0CBC0CBB0C3B089E00F5
:101D1A009D1383168F138C130F130C130800A30043
:101D2A00230803199F2E23080319080004302302ED
:101D3A00031808008F1783169217F330950583123C
:101D4A002308A20001300310A20DFF3E0310031D59
:101D5A00A92E220D831695048A11DA2B761C080007
:101D6A00191FC52E4F0850040319C52E0130CF0282
:101D7A000030031CD003D0024F08500403199917EE
:101D8A0059085A040319CF2E0130D9020030031C16
:101D9A00DA03DA0259085A04031DDA2E6B30D90025
:101DAA000530DA006C08031DEC03570858040319C0
:101DBA00E42E0130D7020030031CD803D80257089A
:101DCA005804031D0800023070020318F003713032
:101DDA00D7000230D800A3017008A2000A302202FC
:101DEA00031CFB2E0A30A202A30AF32E2308031DAA
:101DFA00002F0A30A3002308013E84008A1100271D
:101E0A008A15E6002208013E84008A110027E500AF
:101E1A000800831255085604031D08006A080319AE
:101E2A0076180800751FF51B08008316121908009A
:101E3A008B01831208109B018810081683169015CF
:101E4A008D1110140D1010130D130F140C10901681
:101E5A008D1210160D1210110D118F128C120F11F6
:101E6A000C118F108C10E8308505831285058316B6
:101E7A008612831286128316930111110E11831290
:101E8A00881143308316880083128E148F10060837
:101E9A00D500D60188136400073083169F006300BB
:101EAA00000065278A156E278316101110109011ED
:101EBA000F104B308312D500D60188176400080032
:101ECA008312081407308B007D30890081010E10BF
:101EDA00080088148D018C0101309100F3309000C4
:101EEA00E3309B00F0309C051C080E15E901080040
:101EFA008A1515268A158A1565278A158A156E2761
:101F0A008A158A155B268A1503308312CA0008309F
:101F1A00C9007630C800C80B902FC90B902FCA0B86
:101F2A00902F972F64308312EC006B30D900053064
:101F3A00DA008A11C3268A158A1138248A156F088D
:101F4A00F0007130D7000230D8000030F4148A1142
:101F5A00D3228A15FA30D500E130D601EE01831674
:101F6A008900831288177313F3138E176400831280
:101F7A00751ED12F75128A11A1278A158A118320FD
:101F8A008A1517308A11F4258A15F3167519F31E66
:101F9A00D12F8A11FD258A15F51DF02FF5118A1109
:101FAA002C218A158A15B3268A158A1111258A15B4
:101FBA008A11DE238A15550856040319EA2F0130BF
:101FCA00D5020030031CD603D6026A08031DEA03B1
:101FDA006008031DE0038A11F2218A158A150E276B
:041FEA008A15BB2F6A
:0A400000FD3FD53F293F773F283FE1
:00000001FF
