:040000008A110C282D
:10000800FE00030E8312A2000A08A3008A11CF2E55
:100018008A110E28BB308313FD000D30FE002530F9
:10002800FF00A03084008A11F0268A110430F10004
:100038008316BD01BB01BC0183124E30F001840060
:1000480070308A150F2583018A15B02EF01E08001E
:1000580083163C1808008E1D3F288E1130308312FD
:100068001805C300103A031D3F2815080139DD00A3
:10007800DC011408DC048312701B08005A306D027E
:1000880003185B288A11D1238A11DB228A116C0894
:100098006D0203185828C3238A116D0B58280815B8
:1000A800EB116B0803199D130630E80143298A11E7
:1000B8009D248A11E5228A1110303E026930031905
:1000C8003D0203186C287830E80A6802031C6F2880
:1000D800C3238A11E80164306D02031C7828643058
:1000E800ED000830F0124329DB228A11063043293B
:1000F80083160C080319DD280C088312DF00831609
:100108008C015F218A1166218A11FB308312B000AD
:100118008730B1005F08B200B3019B218A118C219E
:100128008A11DF1F9C2883168C13CD238A1143293B
:100138005F1FA32883160C13CD238A114329DF1EC2
:10014800B42883168C1283126708031D0800ED017A
:1001580083163C1083120430EB1543218A11DD28E5
:100168005F1DBD2883160C1103303C1043218A11F2
:10017800DD28DF1CC22883168C10DD285F1CDD28D3
:1001880083160F103B18CD28093043219D176B1695
:10019800080083126B126B0803199D13EB1DD628F8
:1001A800043043296B18DA28EB1CDD289D136B10EB
:1001B800EB1083160D087D39031908000D0883120A
:1001C800DE007D30DE0583168D015F218A116621F0
:1001D8008A11BE308312B0008730B1005E08B200C9
:1001E800B3019B218A118C218A11DE1D12298316E5
:1001F8008D11003079218A1164306D0203180E299F
:10020800F01683163C180B29063043218A11DB228D
:100218008A1131296430ED00F0121E295E1D232950
:1002280083160D11013079218A11F01E31296430AD
:10023800F012ED0083163C18312908302F295E1C76
:10024800312983160D10003079218A11F012831696
:100258003C183129073043218A1183125E1E39293F
:1002680083160D129E133B143F29DE1E3F29831669
:100278008D129E173B1083160D1B0D130800831259
:10028800BD001730F0108A1168268A11D201D301F7
:100298003D08E300E20170175F218A1166218A1187
:1002A800EA308312B0008730B1006308B200B301AE
:1002B8009B218A118C2983128F17831692170E128D
:1002C8000E08C92B88158316861083128614831688
:1002D800111193130513AC3093000430940083126A
:1002E800081683161111911008008312A40024081F
:1002F80003198029240B08008F178316921783127D
:10030800241C8929831617178B2983161713C92BC1
:1003180006308312A5003030A400A40B9129A50B48
:10032800912983128F17831692170E16C92B323014
:10033800B70083129E238A1100278A11BC003C084B
:1003480003190800253A0319AD293C0869228A11C6
:100358009D29B901B129B917C3299E238A110027FC
:100368008A11BC00003A0319682A643A0319C329A0
:100378000D3A0319C329113A0319AF299D29B91B4D
:10038800D129AA238A11BB1F082A0330B904BA0944
:10039800BB09BA0A0319BB0A082AAA238A11082A20
:1003A800BC01BC0A03103C0DBC238A1100278A112A
:1003B800B4008A1100278A11B5003B02031DE62903
:1003C80034083A02031C102A0530BC0A3C060319FB
:1003D800102AD629BC01BC0A03103C0DB5238A118A
:1003E80000278A11B4008A1100278A11B5003B0240
:1003F800031D002A34083A02031C102A0430BC0AE0
:100408003C060319102AF029390880390319D42920
:10041800803A0319EE29102A390803390319172AD3
:100428002D3069228A1183123C08B800632A0A30E9
:10043800AB00AC010310380DBC238A1100278A11C8
:10044800A4008A1100278A11A5003B08A7003A08D2
:10045800A6008D228A112508AE002408AD00B72217
:100468008A112B08303E562A3B08A7003A08A600F6
:100478000310380DB5238A1100278A11A4008A11A8
:1004880000278A11A5008D222408B6000F30B60572
:100498003608D93E840087300318013EFF008A11D0
:1004A80000278A11BC00602A3908803903191B2AE1
:1004B800803A0319382A602A3C0869228A11831273
:1004C800B803380F582A9D290800A400831613166C
:1004D8008312240883169600FF308312A5007A2A17
:1004E8008312A503250F792A7D2A000083168E1C06
:1004F800742AFF308312A500872A8312A503250FCB
:10050800862A8A2A000083161318812A8316131252
:100518000800A901AA01240825040319B22AA80180
:10052800A80AA51B9B2A0310A40DA50D942A031045
:10053800A90DAA0D25082702031DA42A24082602AE
:10054800031CAE2A2408A6022508031CA703A70239
:1005580029140310A50CA40CA80B9B2A2A08A50093
:100568002908A40008002B082C040319D62AAF0177
:10057800AF0AAC1BC32A0310AB0DAC0DBC2A2C0868
:100588002E02031DC92A2B082D02031CD22A2B0870
:10059800AD022C08031CAE03AE020310AC0CAB0C6E
:1005A800AF0BC32A2E08AC002D08AB00080083123D
:1005B800181083168E11831208169030980018149C
:1005C80008000A3008238A112508EF002408EE00E5
:1005D8000330B301B201B100E830B0003D08A40017
:1005E8003E08A500A601A7016E08A8006F08A9008B
:1005F800AA01AB0123238A1152258A1156233108F7
:10060800BE003008BD000800A7008F178316981495
:100618009A01831227088316990018141818122BA8
:1006280098101B088312A900A80183161C088312BE
:10063800A8048F132908A5002808A4000800AC0105
:10064800AD01AE01AF01241C3D2B2808AC072908D9
:1006580003110318013E031DAD072A0803110318EF
:10066800013E031DAE072B0803110318013E031DAD
:10067800AF070310A80DA90DAA0DAB0D0310A70C09
:10068800A60CA50CA40C2708260425042404031D85
:10069800272B2F08A7002E08A6002D08A5002C0838
:1006A800A4000800B801B901BA01BB01330832043B
:1006B800310430040319952BBC01BC0AB31B6A2B07
:1006C8000310B00DB10DB20DB30D612B0310B80DB1
:1006D800B90DBA0DBB0D33083702031D7D2B320847
:1006E8003602031D7D2B31083502031D7D2B300892
:1006F8003402031C8F2B3008B4023108031C310F5D
:10070800B5023208031C320FB6023308031C330F3C
:10071800B70238140310B30CB20CB10CB00CBC0BFC
:100728006A2B3B08B3003A08B2003908B100380810
:10073800B00008003108B5003008B400B00A031949
:10074800B10A3508FF00340884000800370884001F
:1007580083130008BA00840A0008BB00B70AB70A66
:100768000800283E840087300318013EFF00080077
:100778001E3E840087300318013EFF0008006B30DE
:10078800ED0AD8000530D9000800921383128F13A0
:100798000800FA308312E70005349D248A11E52207
:1007A8008A113D08CE003E08CF008030D001D1012B
:1007B800CE07F3300318F430CF07FF30031CD007FF
:1007C800031CD1075108031D9B2C5008031D9B2CAB
:1007D80007304F02031DF22BD0304E0203189B2C1A
:1007E8005108031D022C5008031D022C02304F0231
:1007F800031D002CEF304E02031C0D2CEE30EE00D2
:100808000230EF00AA30DA000A30DB01EC005A307F
:10081800262C5108031D1B2C5008031D1B2C0130CE
:100828004F02031D192CC3304E02031C282CC23062
:10083800EE000130EF002C30DA000130DB005030E0
:10084800EC000A30EA00482C5108031D352C5008EA
:10085800031D352C4F08031D352C65304E02031C33
:10086800412C6430EE005E30EF01DA000130DB002D
:100878000930EC00EA01EA0A482CEE01EF01DA013E
:10088800DA0ADB01EC01EA015108A7005008A600CA
:100898004F08A5004E08A4006E08BF006F08C000EE
:1008A800C101C2013F08A4024008031C400FA50271
:1008B8004108031C410FA6024208031C420FA7026D
:1008C8006C08A800A901AA01AB018A1123238A1187
:1008D8002708D1002608D0002508CF002408CE001C
:1008E8005A085B255108B7005008B6004F08B500F4
:1008F8004E08B4008A1156238A113308D1003208F1
:10090800D0003108CF003008CE006A08CE07013089
:100918000318CF070318D0070318D1074E08EC00B7
:1009280064306C02031C08006430EC000800EC0121
:1009380008005D08BE005C08BD00080083163C1C6A
:1009480008008312701E502D83168E1D0800831216
:1009580018083039031D4A2D83168E110E12831282
:10096800701215080139C800C7011408C704170810
:100978000139CA00C9011608C90400304A023230D8
:1009880003194902031C322D003048023330031981
:100998004702031C322D0B308A1108238A112508BF
:1009A800EF002408EE000D308A1108238A1125086B
:1009B800DB002408DA005B256E08A4006F08A50098
:1009C8000330A601A701AB01AA01A900E830A800DD
:1009D8008A1123238A1152258A1156238A11310834
:1009E800C6003008C5004908B0004A08B100B20185
:1009F800B3014708A4004808A500A601A7014508B7
:100A0800A8004608A900AA01AB018A1123238A116C
:100A180052258A1156238A113308C2003208C100B0
:100A28003108C0003008BF004208031D322D4108BC
:100A3800031D322D02304002031D242DEE303F02EB
:100A48000318322D83163C10831208159D170530A4
:100A5800EB148A114321FA30E700080008168316C0
:100A68008E110E129130462D83168E11831270123C
:100A780015080139C400C3011408C30483168E1174
:100A88000E12833083129800701608003030180553
:100A9800BE00103A0319382D0816422D2708B70052
:100AA8002608B6002508B5002408B4000800B000E0
:100AB8005B08B100B201B301080083125208530465
:100AC8000319722D520A1F30031953060319722D88
:100AD8000130D2020030031CD303D302701F080078
:100AE80052085304031D0800CA2D48268A110027FE
:100AF8008A11AB00E20A48268A1100278A1160266B
:100B08008A11F22D48268A1100278A11AB00E20AC1
:100B180048268A1100278A1160268A111730F0109A
:100B28006826080048268A1100278A11AB00E20AC5
:100B380048268A1100278A116026FF30E400E50064
:100B4800E600F014080048268A1100278A11AB0035
:100B5800E20A48268A1100278A1160268A11482647
:100B68008A110027E600E20A080048268A110027B1
:100B7800E100E20A6208E0000800E1030319080046
:100B88006008E200080017307013932D03105A26EE
:100B9800A900840A0008AA006208E20A290784005A
:100BA8002A0803182A0AFF008A1100278A11083A1E
:100BB8000319792D023A0319862D013A0319962D46
:100BC800073A0319A72D1C3A0319B92D013A03193D
:100BD800C12D913A0319C72DF12D080003105A268B
:100BE8008A1171268A1100278A11A600E20A0310C9
:100BF8005A268A1171268A1100278A11A800E20A4A
:100C08002608E600FA302806031D0C2E6D08112E62
:100C1800FB302806031D132E6908A800172EFC3088
:100C280028060319A8016430A7012802031C2D2EE9
:100C38000330E604123084008730FF008A11002751
:100C48008A11E500123084008730422E0A30A8024B
:100C5800A70A0A30280203182A2E2708031D362E51
:100C68000A30A7002708C8268A1100278A11E5003C
:100C78002808123E840087300318013EFF008A11BD
:100C88000027E400F01408000310630DA03E840060
:100C980083130008A900840A0008AA00620829072B
:100CA80084002A0803182A0AFF000800630DA03EE2
:100CB8008400831300080800AC00E20A2B08D30064
:100CC800D2012C08D20408008316850483128504F7
:100CD80083168616831286160800A400840A000864
:100CE800A50062082407840025080318250AFF00C8
:100CF800080083163C1C080083125808590403197D
:100D08008B2E0130D8020030031CD903D9025808B1
:100D18005904031D962E6B30D8000530D900690898
:100D2800031DE903560857040319A02E0130D60203
:100D38000030031CD703D70256085704031D0800C8
:100D480002306D020318ED037130D6000230D7006F
:100D5800A5016D08A4000A302402031CB72E0A302E
:100D6800A402A50AAF2E2508031DBC2E0A30A50033
:100D78002508C8268A1100278A11E5002408C826F4
:100D88008A110027E4000800123E84008730031807
:100D9800013EFF0008000E180F1CD42E0F100E1075
:100DA8000E190F1DE02E0F11F01583163D08BD0A10
:100DB800073983120319701583128E188F1CE52EBC
:100DC8008F1023088A00220E8300FE0E7E0E090073
:100DD8007E088A007F088200EC268A118000840A37
:100DE80004087D0603190034FF0A0319FE0AF02ED1
:100E0000FF1B0A2F83137F1883170008840A031916
:100E1000FF0A08007F087F398A000408840A031942
:100E2000FF0A82003F3406345B344F3466346D343D
:100E30007D3407347F346F340034FF3401340034A0
:100E40000A34003464340034E83403341034273472
:100E500001340034103400340034013400341034D0
:100E6000083400347D3408340634083400347D34CA
:100E700008340534083400347D340834043408342C
:100E800000347D3408340334083400347D340834AD
:100E90000234083400347D3408340134083400341A
:100EA000FA341434FA34803408340134F434143409
:100EB000FA3408340134F4340034FC340834013496
:100EC000F4341834FB3480341034083408340034DB
:100ED00019341034FA340834003419341434FA3420
:100EE00011348034103402340A34003419340B3491
:100EF0000034193411348034103408340A34003486
:100F000019340B3400341934113480341034033460
:100F10000A34003419340B34003419341134803459
:100F200010340A340A34003419340B3400341934C0
:100F300011348034103406340A34003419340B343C
:100F4000003419341134803408340134F43400345A
:100F5000FC348034083400347D341434FA34803462
:100F600008340434E2341434FA3480340A3400345B
:100F7000013480340B3400347D3480342034203408
:100F800020342034203420342034203420342034C1
:100F90002034203420342034203441344634453445
:100FA0004934463431343D34253478342C340A34D1
:100FB000003430343134323433343434353436342C
:100FC00037343834393461346234633464346534EA
:100FD0006634003446345F3450346C3461347934D0
:100FE0004C3469346734683474342C3425346434B4
:100FF0000D340A34003441344634453449344634DF
:0E10000030343D34253478342C340A34003436
:101A1E0064008001840A0406031900340406102DA4
:101A2E0017308316850083128500E33083168600F7
:101A3E0063308312860083169E010800BA34873401
:101A4E00B0348734543487349A34873464348734CA
:101A5E0090348734AA34873486348734B634873446
:101A6E007C3487347234873430348734A4348734EA
:101A7E00FF3408169030980049252508DD0024080B
:101A8E00DC0008000430EE01EF01EC016C020318DB
:101A9E00642D181483168E1D512D8E110130831254
:101AAE001505A6001408EE070318EF0A2608EF071F
:101ABE000430EC0A6C02031C502D6F08A7006E0850
:101ACE00A6000310A70CA60C0310A70CA60C260844
:101ADE00EE002708EF00A5006E08A4000800831290
:101AEE00081683168E018D018C0190168D1210161C
:101AFE000D129E173B1010130D138312881208152A
:101B0E000030B5250B308A1108238A152508EF0001
:101B1E002408EE00B0006F08B1002C30B201B30102
:101B2E00B701B6004030B5002030B4008A115623FC
:101B3E003008BD003108BE003208BF003308C000B7
:101B4E000310C00CBF0CBE0CBD0C3D089E009D13B7
:101B5E0083168F138C130F130C130800A500250882
:101B6E000319C02D25080319080004302502031897
:101B7E0008008F1783169217F330950583122508E8
:101B8E00A40001300310A40DFF3E0310031DCA2D47
:101B9E00240D831695048A11C92B8316BB12BB1B09
:101BAE00BB168316BB1783129D1FDF2D8316BB1327
:101BBE008316121DBB138316BB1EE72D0130E82DB5
:101BCE0000308312BE008316BB1FEF2D0130F02DA7
:101BDE00003083123E060319F72D0230F100080083
:101BEE00710803190800F1037108031D080083161C
:101BFE003B12BB1B3B168312701C072E0130082EA6
:101C0E000030BE0083163B1E0E2E01300F2E00300C
:101C1E0083123E060319162E8316BB14182E831636
:101C2E00BB10BB11BB183B1E1D2EBB153B11BB1CA5
:101C3E00252E8312701C252E83163B1583127010D1
:101C4E0083163B1E2C2E831270148316BB1D362E4C
:101C5E003C148312013070128A1143218A158316A7
:101C6E003B193C1C080002303C108A114329831298
:101C7E0054085504031D08006708031D0800831649
:101C8E003C1808008312F01E701B080083161219F0
:101C9E0008008B01831208109B018810081683160A
:101CAE0090158D1110140D1010130D130F140C1020
:101CBE0090168D1210160D1210110D118F128C120E
:101CCE000F110C118F108C10E830850583128505CD
:101CDE0083168612831286128316930111110E112A
:101CEE008312881143308316880083128E148F104E
:101CFE000608D400D50188136400073083169F00B0
:101D0E006300000097268A15A0261011101090115E
:101D1E000F104B308312D400D501881764000800D1
:101D2E008312081407308B007D30890081010E105C
:101D3E00080088148D018C0101309100F330900061
:101D4E00E3309B00F0309C051C080E158316BD0178
:101D5E0008008A1517258A158A1597268A158A1559
:101D6E00A0268A158A1576258A1503308312CD0092
:101D7E000830CC007630CB00CB0BC32ECC0BC32E51
:101D8E00CD0BC32ECA2E64308312E9006B30D800FF
:101D9E000530D9008A1540258A158A11D1238A1556
:101DAE006C08ED007130D6000230D70000308A1179
:101DBE0043218A15FA30D400E130D501EB018316A8
:101DCE008900831288178316BB13831270108E1727
:101DDE0064008312F01D092FF0118A15D4258A157F
:101DEE008A11A2248A1517308A1168268A1583163D
:101DFE003B178312F01C092F83163B1F092F8A15E0
:101E0E002B278A158312701D242F70118A117D269F
:101E1E008A158A1161258A158A112A208A1583123C
:101E2E00540855040319212F0130D4020030031C2D
:101E3E00D503D5026708031DE7038A117C208A1596
:101E4E008A153E268A15EF2EBA0A3B13E52F83120A
:101E5E006418342F83160515362F83160511831239
:101E6E0064193C2F831685143E2F8316851083121A
:101E7E00641A442F83160514462F831605108312F9
:101E8E0066194C2F831686164E2F83168612051250
:101E9E008312051208008312E418582F83160516B4
:101EAE005A2F8316051283126518602F8316851418
:101EBE00622F831685108312E618682F8316051479
:101ECE006A2F831605108312E619702F8316861655
:101EDE00722F8316861205118312051108008312C4
:101EEE00E4197C2F831605167E2F83160512831296
:101EFE00E518842F83160515862F83160511831278
:101F0E0066188C2F831605148E2F831605108312D8
:101F1E00661A942F83168616962F831686128510B0
:101F2E008312851008008312E41AA02F831605165B
:101F3E00A22F831605128312E519A82F83160515F5
:101F4E00AA2F8316051183126519B02F83168514D7
:101F5E00B22F831685108312E61AB82F83168616B3
:101F6E00BA2F8316861205108312051008008312ED
:101F7E00641BC42F83160516C62F831605128312F3
:101F8E00651ACC2F83160515CE2F831605118312D5
:101F9E00E51AD42F83168514D62F83168510831237
:101FAE00651BDC2F83160514DE2F83160510861293
:101FBE0083128612FF308316BA0008003A08003AE0
:101FCE0003192E2F013A0319522F033A0319762FB4
:101FDE00013A03199A2F073A0319BE2FE12F080071
:0A400000FD3FD53F293F773F283FE1
:00000001FF
