:040000008A110C282D
:10000800FE00030E8312A0000A08A1008A153E2EE6
:100018008A110E28AE308313FD000E30FE0020300A
:10002800FF00A03084008A1532268A11FF30F700BD
:100038000430F800F9004B30840073308A150A2622
:10004800F301F401F501F60183018A157C2F0A30CA
:10005800F4228A112308F2002208F1000330B101CA
:10006800B001AF00E830AE003B08A2003C08A30096
:10007800A401A5017108A6007208A700A801A9019A
:1000880057238A11A5238A110F232F08BC002E0895
:10009800BB0008006908031D080003305F06031948
:1000A800F41808000430DF01E70A6702031C5E2821
:1000B800E701E70A0C30D5228A110B30F4228A11A5
:1000C800DB238A11670B6E28AE238A11B2000F2337
:1000D8008A118A2B02306706031D792871089A2332
:1000E8008A11B2000F238A118A2B03306706031D79
:1000F8000800BA238A11B2000F238A118A2B761CB2
:100108000800F51E2A2983168E1D08008312180878
:100118003039031D242983168E110E128312F5120D
:1001280015080139C500C4011408C40417080139A9
:10013800C700C6011608C60400304702323003194A
:100148004602031C0C2900304502333003194402CF
:10015800031C0C290B30F4228A112308F200220810
:10016800F1000D30F4228A112308DC002208DB009C
:10017800D1238A117108A2007208A3000330A401D8
:10018800A501A901A801A700E830A60057238A11F4
:10019800A5238A110F238A112F08C3002E08C20035
:1001A8004608AE004708AF00B001B1014408A200FC
:1001B8004508A300A401A5014208A6004308A7001A
:1001C800A801A90157238A11A5238A110F238A118F
:1001D8003108BF003008BE002F08BD002E08BC0043
:1001E8003F08031D0C293E08031D0C2902303D025F
:1001F800031D0029EE303C0203180C2976107410F8
:1002080008159D170530EE14D522FA30EA000800CB
:10021800081683168E110E129130202983168E111E
:100228008312F51215080139C100C0011408C00471
:1002380083168E110E12833083129800F51608006B
:1002480030301805BB00103A0319122908161C296A
:10025800F4137518F41783127510061B751483129E
:10026800F41F3829013039290030BF00751C3E2998
:1002780001303F2900303F06031945290430F900B1
:100288008D29790803198D29F9037908031D8D290A
:100298007413751C502974178312F41E55290130E4
:1002A80056290030BF00741F5B2901305C290030DB
:1002B8003F06031962298312741564298312741185
:1002C80074127419741F69297416F4117419F41EC0
:1002D8006E29F415F412741BF4168312F41D8D297B
:1002E8004B30D500D60169080319DF013E30DF0A1B
:1002F800E90005305F06031D86290230F4060A303E
:10030800D5228A11741C8D29741099120D30D522AA
:100318008A114E208A119029690803197418E02956
:10032800F418E02902305F06031DE029DF01F51803
:10033800A3290930D52208159D176E1608006E12DC
:100348006E08031DA92908159D13EE1DAD2904305B
:10035800D52A6E18B129EE1CB52908159D136E1003
:10036800EE1074149916EE30D1000230D2000B3022
:10037800F4228A11C6238A11AE007208AF001C301D
:10038800B001B101B501B400FD30B300E030B200F6
:100398000F238A112E08BB002F08BC003008BD00AF
:1003A8003108BE000310BE0CBD0CBC0CBB0C3B08D6
:1003B8009E000B30D5228A11741C08005108520483
:1003C800031908000130D1020030031CD203D20205
:1003D80051085204031D0800741099120D30D52AD3
:1003E80083160C080319822A8312F41C012A831627
:1003F8008C01831208159D17822A6E08031D062A90
:1004080008159D1383168C1F0D2A8C13CB238A1174
:10041800D52A0C1F132A0C13CB238A11D52A8C1E1C
:10042800242A8C1283126A08031D0800F001761032
:10043800741008159D170430EE15D5228A11822AEA
:100448000C1D2D2A0C11831203307610D5228A1127
:10045800822A8C1C312A8C10822A0C1C822A0C10AD
:100468004B308312D5000B30D601F4228A11DB23DE
:100478008A11670B422AAE238A11502A0230670676
:10048800031D4A2A71089A238A11502A03306706E5
:10049800031D622ABA238A11B2000F238A112E087B
:1004A800BB002F08BC003008BD003108BE00031097
:1004B800BE0CBD0CBC0CBB0C3B089E00741C6C2A0B
:1004C80074101917E8307313F313CF000330D000FA
:1004D800F518732A0930D5229D176E1608006E127A
:1004E8006E0803199D13EE1D7B2A0430D52A6E1859
:1004F8007F2AEE1C822A9D136E10EE1083160D08BB
:10050800031908008D1DA82A8D118312003074105C
:10051800E1228A116430700203189B2A7517761835
:10052800972A0630D5228A1131248A11A32A6430E9
:10053800F00075137618A32A0830D5228A11F41C06
:10054800C32A0A30F410C12A0D1DB72A0D11013033
:10055800E1228A11751FC32A64307513F0007618DA
:10056800C32A0830C12A0D1CC32A0D100030E1220D
:100578008A1175137618C32A0730D5228A11831673
:100588000D1ECB2A0D129E138312F514D12A8D1E2F
:10059800D12A8D129E178312F51083160D1B0D1389
:1005A8000800A200173075118A11F625D301D4016D
:1005B8002208E300E201F51708008312A2002208CE
:1005C8000319E82A220B08008F1783169217831243
:1005D800221CF12A83161717F32A83161713D72B11
:1005E800A5008F17831698149A018312250883167D
:1005F800990018141818FE2A98101B088312A700CF
:10060800A60183161C088312A6048F132708A300CB
:100618002608A2000800B601B701B801B9013108DF
:1006280030042F042E0403194E2BBA01BA0AB11B49
:10063800232B0310AE0DAF0DB00DB10D1A2B031007
:10064800B60DB70DB80DB90D31083502031D362B9F
:1006580030083402031D362B2F083302031D362BB6
:100668002E083202031C482B2E08B2022F08031C46
:100678002F0FB3023008031C300FB4023108031CDB
:10068800310FB50236140310B10CB00CAF0CAE0C20
:10069800BA0B232B3908B1003808B0003708AF006F
:1006A8003608AE000800AA01AB01AC01AD01221C5E
:1006B800712B2608AA07270803110318013E031DFA
:1006C800AB07280803110318013E031DAC072908CE
:1006D80003110318013E031DAD070310A60DA70D56
:1006E800A80DA90D0310A50CA40CA30CA20C250899
:1006F800240423042204031D5B2B2D08A5002C08C9
:10070800A4002B08A3002A08A20008002E08BB009A
:100718002F08BC003008BD003108BE000310BE0C15
:10072800BD0CBC0CBB0C3B089E000800AE00720858
:10073800AF002D30B001B101B501B400C630B3002F
:10074800C0342508B5002408B4002308B3002208E3
:10075800B20008007108AE007208AF002C30B0017A
:10076800B101B501B4004030B30020347108AE00C7
:100778007208AF002F30B001B101B501B4004D309F
:10078800B30060342308F2002208F1000800831245
:10079800FA3076107410EA000534AE005C08AF0039
:1007A800B001B1010800921383128F1308002308C7
:1007B800F2002208F1000800751B7618080083165D
:1007C8008E1DF42B8E11303083121805C100103A9B
:1007D800031DF42B15080139DE00DD011408DD04C2
:1007E8008312F51B08005A3070020318102C3A24A3
:1007F8008A1131248A116F08700203180C2C0825FD
:100808008A11700B0C2C0815EE116E0803199D1334
:100818000630EB018A11D52A0E258A112B208A1160
:1008280010303C02693003193B020318202C0C30AD
:10083800EB0A6B02031C232C08258A11EB01643098
:100848007002031C2D2C6430F000083075138A11D7
:10085800D52A312406308A11D52A181083168E110C
:100868008312081690309800181408000E258A1173
:100878002B208A113B08CB003C08CC008030CD01EE
:10088800CE01CB07F3300318F430CC07FF30031C3C
:10089800CD07031CCE074E08031D062D4D08031D6A
:1008A800062D07304C02031D5B2CD0304B02031879
:1008B800062D4E08031D6B2C4D08031D6B2C0230B2
:1008C8004C02031D692CEF304B02031C762CEE30D2
:1008D800F1000230F200AA30DB000A30DC01EF0040
:1008E8005A308F2C4E08031D842C4D08031D842C70
:1008F80001304C02031D822CC3304B02031C912C87
:10090800C230F1000130F2002C30DB000130DC0095
:100918005030EF000A30ED00B12C4E08031D9E2C1C
:100928004D08031D9E2C4C08031D9E2C65304B0260
:10093800031CAA2C6430F1005E30F201DB000130A8
:10094800DC000930EF00ED01ED0AB12CF101F201F4
:10095800DB01DB0ADC01EF01ED014E08A5004D08C3
:10096800A4004C08A3004B08A2007108BD0072083F
:10097800BE00BF01C0013D08A2023E08031C3E0F95
:10098800A3023F08031C3F0FA4024008031C400FAA
:10099800A5026F08A600A701A801A9018A1157237B
:1009A8008A112508CE002408CD002308CC0022088F
:1009B800CB005B088A11D1238A114E08B5004D0877
:1009C800B4004C08B3004B08B2008A110F238A11F7
:1009D8003108CE003008CD002F08CC002E08CB00FF
:1009E8006D08CB0701300318CC070318CD0703188F
:1009F800CE074B08EF0064306F02031C0800643018
:100A0800EF000800EF0108006B30F00AD90005304C
:100A1800DA0008005E08BC005D08BB000800530847
:100A280054040319232D530A1F30031954060319BC
:100A3800232D0130D3020030031CD403D402F51F48
:100A4800080053085404031D08007B2DE7258A116C
:100A580000278A11A500E20AE7258A1100278A11D2
:100A6800EE258A119D2DE7258A1100278A11A500F8
:100A7800E20AE7258A1100278A11EE258A11173024
:100A88007511F6250800E7258A1100278A11A500A7
:100A9800E20AE7258A1100278A11EE25FF30E400D3
:100AA800E500E60075150800E7258A1100278A1178
:100AB800A500E20AE7258A1100278A11EE258A1186
:100AC800E7258A110027E600E20A0800E7258A11CF
:100AD8000027E100E20A6208E0000800E1030319C8
:100AE80008006008E20008001730F513442D630879
:100AF800A03E84006208E20A8313000784008A117A
:100B080000278A11083A03192A2D023A0319372DAA
:100B1800013A0319472D073A0319582D1C3A0319AE
:100B28006A2D013A0319722D913A0319782D9C2DDB
:100B38000800E7258A1100278A11A200E20AE725A2
:100B48008A1100278A11A400E20A2208E600FA3076
:100B58002406031DB12D7008BC2DFB302406031D8F
:100B6800B72D6C08BC2DFC302406031DBD2D67086D
:100B7800A4006430A3012402031CCF2D0330E60433
:100B8800013084008A1100278A11E5000130E12D27
:100B98000A30A402A30A0A3024020318CC2D230821
:100BA800031DD82D0A30A3002308013E84008A11B2
:100BB80000278A11E5002408013E84008A110027D5
:100BC800E400751508006308A03E84006208000769
:100BD80084000800A600E20A2508D400D3012608EC
:100BE800D3040800831685048312850483168616A9
:100BF800831286160800F70AF312B32E6418072E1C
:100C080083160515092E83160511831264190F2EF4
:100C180083168514112E831685108312641A172ED5
:100C280083160514192E83160510831266191F2EB4
:100C380083168616212E8316861205128312051234
:100C48000800E4182A2E831605162C2E8316051282
:100C580083126518322E83168514342E8316851058
:100C68008312E6183A2E831605143C2E83160510B7
:100C78008312E619422E83168616442E8316861290
:100C88000511831205110800E4194D2E8316051667
:100C98004F2E831605128312E518552E8316051557
:100CA800572E83160511831266185D2E83160514B8
:100CB8005F2E831605108312661A652E8316861614
:100CC800672E831686128510831285100800E41A91
:100CD800702E83160516722E831605128312E519D7
:100CE800782E831605157A2E831605118312651939
:100CF800802E83168514822E831685108312E61A99
:100D0800882E831686168A2E83168612051083125D
:100D180005100800641B932E83160516952E83165E
:100D280005128312651A9B2E831605159D2E8316B0
:100D380005118312E51AA32E83168514A52E831692
:100D480085108312651BAB2E83160514AD2E8316F2
:100D58000510861283128612FF30F7000800770804
:100D6800003A0319022E013A0319252E033A0319F2
:100D7800482E013A03196B2E073A03198E2EB02E0E
:100D88000800081690309800CE262308DE002208B6
:100D9800DD0008000430F101F201EF016F020318D1
:100DA800E92E181483168E1DD62E8E11013083124B
:100DB8001505A4001408F1070318F20A2408F2071D
:100DC8000430EF0A6F02031CD52E7208A5007108C3
:100DD800A4000310A50CA40C0310A50CA40C240853
:0E0DE800F1002508F200A3007108A200080027
:100E000007308A000408840A820700343F3406341D
:100E10005B344F3466346D347D3407347F346F3443
:100E20000034FF34083400347D3408340634083488
:100E300000347D3408340534083400347D340834FB
:100E40000434083400347D34083403340834003466
:100E50007D340834023408340034893408340134D1
:100E6000803408340134F4341434FA34083401344E
:100E7000F4340034FC3408340134F4341834FB34D2
:100E80008034103408340834003419341034FA34FF
:100E90000834003419341434FA34113480341034E2
:100EA00002340A34003419340B3400341934113448
:100EB0008034103408340A34003419340B340034CC
:100EC000193411348034103403340A3400341934A2
:100ED0000B34003419341134803410340A340A3499
:100EE000003419340B340034193411348034103484
:100EF00006340A34003419340B34003419341134F4
:100F0000803408340034FA341434FA348034083429
:100F10000134F4340034FC34803408340434E234D2
:100F20001434FA34803408340434E2341434FA3497
:100F300080340A340034013480340B3400347D347E
:100F400080347312731B7316831273179D1B7313F4
:100F500083161219AD2F831273138312731EB22FCF
:100F60000130B32F0030A300731FB82F0130B92F09
:100F7000003023060319BF2F0230F800080078085C
:100F800003190800F8037808031D0800F311731B08
:100F9000F3158312F31FCE2F0130CF2F0030A300A3
:100FA000F31DD42F0130D52F003023060319DB2F7A
:100FB00083127314DD2F8312731073117318F31DD2
:100FC000E22F7315F3107318F31FE72FF314F313C5
:100FD000F319F317831273197418F42F0130761470
:100FE000F5128A11D5228A11F31C080099121913DF
:0C0FF000761C0800023076108A11D52A09
:101C140064008001840A04060319003404060B2EB0
:101C240017308316850083128500E33083168600FF
:101C340063308312860083169E01080098348E3424
:101C44002C3472343C34683488345E3494345434E0
:101C54004A340D3482347C347E088A007F08820042
:101C64002E268A158000840A04087D060319003490
:101C7400FF0A0319FE0A322E0E180F1C432E0F10F2
:101C84000E100E190F1D4D2E0F1175166808E80A57
:101C94000F390319F5158E188F1C512E8F1021083A
:101CA4008A00200E8300FE0E7E0E0900081683169D
:101CB4008E018D018C0190168D1210160D129E1737
:101CC4008312F510831610130D138312881208154E
:101CD400003091260230E7000B308A11F4228A1575
:101CE4008A11C6238A158A119A238A15B2008A1189
:101CF4000F232E08BB002F08BC003008BD0031089C
:101D0400BE000310BE0CBD0CBC0CBB0C3B089E00FB
:101D14009D1383168F138C130F130C130800A30049
:101D2400230803199C2E23080319080004302302F6
:101D3400031808008F1783169217F3309505831242
:101D44002308A20001300310A20DFF3E0310031D5F
:101D5400A62E220D831695048A11D72B761C080013
:101D6400191FC22E4F0850040319C22E0130CF028E
:101D74000030031CD003D0024F08500403199917F4
:101D840059085A040319CC2E0130D9020030031C1F
:101D9400DA03DA0259085A04031DD72E6B30D9002E
:101DA4000530DA006C08031DEC03570858040319C6
:101DB400E12E0130D7020030031CD803D8025708A3
:101DC4005804031D0800023070020318F003713038
:101DD400D7000230D800A3017008A2000A30220202
:101DE400031CF82E0A30A202A30AF02E2308031DB6
:101DF400FD2E0A30A3002308013E84008A11002727
:101E04008A15E5002208013E84008A110027E400B7
:101E14000800831255085604031D08006A08031DB0
:101E240008006908031976180800751FF51B0800D7
:101E34008316121908008B01831208109B01881065
:101E44000816831690158D1110140D1010130D1310
:101E54000F140C1090168D1210160D1210110D1176
:101E64008F128C120F110C118F108C10E830850515
:101E740083128505831686128312861283169301B4
:101E840011110E11831288114330831688008312B6
:101E94008E148F100608D500D6018813640007300D
:101EA40083169F006300000065278A156E2783163A
:101EB4001011101090110F104B308312D500D60161
:101EC4008817640008008312081407308B007D30E3
:101ED400890081010E10080088148D018C01910184
:101EE400F9309000E3309B00F0309C051C080E157F
:101EF400E80108008A1512268A158A1565278A15AD
:101F04008A156E278A158A1558268A150330831276
:101F1400CA000830C9007630C800C80B8F2FC90B1F
:101F24008F2FCA0B8F2F962F64308312EC006B30E7
:101F3400D9000530DA008A11C5268A158A113A2497
:101F44008A156F08F0007130D7000230D8000030D5
:101F5400F4148A11D5228A15FA30D500E130D6015D
:101F6400EE0183168900831288177313F3138E17F7
:101F740064008312751ED02F173075128A11F6254E
:101F84008A15F3167519F31ECA2F8A11FF258A15AF
:101F94008A11A1278A158A1183208A158312F51DB7
:101FA400F02FF5118A112C218A158A15B0268A156D
:101FB4008A1113258A158A11E0238A1555085604B7
:101FC4000319EA2F0130D5020030031CD603D602D0
:101FD4006A08031DEA036908031DE9038A11F42151
:0A1FE4008A158A150B278A15BA2FFB
:0A400000FD3FD53F293F773F283FE1
:00000001FF
