:040000008A110C282D
:10000800FE00030E8312A0000A08A1008A15CD2E57
:100018008A110E28AE308313FD000730FE00F13040
:10002800FF00A03084008A15C1268A11FF30F7002E
:100038000430F800F9004B30840073308A15A72685
:10004800F301F401F501F60183018A11752F0A30D5
:10005800F4228A112308F2002208F1000330B101CA
:10006800B001AF00E830AE003B08A2003C08A30096
:10007800A401A5017108A6007208A700A801A9019A
:1000880057238A11A5238A110F232F08BC002E0895
:10009800BB0008006908031D080003305F06031948
:1000A800F41808000430DF01E70A6702031C5E2821
:1000B800E701E70A0C30D5228A110B30F4228A11A5
:1000C800DB238A11670B6E28BA238A11B2000F232B
:1000D8008A118A2B02306706031D792871089A2332
:1000E8008A11B2000F238A118A2B03306706031D79
:1000F8000800AE238A11B2000F238A118A2BF61C3E
:100108000800751F2A2983168E1D080083121808F7
:100118003039031D242983168E110E12831275138C
:1001280015080139C500C4011408C40417080139A9
:10013800C700C6011608C60400304702323003194A
:100148004602031C0C2900304502333003194402CF
:10015800031C0C290B30F4228A112308F200220810
:10016800F1000D30F4228A112308DC002208DB009C
:10017800D1238A117108A2007208A3000330A401D8
:10018800A501A901A801A700E830A60057238A11F4
:10019800A5238A110F238A112F08C3002E08C20035
:1001A8004608AE004708AF00B001B1014408A200FC
:1001B8004508A300A401A5014208A6004308A7001A
:1001C800A801A90157238A11A5238A110F238A118F
:1001D8003108BF003008BE002F08BD002E08BC0043
:1001E8003F08031D0C293E08031D0C2902303D025F
:1001F800031D0029EE303C0203180C29F610741078
:1002080008159D170530EE14D522FA30EA000800CB
:10021800081683168E110E129130202983168E111E
:100228008312751315080139C100C0011408C004F0
:1002380083168E110E1283308312980075170800EA
:1002480030301805BB00103A0319122908161C296A
:10025800F4137518F41783127510061B751483129E
:10026800F41F3829013039290030BF00751C3E2998
:1002780001303F2900303F06031945290430F900B1
:100288008D29790803198D29F9037908031D8D290A
:100298007413751C502974178312F41E55290130E4
:1002A80056290030BF00741F5B2901305C290030DB
:1002B8003F06031962298312741564298312741185
:1002C80074127419741F69297416F4117419F41EC0
:1002D8006E29F415F412741BF4168312F41D8D297B
:1002E8004B30D500D60169080319DF013E30DF0A1B
:1002F800E90005305F06031D86290230F4060A303E
:10030800D5228A11741C8D29741099120D30D522AA
:100318008A114E208A119029690803197418E02956
:10032800F418E02902305F06031DE029DF01F51803
:10033800A3290930D52208159D176E1608006E12DC
:100348006E08031DA92908159D13EE1DAD2904305B
:10035800D52A6E18B129EE1CB52908159D136E1003
:10036800EE1074149916EE30D1000230D2000B3022
:10037800F4228A11C6238A11AE007208AF001B301E
:10038800B001B101B501B4007730B3004030B2001C
:100398000F238A112E08BB002F08BC003008BD00AF
:1003A8003108BE000310BE0CBD0CBC0CBB0C3B08D6
:1003B8009E000B30D5228A11741C08005108520483
:1003C800031908000130D1020030031CD203D20205
:1003D80051085204031D0800741099120D30D52AD3
:1003E80083160C080319822A8312F41C012A831627
:1003F8008C01831208159D17822A6E08031D062A90
:1004080008159D1383168C1F0D2A8C13CB238A1174
:10041800D52A0C1F132A0C13CB238A11D52A8C1E1C
:10042800242A8C1283126A08031D0800F001F610B2
:10043800741008159D170430EE15D5228A11822AEA
:100448000C1D2D2A0C1183120330F610D5228A11A7
:10045800822A8C1C312A8C10822A0C1C822A0C10AD
:100468004B308312D5000B30D601F4228A11DB23DE
:100478008A11670B422ABA238A11502A023067066A
:10048800031D4A2A71089A238A11502A03306706E5
:10049800031D622AAE238A11B2000F238A112E0887
:1004A800BB002F08BC003008BD003108BE00031097
:1004B800BE0CBD0CBC0CBB0C3B089E00741C6C2A0B
:1004C80074101917E8307313F313CF000330D000FA
:1004D800F518732A0930D5229D176E1608006E127A
:1004E8006E0803199D13EE1D7B2A0430D52A6E1859
:1004F8007F2AEE1C822A9D136E10EE1083160D08BB
:10050800031908008D1DA82A8D118312003074105C
:10051800E1228A116430700203189B2AF517F61835
:10052800972A0630D5228A1194248A11A32A643086
:10053800F000F513F618A32A0830D5228A11F41C06
:10054800C32A0A30F410C12A0D1DB72A0D11013033
:10055800E1228A11F51FC32A6430F513F000F6185A
:10056800C32A0830C12A0D1CC32A0D100030E1220D
:100578008A11F513F618C32A0730D5228A11831673
:100588000D1ECB2A0D129E138312F514D12A8D1E2F
:10059800D12A8D129E178312F51083160D1B0D1389
:1005A8000800A200173075118A11A626D301D401BC
:1005B8002208E300E201761408008312A200220850
:1005C8000319E82A220B08008F1783169217831243
:1005D800221CF12A83161717F32A83161713D72B11
:1005E800A5008F17831698149A018312250883167D
:1005F800990018141818FE2A98101B088312A700CF
:10060800A60183161C088312A6048F132708A300CB
:100618002608A2000800B601B701B801B9013108DF
:1006280030042F042E0403194E2BBA01BA0AB11B49
:10063800232B0310AE0DAF0DB00DB10D1A2B031007
:10064800B60DB70DB80DB90D31083502031D362B9F
:1006580030083402031D362B2F083302031D362BB6
:100668002E083202031C482B2E08B2022F08031C46
:100678002F0FB3023008031C300FB4023108031CDB
:10068800310FB50236140310B10CB00CAF0CAE0C20
:10069800BA0B232B3908B1003808B0003708AF006F
:1006A8003608AE000800AA01AB01AC01AD01221C5E
:1006B800712B2608AA07270803110318013E031DFA
:1006C800AB07280803110318013E031DAC072908CE
:1006D80003110318013E031DAD070310A60DA70D56
:1006E800A80DA90D0310A50CA40CA30CA20C250899
:1006F800240423042204031D5B2B2D08A5002C08C9
:10070800A4002B08A3002A08A20008002E08BB009A
:100718002F08BC003008BD003108BE000310BE0C15
:10072800BD0CBC0CBB0C3B089E000800AE00720858
:10073800AF002C30B001B101B501B4004030B300B6
:1007480020342508B5002408B4002308B300220883
:10075800B20008007108AE007208AF002D30B00179
:10076800B101B501B400C630B300C0347108AE00A1
:100778007208AF002A30B001B101B501B400B93038
:10078800B30080342308F2002208F1000800831225
:10079800FA30F6107410EA000534AE005C08AF00B9
:1007A800B001B1010800921383128F1308002308C7
:1007B800F2002208F1000800831255085604031DB0
:1007C80008006A08031D080069080319F6180800DC
:1007D800F51F761808008316121908008312F51EF3
:1007E800FC2BF5126B258A119D248A116F08F000E5
:1007F8008B0108109B0188100816831690158D111F
:1008080010140D1010130D130F140C1090168D12D8
:1008180010160D1210110D118F128C120F110C11D0
:100828008F108C10E8308505831285058316861293
:10083800831286128316930111110E1183128811E7
:1008480043308316880083128E148F100608D50053
:10085800D60188136400073083169F0063000000E8
:1008680074258A11AA2583161011101090110F10E3
:100878004B308312D500D601881764000800F51B99
:10088800F618080083168E1D572C8E1130308312EF
:100898001805C100103A031D572C15080139DE0050
:1008A800DD011408DD048312761808005A3070023E
:1008B8000318732C9D248A1194248A116F087002DE
:1008C80003186F2CB8258A11700B6F2C0815EE11C0
:1008D8006E0803199D130630EB018A11D52ABE252F
:1008E8008A112B208A1110303C02693003193B020F
:1008F8000318832C0C30EB0A6B02031C862CB825DA
:100908008A11EB0164307002031C902C6430F000F3
:100918000830F5138A11D52A942406308A11D52A6D
:10092800181083168E118312081690309800181428
:100938000800BE258A112B208A113B08CB003C08F1
:10094800CC008030CD01CE01CB07F3300318F43052
:10095800CC07FF30031CCD07031CCE074E08031D30
:10096800692D4D08031D692D07304C02031DBE2C4F
:10097800D0304B020318692D4E08031DCE2C4D08AC
:10098800031DCE2C02304C02031DCC2CEF304B0241
:10099800031CD92CEE30F1000230F200AA30DB0043
:1009A8000A30DC01EF005A30F22C4E08031DE72C08
:1009B8004D08031DE72C01304C02031DE52CC33004
:1009C8004B02031CF42CC230F1000130F2002C3031
:1009D800DB000130DC005030EF000A30ED00142D50
:1009E8004E08031D012D4D08031D012D4C08031D44
:1009F800012D65304B02031C0D2D6430F1005E3073
:100A0800F201DB000130DC000930EF00ED01ED0AF6
:100A1800142DF101F201DB01DB0ADC01EF01ED012C
:100A28004E08A5004D08A4004C08A3004B08A200DE
:100A38007108BD007208BE00BF01C0013D08A202D6
:100A48003E08031C3E0FA3023F08031C3F0FA402ED
:100A58004008031C400FA5026F08A600A701A801C3
:100A6800A9018A1157238A112508CE002408CD0030
:100A78002308CC002208CB005B088A11D1238A11F5
:100A88004E08B5004D08B4004C08B3004B08B2003E
:100A98008A110F238A113108CE003008CD002F08A3
:100AA800CC002E08CB006D08CB0701300318CC070B
:100AB8000318CD070318CE074B08EF0064306F0208
:100AC800031C08006430EF000800EF010800081656
:100AD800903098007D252308DE002208DD000800FC
:100AE8008312081407308B007D30890081010E10B5
:100AF80008000430F101F201EF016F020318982D8C
:100B0800181483168E1D852D8E110130831215053C
:100B1800A4001408F1070318F20A2408F2070430A5
:100B2800EF0A6F02031C842D7208A5007108A40047
:100B38000310A50CA40C0310A50CA40C2408F100A8
:100B48002508F200A3007108A200080088148D018E
:100B58008C019101F9309000E3309B00F0309C0546
:100B68001C080E15E80108006B30F00AD9000530A2
:100B7800DA0008005E08BC005D08BB0008005308E6
:100B880054040319D32D530A1F30031954060319AB
:100B9800D32D0130D3020030031CD403D402761CB9
:100BA800080053085404031D08002B2E97268A15A5
:100BB80000208A11A500E20A97268A1500208A11CA
:100BC8009E268A114D2E97268A1500208A11A50087
:100BD800E20A97268A1500208A119E268A11173064
:100BE8007511A626080097268A1500208A11A500E7
:100BF800E20A97268A1500208A119E26FF30E40013
:100C0800E500E6007515080097268A1500208A1168
:100C1800A500E20A97268A1500208A119E268A11C5
:100C280097268A150020E600E20A080097268A150A
:100C38000020E100E20A6208E0000800E10303196D
:100C480008006008E200080017307610F42D6308E9
:100C5800A03E84006208E20A8313000784008A1514
:100C680000208A11083A0319DA2D023A0319E72DF0
:100C7800013A0319F72D073A0319082E1C3A0319EC
:100C88001A2E013A0319222E913A0319282E4C2EB6
:100C9800080097268A1500208A11A200E20A9726E2
:100CA8008A1500208A11A400E20A2208E600FA3018
:100CB8002406031D612E70086C2EFB302406031DCC
:100CC800672E6C086C2EFC302406031D6D2E6708F9
:100CD800A4006430A3012402031C7F2E0330E60421
:100CE800013084008A1500208A11E5000130912E18
:100CF8000A30A402A30A0A30240203187C2E23080F
:100D0800031D882E0A30A3002308013E84008A159B
:100D180000208A11E5002408013E84008A1500207D
:100D2800E400751508006308A03E84006208000707
:100D380084000800A600E20A2508D400D30126088A
:100D4800D304080083168504831285048316861647
:100D5800831286160800F70AF312632F6418B72E59
:100D680083160515B92E8316051183126419BF2E33
:100D780083168514C12E831685108312641AC72E14
:100D880083160514C92E8316051083126619CF2EF3
:100D980083168616D12E8316861205128312051223
:100DA8000800E418DA2E83160516DC2E83160512C1
:100DB80083126518E22E83168514E42E8316851097
:100DC8008312E618EA2E83160514EC2E83160510F6
:100DD8008312E619F22E83168616F42E83168612CF
:100DE8000511831205110800E419FD2E8316051656
:100DF800FF2E831605128312E518052F8316051595
:100E0800072F83160511831266180D2F83160514F4
:100E18000F2F831605108312661A152F8316861650
:100E2800172F831686128510831285100800E41A7E
:100E3800202F83160516222F831605128312E51913
:100E4800282F831605152A2F831605118312651975
:100E5800302F83168514322F831685108312E61AD5
:100E6800382F831686163A2F83168612051083129A
:100E780005100800641B432F83160516452F83169B
:100E880005128312651A4B2F831605154D2F8316ED
:100E980005118312E51A532F83168514552F8316CF
:100EA80085108312651B5B2F831605145D2F83162F
:100EB8000510861283128612FF30F70008007708A3
:100EC800003A0319B22E013A0319D52E033A031931
:100ED800F82E013A03191B2F073A03193E2F602FEA
:100EE80008008A15AF268A118A1174258A118A1179
:100EF800AA258A118A15E7268A1103308312CA00A7
:100F08000830C9007630C800C80B882FC90B882F55
:100F1800CA0B882F8F2F64308312EC006B30D900F6
:100F28000530DA008A116B258A118A119D248A11ED
:100F38006F08F0007130D7000230D8000030F51685
:100F4800F4148A11D5228A11FA30D500E130D6017D
:100F5800EE0183168900831288177313F3138E1713
:100F680064008312751ECA2F173075128A11A626BF
:100F78008A11F3167519F31EC42F8A11AF268A1128
:100F88008A159A278A118A1183208A118312F51DDE
:100F9800EA2FF5118A112C218A118A153F278A1107
:100FA8008A11C3258A118A1143248A1155085604C7
:100FB8000319E42F0130D5020030031CD603D602F2
:100FC8006A08031DEA036908031DE9038A11F4216D
:100FD8008A118A11E0238A11B42F98348E342C3464
:100FE80072343C34683488345E34943454344A342B
:060FF8000D3482347C344C
:1010000008308A000408840A820700343F3406341A
:101010005B344F3466346D347D3407347F346F3441
:101020000034FF34083400347D3408340634083486
:1010300000347D3408340534083400347D340834F9
:101040000434083400347D34083403340834003464
:101050007D340834023408340034893408340134CF
:10106000803408340134F4341434FA34083401344C
:10107000F4340034FC3408340134F4341834FB34D0
:101080008034103408340834003419341034FA34FD
:101090000834003419341434FA34113480341034E0
:1010A00002340A34003419340B3400341934113446
:1010B0008034103408340A34003419340B340034CA
:1010C000193411348034103403340A3400341934A0
:1010D0000B34003419341134803410340A340A3497
:1010E000003419340B340034193411348034103482
:1010F00006340A34003419340B34003419341134F2
:10110000803408340034FA341434FA348034083427
:101110000134F4340034FC34803408340434E234D0
:101120001434FA34803408340434E2341434FA3495
:1011300080340A340034013480340B3400347D347C
:021140008034F9
:101D4E0064008001840A0406031900340406A82ED8
:101D5E0017308316850083128500E33083168600C4
:101D6E0063308312860083169E0108007E088A0067
:101D7E007F088200BD268A158000840A04087D062D
:101D8E0003190034FF0A0319FE0AC12E0E180F1C88
:101D9E00D22E0F100E100E190F1DDC2E0F117516F0
:101DAE006808E80A0F390319F5158E188F1CE02EF6
:101DBE008F1021088A00200E8300FE0E7E0E090071
:101DCE00081683168E018D018C0190168D12101639
:101DDE000D129E178312F510831610130D13831216
:101DEE0088120815003020270230E7000B308A11C8
:101DFE00F4228A158A11C6238A158A119A238A1506
:101E0E00B2008A110F232E08BB002F08BC00300829
:101E1E00BD003108BE000310BE0CBD0CBC0CBB0CCB
:101E2E003B089E009D1383168F138C130F130C13F8
:101E3E000800A300230803192B2F230803190800F9
:101E4E0004302302031808008F1783169217F330FD
:101E5E00950583122308A20001300310A20DFF3E48
:101E6E000310031D352F220D831695048A11D72BCF
:101E7E00F61C0800191F512F4F0850040319512F3B
:101E8E000130CF020030031CD003D0024F085004A3
:101E9E000319991759085A0403195B2F0130D902F7
:101EAE000030031CDA03DA0259085A04031D662FA8
:101EBE006B30D9000530DA006C08031DEC035708AF
:101ECE0058040319702F0130D7020030031CD803B9
:101EDE00D80257085804031D080002307002031878
:101EEE00F0037130D7000230D800A3017008A200B1
:101EFE000A302202031C872F0A30A202A30A7F2F68
:101F0E002308031D8C2F0A30A3002308013E8400F2
:101F1E008A1500208A15E5002208013E84008A15E4
:101F2E000020E40008007312731B731683127317DC
:101F3E009D1B731383161219A62F8312731383120C
:101F4E00731EAB2F0130AC2F0030A300731FB12FC7
:101F5E000130B22F003023060319B82F0230F800DB
:101F6E000800780803190800F8037808031D080014
:101F7E00F311731BF3158312F31FC72F0130C82FF4
:101F8E000030A300F31DCD2F0130CE2F00302306DD
:101F9E000319D42F83127314D62F83127310731157
:101FAE007318F31DDB2F7315F3107318F31FE02F47
:101FBE00F314F313F319F317831273197418ED2F27
:101FCE000130F61475138A11D5228A15F31C0800F8
:101FDE0099121913F61C08000230F6108A11D52A30
:0A400000FD3FD53F293F773F283FE1
:00000001FF
