:040000008A110C282D
:10000800FE00030E8312A0000A08A1008A11A52A87
:100018008A110E28AF308313FD000230FE00CF3066
:10002800FF00A03084008A11C3228A11FF30F70034
:100038000430F800F9004B30840073308A11EC2248
:10004800F301F401F501F60183018A11AB29F70ADE
:10005800F312DF286418332883160515352883160C
:100068000511831264193B28831685143D288316CD
:1000780085108312641A43288316051445288316AD
:100088000510831266194B28831686164D28831689
:1000980086120512831205120800E41856288316E2
:1000A8000516582883160512831265185E288316CC
:1000B80085146028831685108312E618662883162F
:1000C80005146828831605108312E6196E2883160E
:1000D80086167028831686120511831205110800EA
:1000E800E4197928831605167B28831605128312CE
:1000F800E5188128831605158328831605118312B0
:1001080066188928831605148B2883160510831210
:10011800661A9128831686169328831686128510E8
:10012800831285100800E41A9C28831605169E2859
:10013800831605128312E519A42883160515A62827
:100148008316051183126519AC2883168514AE2809
:10015800831685108312E61AB42883168616B628E5
:10016800831686120510831205100800641BBF2829
:1001780083160516C128831605128312651AC72827
:1001880083160515C928831605118312E51ACF2889
:1001980083168514D128831685108312651BD728EA
:1001A80083160514D9288316051086128312861221
:1001B800FF30F70008007708003A03192E28013AA3
:1001C80003195128033A03197428013A0319972887
:0A01D800073A0319BA28DC280800D2
:1002000001308A000408840A820700343F3406342F
:100210005B344F3466346D347D3407347F346F344F
:100220000034FF34083400347D3408340634083494
:1002300000347D3408340534083400347D34083407
:100240000434083400347D34083403340834003472
:100250007D340834023408340034893408340134DD
:100260008034103402340A3400341F340B34003428
:100270001F34113408340034FA341434FA3480341E
:10028000103408340A3400341F34083400341F3466
:100290001434FA341134803408340134F43414340E
:1002A000FA3408340134F4341834FB348034103414
:1002B00002340A3400341F340B3400341F34113438
:1002C0008034103408340A3400341F340B340034C2
:1002D0001F3411348034103403340A3400341F3492
:1002E0000B3400341F341134803410340A340A348F
:1002F00000341F340B3400341F3411348034103474
:1003000006340A3400341F340B3400341F341134E3
:10031000803408340034FA341434FA348034083425
:100320000134F4340034FC34803408340034FA34BA
:100330001434FA34803408340434E2341434FA3493
:10034000803408340434E2341434FA3480340B3406
:1003500000347D3480348A11DE228A118A155227B6
:100360008A118A15E9278A118A156F208A110330AC
:100370008316B1000830B0007630AF00AF0BBE2955
:10038000B00BBE29B10BBE29C52964308312EC0025
:100390006B30D7000530D8008A151C278A118A15C2
:1003A0003A228A116F08F000B530DB000130DC0022
:1003B000831612189218E92983120630F614F410E5
:1003C0008A1567268A118A1528238A11F313F513D3
:1003D000F02900308A1567268A11F414F317F517EF
:1003E000FA30F517D500E130D601EE018316890009
:1003F00083128817F5117511191E022A73178316B7
:100400009E13052A731383169E1783128E1764009A
:100410008312751F1D2A173075138A15B7278A1185
:10042000F316751AF31E172A8A112B208A118A15C2
:100430000D208A118A1540248A118312F51E3D2A47
:10044000F5128A1528218A118A1144228A118A15E7
:1004500031238A118A15E5218A115508560403199A
:10046000372A0130D5020030031CD603D6026A08B1
:10047000031DEA036908031DE9038A15E9248A11AB
:100480008A15C5208A11072AF61D0800191F562A49
:10049000510852040319562A0130D1020030031CBE
:1004A000D203D202510852040319991774186D2A05
:1004B000570858040319622A0130D7020030031C80
:1004C000D803D80257085804031D6D2A6B30D70093
:1004D0000530D8006C08031DEC035B085C040319AD
:1004E000772A0130DB020030031CDC03DC025B08EE
:1004F0005C04031D0800023070020318F003B530DD
:10050000DB000130DC0074180800A3017008A200B1
:100510000A302202031C902A0A30A202A30A882A67
:100520002308031D952A0A30A300FC30E6052308A2
:10053000013E84008A1100218A11E5002208013E53
:1005400084008A110021E40008000E180F1CAA2A5A
:100550000F100E100E190F1DB42A0F117517680811
:10056000E80A0F390319F5168E188F1CB82A8F1058
:1005700021088A00200E8300FE0E7E0E09007E08F0
:100580008A007F088200BF228A118000840A040842
:100590007D0603190034FF0A0319FE0AC32AA23498
:1005A0009C3447347A343B34703496346634903417
:1005B0005C3452340D348A3484342C34173083162E
:1005C000850083128500E330831686006330831232
:1005D000860083169E01080064008001840A0406D8
:0805E000031900340406ED2AA2
:10101A007312F51973168312F5159D1BF5118316B4
:10102A00121919288312F5118312731E1E28013012
:10103A001F280030A300F51D242801302528003080
:10104A00230603192B280630F8000800780803192C
:10105A000800F8037808031D0800F311F519F315C1
:10106A008312751D3A2801303B280030A300F31D76
:10107A0040280130412800302306031947288312EB
:10108A00731449288312731073117318F31D4E28B1
:10109A007315F3107318751D5328F3147511F3198A
:1010AA0075158312731D6228F6157610741C5F2855
:1010BA000B306028013067268A15F31C08001913C3
:1010CA00F61D0800F611741C6D280D307410672E79
:1010DA000230672E081683168E018D018C01901638
:1010EA008D1210160D129E17831273138316101386
:1010FA000D138312881208150030A7208A150B30A9
:10110A00E701E70A86268A152308F2002208F10079
:10111A005B278A15B200A1262E08BB002F08BC0047
:10112A003008BD003108BE000310BE0CBD0CBC0C5B
:10113A00BB0C3B089E009D1383168F138C130F1351
:10114A000C130800A30023080319B2282308031963
:10115A00080004302302031808008F178316921719
:10116A00F330950583122308A20001300310A20D63
:10117A00FF3E0310031DBC28220D83169504E52F9C
:10118A00831255085604031D08006A08031D080047
:10119A0069080319F6190800F61C7619080083165F
:1011AA00121908008312F51FE128F5131C278A1566
:1011BA003A228A156F08F0008B0108109B018810EB
:1011CA000816831690158D1110140D1010130D1397
:1011DA000F140C1090168D1210160D1210110D11FD
:1011EA008F128C120F110C118F108C10E83085059C
:1011FA00831285058316861283128612831693013B
:10120A0011110E118312881143308316880083123C
:10121A008E148F100608D500D60188136400073093
:10122A0083169F006300000052278A15E927831658
:10123A001011101090110F104B308312D500D601E7
:10124A00881764000800F4137518F41783127510D0
:10125A00061B75148312F41F342901303529003016
:10126A00BF00751C3A2901303B2900303F0603199B
:10127A0041290430F900AC2979080319AC29F9038A
:10128A007908031DAC297413751C4C297417831231
:10129A00F41E5129013052290030BF00741F57290A
:1012AA000130582900303F0603195E29831274154C
:1012BA0060298312741174127419741F65297416C3
:1012CA00F4117419F41E6A29F415F412741BF41635
:1012DA008312741A9912F41DAC294B30D500D60129
:1012EA00F41C991669080319DF013E30DF0AE90088
:1012FA00741CAC290B30741086268A15CF278A15E0
:10130A00670B8B2971085B278A15912902306706BA
:10131A00031D93296D278A15B200992903306706A0
:10132A00031DAA2979278A15A1268A152E08BF0026
:10133A002F08C0003008C1003108C2000310C20CD7
:10134A00C10CC00CBF0C3F089E00C0278A15F518B7
:10135A00B329B5218A150C248A15C229DF01080090
:10136A006908031D080005305F02031C08000230EB
:10137A00DF01F40699120A30672E690803197418F6
:10138A00D429F41C741FD42902305F06031DD42902
:10139A00DF0174149916EE30CF000230D000741CAD
:1013AA0008004F085004031908000130CF0200302A
:1013BA00031CD003D0024F085004031999120800E5
:1013CA00F618F619080083168E1DF9298E11303089
:1013DA0083121805C100103A031DF92915080139AD
:1013EA00DE00DD011408DD048312761908005A3084
:1013FA0070020318132A3A228A1528238A156F08BD
:10140A0070020318112ADA278A15700B112A081597
:10141A00EE116E0803199D13EB01362A83169218F2
:10142A00272A8312E0278A1505238A1510303C02E1
:10143A00693003193B020318272A0C30EB0A6B02A6
:10144A00031C2B2A8312DA278A15EB0164307002F7
:10145A00031C342A6430F0000830F610372A282397
:10146A008A15063067268A15312BE0278A15052347
:10147A008A153B08CB003C08CC008030CD01CE0158
:10148A00CB07F3300318F430CC07FF30031CCD0729
:10149A00031CCE074E08031D032B4D08031D032B07
:1014AA0007304C02031D5B2AD0304B020318032B72
:1014BA004E08031D6B2A4D08031D6B2A02304C028D
:1014CA00031D692AEF304B02031C762AEE30F10025
:1014DA000230F200AA30D9000A30DA01EF005A309D
:1014EA008F2A4E08031D842A4D08031D842A0130C1
:1014FA004C02031D822AC3304B02031C912AC230BC
:10150A00F1000130F2002C30D9000130DA005030FD
:10151A00EF000A30ED00B12A4E08031D9E2A4D083D
:10152A00031D9E2A4C08031D9E2A65304B02031C8C
:10153A00AA2A6430F1005E30F201D9000130DA00E3
:10154A000930EF00ED01ED0AB12AF101F201D901EA
:10155A00D90ADA01EF01ED014E08A5004D08A400F1
:10156A004C08A3004B08A2007108BD007208BE0017
:10157A00BF01C0013D08A2023E08031C3E0FA302A0
:10158A003F08031C3F0FA4024008031C400FA5029A
:10159A006F08A600A701A801A901E9268A1525084E
:1015AA00CE002408CD002308CC002208CB0059081D
:1015BA00D4278A154E08B5004D08B4004C08B3006C
:1015CA004B08B200A1268A153108CE003008CD009A
:1015DA002F08CC002E08CB006D08CB07013003186A
:1015EA00CC070318CD070318CE074B08EF00643069
:1015FA006F02031C08006430EF000800EF010800C6
:10160A000A3086268A152308F2002208F1000330E0
:10161A00B101B001AF00E830AE003B08A2003C08BF
:10162A00A300A401A5017108A6007208A700A801D9
:10163A00A901E9268A15AE278A15A1262F08BC001A
:10164A002E08BB000800181083168E118312081684
:10165A009030980018140800530854040319412BB9
:10166A00530A1F30031954060319412B0130D302C0
:10167A000030031CD403D402761D08005308540416
:10168A00031D0800992B66278A1100218A15A600D6
:10169A00E20A66278A1100218A15A6278A15BB2B1A
:1016AA0066278A1100218A15A600E20A66278A118E
:1016BA0000218A15A6278A1517307512B727080040
:1016CA0066278A1100218A15A600E20A66278A116E
:1016DA0000218A15A627FF30E400E500E60075160A
:1016EA00080066278A1100218A15A600E20A6627E1
:1016FA008A1100218A15A6278A1566278A110021D0
:10170A00E600E20A080066278A110021E100E20ADF
:10171A006208E0000800E103031908006008E2001B
:10172A00080017307611622B6308A03E8400620815
:10173A00E20A8313000784008A1100218A15083AF5
:10174A000319482B023A0319552B013A0319652B41
:10175A00073A0319762B1C3A0319882B013A031905
:10176A00902B913A0319962BBA2B0800A3016627EE
:10177A008A1100218A15A200E20A66278A1100212D
:10178A008A15A500E20A2208E600FA302506031D9A
:10179A00D02B7008D52BFB302506031DD72B6C08E0
:1017AA00A500DF2BFC302506031DDF2B6708A500EB
:1017BA00A301A30A6430A4012502031CF12B033000
:1017CA00E604013084008A1100218A15E5000130FF
:1017DA00062C0A30A502A40A0A3025020318EE2BA9
:1017EA002308031DFD2B2408031DFD2B0A30A4002A
:1017FA002408013E84008A1100218A15E500250883
:10180A00013E84008A110021E40075160800690867
:10181A00031D080003305F060319F418080004309A
:10182A00DF01E70A6702031C1C2CE701E70A0C30F8
:10183A0067268A150B3086268A15CF278A15670BE5
:10184A002D2C71085B278A15B200A1268A15862FCE
:10185A0002306706031D372C6D278A15B200A126B0
:10186A008A15862F03306706031D080079278A1513
:10187A00A1268A15862FF61D0800761CE72C8316EA
:10188A008E1D0800831218083039031DE12C8316B7
:10189A008E110E128312761015080139C500C40183
:1018AA001408C40417080139C700C6011608C6047B
:1018BA0000304702323003194602031CC92C00309B
:1018CA004502333003194402031CC92C0B30862607
:1018DA008A152308F2002208F1000D3086268A159F
:1018EA002308DA002208D900D4278A157108A20031
:1018FA007208A3000330A401A501A901A801A70049
:10190A00E830A600E9268A15AE278A15A1268A1587
:10191A002F08C3002E08C2004608AE004708AF00D1
:10192A00B001B1014408A2004508A300A401A50121
:10193A004208A6004308A700A801A901E9268A15BA
:10194A00AE278A15A1268A153108BF003008BE00C5
:10195A002F08BD002E08BC003F08031DC92C3E08F5
:10196A00031DC92C02303D02031DBD2CEE303C0282
:10197A000318C92CF611741008159D170530EE14BA
:10198A006726FA30EA000800081683168E110E122E
:10199A009130DD2C83168E118312761015080139C9
:1019AA00C100C0011408C00483168E110E128330C0
:1019BA00831298007614080030301805BB00103ADC
:1019CA000319CF2C0816D92C83160C080319C32D1A
:1019DA008312F41CF62C83168C01831208159D17AA
:1019EA00C32D6E08031DFB2C08159D1383168C1F2F
:1019FA00022D8C13C8278A15672E0C1F082D0C136D
:101A0A00C8278A15672E8C1E1A2D8C1283126A0813
:101A1A00031D0800F001F6117410991208159D179C
:101A2A000430EE1567268A15C32D0C1D232D0C11C3
:101A3A0083120330F61167268A15C32D8C1C742D68
:101A4A008C10831299120816831619083F398312CB
:101A5A00CA00C901831618088312C90483161B0811
:101A6A003F398312C600C50183161A088312C504BA
:101A7A0004308312C2001C30C100C10B422DC20BBC
:101A8A00422D83124A08C2004908C10005300310DA
:101A9A00C20CC10CFF3E031D4C2D4108C700420871
:101AAA00C8004508C7070318C80A4608C807061F1A
:101ABA00662D4A084802031D642D49084702031887
:101ACA00C32D991203308312C2009730C100C10B93
:101ADA006C2DC20B6C2D000083129916C32D0C1CA1
:101AEA00C32D0C104B308312D5000B30D60186263D
:101AFA008A15CF278A15670B862D71085B278A15E9
:101B0A008C2D02306706031D8E2D6D278A15B200B3
:101B1A00942D03306706031D982D79278A15A1266F
:101B2A008A1596278A15F51CA82D99160630831250
:101B3A00C200B530C100C10BA02DC20BA02D000000
:101B4A00831299120800741CAD2D7410C0278A15CF
:101B5A00731BB42D093067269D176E1608006E1286
:101B6A006E0803199D13EE1DBC2D0430672E6E18E6
:101B7A00C02DEE1CC32D9D136E10EE1083160D089A
:101B8A00031908008D1DF72D8D118312F514741099
:101B9A009912003073268A15F31FDA2DF3131C27C6
:101BAA008A153A228A156F08F00064307002031809
:101BBA00EA2DF614F619E42D063067268A1528232D
:101BCA008A15F41C0C2E0A30F52D6430F000F6103C
:101BDA00F619F22D083067268A15F41C0C2E0E30E1
:101BEA00F4100A2E0D1DFE2D0D11013073268A15D3
:101BFA000C2E0D1C0C2E0D1083120030F5107326BE
:101C0A008A15F610F6190C2E073067268A158316E0
:101C1A000D1E142E0D129E13831273171A2E8D1E6B
:101C2A001A2E8D129E178312731383160D1F080026
:101C3A000D138312991E08004B30D5000B30D601C4
:101C4A0086268A15CF278A15741C382E7108AE008D
:101C5A007208AF001C30B001B101B501B4001330F5
:101C6A00B3008030442E670B3E2E71085B278A151D
:101C7A00442E02306706031D462E6D278A15B200D0
:101C8A004C2E03306706031D502E79278A15A1268C
:101C9A008A1596278A15F51C552E99127410080074
:101CAA00731FAF2D6E126E0803199D13EE1D5F2E62
:101CBA000430672E6E18632EEE1C08009D136E10FA
:101CCA00EE1008008312A20017307512B727D3014D
:101CDA00D4012208E300E201761508008312A2006B
:101CEA00220803197A2E220B08008F1783169217DF
:101CFA008312221C832E83161717852E8316171319
:101D0A00E52FA5008F17831698149A0183122508C8
:101D1A008316990018141818902E98101B0883120D
:101D2A00A700A60183161C088312A6048F1327088E
:101D3A00A3002608A2000800B601B701B801B9013C
:101D4A00310830042F042E040319E02EBA01BA0A0E
:101D5A00B11BB52E0310AE0DAF0DB00DB10DAC2EEB
:101D6A000310B60DB70DB80DB90D31083502031DB4
:101D7A00C82E30083402031DC82E2F083302031D53
:101D8A00C82E2E083202031CDA2E2E08B2022F08A1
:101D9A00031C2F0FB3023008031C300FB4023108A2
:101DAA00031C310FB50236140310B10CB00CAF0C82
:101DBA00AE0CBA0BB52E3908B1003808B000370896
:101DCA00AF003608AE000800AA01AB01AC01AD01B4
:101DDA00221C032F2608AA07270803110318013E0D
:101DEA00031DAB07280803110318013E031DAC07A6
:101DFA00290803110318013E031DAD070310A60DA0
:101E0A00A70DA80DA90D0310A50CA40CA30CA20CD8
:101E1A002508240423042204031DED2E2D08A50001
:101E2A002C08A4002B08A3002A08A2000800081600
:101E3A009030980025272308DE002208DD000800DC
:101E4A000430F101F201EF016F020318402F181458
:101E5A0083168E1D2D2F8E11013083121505A400B5
:101E6A001408F1070318F20A2408F2070430EF0AEB
:101E7A006F02031C2C2F7208A5007108A40003101E
:101E8A00A50CA40C0310A50CA40C2408F100250829
:101E9A00F200A3007108A200080083120814073098
:101EAA008B007D30890081010E100800AE00720897
:101EBA00AF002B30B001B101B501B4005530B30009
:101ECA00C0346308A03E840062080007840008004A
:101EDA007108AE007208AF002C30B001B101B50133
:101EEA00B400DC30B30060347108AE007208AF0091
:101EFA002E30B001B101B501B4006330B300B201B4
:101F0A0008002E08BB002F08BC003008BD003108AD
:101F1A00BE000310BE0CBD0CBC0CBB0C3B089E00E3
:101F2A0008002E08C1002F08C2003008C30031087B
:101F3A00C4000310C40CC30CC20CC10C41089E009F
:101F4A000800A700E20A2608D400D3012708D30410
:101F5A0008002508B5002408B4002308B3002208A5
:101F6A00B200080083168504831285048316861638
:101F7A008312861608001917E830F5117511D10079
:101F8A000330D20008008312F61174109912FA3045
:101F9A00EA0005342308F2002208F1000800AE0026
:101FAA005A08AF00B001B1010800B530F00ADB00F1
:101FBA000130DC0008005E08BC005D08BB000800B8
:101FCA00921383128F13080088148D018C019101DA
:101FDA00F9309000E3309B00F0309C051C080E1588
:041FEA00E801080002
:0A400000FD3FD53F293F773F283FE1
:00000001FF
