:040000008A110C282D
:10000800FE00030E8312A0000A08A1008A11B32F74
:100018008A110E28AE308313FD000730FE00DD3054
:10002800FF00A03084008A11D1278A11FF30F70021
:100038000430F800F9004B30840073308A15E82545
:10004800F301F401F501F60183018A156C2FF51B04
:10005800F618080083168E1D3F288E113030831243
:100068001805C100103A031D3F2815080139DE00A4
:10007800DD011408DD048312761808005A30700276
:1000880003185B288A1140248A1178238A116F0883
:10009800700203185828CE238A11700B58280815A7
:1000A800EE116E0803199D130630EB01C22A8A115E
:1000B8005B258A117C208A1110303C0269300319B3
:1000C8003B0203186C280C30EB0A6B02031C6F28E8
:1000D800CE238A11EB0164307002031C7828643047
:1000E800F0000830F513C22A78238A110630C22A94
:1000F8000A30E2228A112308F2002208F1000330B4
:10010800B101B001AF00E830AE003B08A2003C08E6
:10011800A300A401A5017108A6007208A700A80100
:10012800A90145238A119C238A11FD222F08BC00AE
:100138002E08BB0008006908031D080003305F068D
:100148000319F41808000430DF01E70A6702031CEA
:10015800AF28E701E70A0C30C2228A110B30E222ED
:100168008A11D4238A11670BBF28B1238A11B200E0
:10017800FD228A11812B02306706031DCA287108E7
:1001880091238A11B200FD228A11812B0330670660
:10019800031D0800A5238A11B200FD228A11812BB4
:1001A800F61C0800751F7B2983168E1D0800831214
:1001B80018083039031D752983168E110E12831203
:1001C800751315080139C500C4011408C4041708BB
:1001D8000139C700C6011608C6040030470232308C
:1001E80003194602031C5D29003045023330031908
:1001F8004402031C5D290B30E2228A112308F20015
:100208002208F1000D30E2228A112308DC002208BE
:10021800DB00C8238A117108A2007208A30003300A
:10022800A401A501A901A801A700E830A60045235B
:100238008A119C238A11FD228A112F08C3002E08D7
:10024800C2004608AE004708AF00B001B10144083B
:10025800A2004508A300A401A5014208A60043087E
:10026800A700A801A90145238A119C238A11FD2210
:100278008A113108BF003008BE002F08BD002E08C3
:10028800BC003F08031D5D293E08031D5D2902309F
:100298003D02031D5129EE303C0203185D29F6107A
:1002A800741008159D170530EE14C222FA30EA00C2
:1002B8000800081683168E110E12913071298316C4
:1002C8008E118312751315080139C100C001140875
:1002D800C00483168E110E1283308312980075178E
:1002E800080030301805BB00103A031963290816B6
:1002F8006D29690803197418CD29F418CD2902301D
:100308005F06031DCD29DF01F51890290930C222A7
:1003180008159D176E1608006E126E08031D9629A3
:1003280008159D13EE1D9A290430C22A6E189E29BD
:10033800EE1CA22908159D136E10EE107414991660
:10034800EE30D1000230D2000B30E2228A11BD23F8
:100358008A11AE007208AF001B30B001B101B501BF
:10036800B4007730B3004030B200FD228A112E0865
:10037800BB002F08BC003008BD003108BE000310C8
:10038800BE0CBD0CBC0CBB0C3B089E000B30C22243
:100398008A11741C0800510852040319080001301E
:1003A800D1020030031CD203D20251085204031DAB
:1003B8000800741099120D30C22A83160C0803190C
:1003C8006F2A8312F41CEE2983168C0183120815F8
:1003D8009D176F2A6E08031DF32908159D138316B0
:1003E8008C1FFA298C13C2238A11C22A0C1F002AD7
:1003F8000C13C2238A11C22A8C1E112A8C12831252
:100408006A08031D0800F001F610741008159D17FE
:100418000430EE15C2228A116F2A0C1D1A2A0C11FB
:1004280083120330F610C2228A116F2A8C1C1E2AEE
:100438008C106F2A0C1C6F2A0C104B308312D500BD
:100448000B30D601E2228A11D4238A11670B2F2A96
:10045800B1238A113D2A02306706031D372A710825
:1004680091238A113D2A03306706031D4F2AA523CD
:100478008A11B200FD228A112E08BB002F08BC0089
:100488003008BD003108BE000310BE0CBD0CBC0C0A
:10049800BB0C3B089E00741C592A74101917E830CD
:1004A8007313F313CF000330D000F518602A093016
:1004B800C2229D176E1608006E126E0803199D134E
:1004C800EE1D682A0430C22A6E186C2AEE1C6F2AA8
:1004D8009D136E10EE1083160D08031908008D1D6C
:1004E800952A8D11831200307410CF228A1164303E
:1004F80070020318882AF517F618852A0630C222D2
:100508008A1178238A11902A6430F000F513F618BE
:10051800902A0830C2228A11F41CB02A0A30F4103A
:10052800AE2A0D1DA42A0D110130CF228A11F51F04
:10053800B02A6430F513F000F618B02A0830AE2A55
:100548000D1CB02A0D100030CF228A11F513F618B1
:10055800B02A0730C2228A1183160D1EB82A0D123E
:100568009E138312F514BE2A8D1EBE2A8D129E1765
:100578008312F51083160D1B0D1308008312A200B9
:10058800173075118A114326D301D4012208E300DC
:10059800E201761408008312A20022080319D62A61
:1005A800220B08008F17831692178312221CDF2A4A
:1005B80083161717E12A83161713D92BA5008F174F
:1005C800831698149A018312250883169900181423
:1005D8001818EC2A98101B088312A700A601831686
:1005E8001C088312A6048F132708A3002608A2005C
:1005F8000800B601B701B801B901310830042F0469
:100608002E0403193C2BBA01BA0AB11B112B031093
:10061800AE0DAF0DB00DB10D082B0310B60DB70D13
:10062800B80DB90D31083502031D242B30083402EA
:10063800031D242B2F083302031D242B2E083202FE
:10064800031C362B2E08B2022F08031C2F0FB302EF
:100658003008031C300FB4023108031C310FB502F7
:1006680036140310B10CB00CAF0CAE0CBA0B112B36
:100678003908B1003808B0003708AF003608AE00B6
:100688000800AA01AB01AC01AD01221C5F2B2608B2
:10069800AA07270803110318013E031DAB07280802
:1006A80003110318013E031DAC07290803110318A1
:1006B800013E031DAD070310A60DA70DA80DA90D3A
:1006C8000310A50CA40CA30CA20C250824042304D5
:1006D8002204031D492B2D08A5002C08A4002B0873
:1006E800A3002A08A2000800181083168E1183128E
:1006F800081690309800181408002E08BB002F0820
:10070800BC003008BD003108BE000310BE0CBD0C93
:10071800BC0CBB0C3B089E000800AE007208AF0082
:100728002C30B001B101B501B4004030B300203421
:100738002508B5002408B4002308B3002208B20035
:1007480008007108AE007208AF002D30B001B10189
:10075800B501B400C630B300C0347108AE007208E9
:10076800AF002A30B001B101B501B400B930B3000F
:1007780080342308F2002208F10008008312FA30BE
:10078800F6107410EA000534AE005C08AF00B00142
:10079800B10108006B30F00AD9000530DA00080012
:1007A8002308F2002208F1000800921383128F1325
:1007B8000800831255085604031D08006A08031D23
:1007C800080069080319F6180800F51F76180800CC
:1007D8008316121908008312F51EF92BF5120E253F
:1007E8008A1140248A116F08F0008B0108109B01C0
:1007F80088100816831690158D1110140D101013FB
:100808000D130F140C1090168D1210160D121011D6
:100818000D118F128C120F110C118F108C10E830E3
:100828008505831285058316861283128612831620
:10083800930111110E118312881143308316880019
:1008480083128E148F100608D500D6018813640011
:10085800073083169F006300000017258A114D2575
:1008680083161011101090110F104B308312D50001
:10087800D6018817640008005B258A117C208A113C
:100888003B08CB003C08CC008030CD01CE01CB0723
:10089800F3300318F430CC07FF30031CCD07031CDA
:1008A800CE074E08031D0C2D4D08031D0C2D0730D7
:1008B8004C02031D612CD0304B0203180C2D4E083E
:1008C800031D712C4D08031D712C02304C02031DB1
:1008D8006F2CEF304B02031C7C2CEE30F100023001
:1008E800F200AA30DB000A30DC01EF005A30952C08
:1008F8004E08031D8A2C4D08031D8A2C01304C021A
:10090800031D882CC3304B02031C972CC230F10006
:100918000130F2002C30DB000130DC005030EF00F9
:100928000A30ED00B72C4E08031DA42C4D08031DFA
:10093800A42C4C08031DA42C65304B02031CB02CBE
:100948006430F1005E30F201DB000130DC00093078
:10095800EF00ED01ED0AB72CF101F201DB01DB0A32
:10096800DC01EF01ED014E08A5004D08A4004C087C
:10097800A3004B08A2007108BD007208BE00BF01A9
:10098800C0013D08A2023E08031C3E0FA3023F0817
:10099800031C3F0FA4024008031C400FA5026F0868
:1009A800A600A701A801A9018A1145238A112508D3
:1009B800CE002408CD002308CC002208CB005B0819
:1009C8008A11C8238A114E08B5004D08B4004C0896
:1009D800B3004B08B2008A11FD228A113108CE00FB
:1009E8003008CD002F08CC002E08CB006D08CB07AF
:1009F80001300318CC070318CD070318CE074B089E
:100A0800EF0064306F02031C08006430EF00080038
:100A1800EF01080008169030980020252308DE0012
:100A28002208DD0008008312081407308B007D308F
:100A3800890081010E1008000430F101F201EF0174
:100A48006F0203183B2D181483168E1D282D8E1146
:100A5800013083121505A4001408F1070318F20ADF
:100A68002408F2070430EF0A6F02031C272D7208CE
:100A7800A5007108A4000310A50CA40C0310A50C74
:100A8800A40C2408F1002508F200A3007108A200B4
:100A9800080088148D018C019101F9309000E33031
:100AA8009B00F0309C051C080E15E80108005E0844
:100AB800BC005D08BB000800530854040319702DDE
:100AC800530A1F30031954060319702D0130D3023D
:100AD8000030031CD403D402761C080053085404C5
:100AE800031D0800C82D34268A1112278A11A50073
:100AF800E20A34268A1112278A113B268A11EA2D26
:100B080034268A1112278A11A500E20A34268A118E
:100B180012278A113B268A111730751143260800BF
:100B280034268A1112278A11A500E20A34268A116E
:100B380012278A113B26FF30E400E500E600751510
:100B4800080034268A1112278A11A500E20A3426E1
:100B58008A1112278A113B268A1134268A111227F4
:100B6800E600E20A080034268A111227E100E20AA8
:100B78006208E0000800E103031908006008E200C9
:100B8800080017307610912D6308A03E8400620893
:100B9800E20A8313000784008A1112278A11083A8F
:100BA8000319772D023A0319842D013A0319942D5C
:100BB800073A0319A52D1C3A0319B72D013A031951
:100BC800BF2D913A0319C52DE92D080034268A1145
:100BD80012278A11A200E20A34268A1112278A11E2
:100BE800A400E20A2208E600FA302406031DFE2DBE
:100BF8007008092EFB302406031D042E6C08092EEC
:100C0800FC302406031D0A2E6708A4006430A301E3
:100C18002402031C1C2E0330E604013084008A11D0
:100C280012278A11E50001302E2E0A30A402A30AE9
:100C38000A3024020318192E2308031D252E0A3012
:100C4800A3002308013E84008A1112278A11E500B7
:100C58002408013E84008A111227E4007515080053
:100C68006308A03E84006208000784000800A6000C
:100C7800E20A2508D400D3012608D3040800831605
:100C88008504831285048316861683128616080047
:100C9800F70AF312002F6418542E83160515562EE2
:100CA80083160511831264195C2E831685145E2E33
:100CB800831685108312641A642E83160514662E13
:100CC80083160510831266196C2E831686166E2EEF
:100CD800831686120512831205120800E418772E6F
:100CE80083160516792E83160512831265187F2E32
:100CF80083168514812E831685108312E618872E95
:100D080083160514892E831605108312E6198F2E73
:100D180083168616912E83168612051183120511E5
:100D28000800E4199A2E831605169C2E83160512C0
:100D38008312E518A22E83160515A42E8316051115
:100D480083126618AA2E83160514AC2E8316051076
:100D58008312661AB22E83168616B42E831686124E
:100D68008510831285100800E41ABD2E8316051617
:100D7800BF2E831605128312E519C52E8316051595
:100D8800C72E8316051183126519CD2E8316851477
:100D9800CF2E831685108312E61AD52E8316861653
:100DA800D72E831686120510831205100800641BBF
:100DB800E02E83160516E22E831605128312651A95
:100DC800E82E83160515EA2E831605118312E51AF7
:100DD800F02E83168514F22E831685108312651B58
:100DE800F82E83160514FA2E831605108612831220
:100DF8008612FF30F70008007708003A03194F2ED3
:100E0800013A0319722E033A0319952E013A031970
:100E1800B82E073A0319DB2EFD2E080007308A008A
:100E28000408840A820700343F3406345B344F34A4
:100E380066346D347D3407347F346F340034FF34C6
:100E4800083400347D3408340634083400347D34E2
:100E580008340534083400347D3408340434083444
:100E680000347D3408340334083400347D340834C5
:100E780002340834003489340834013480340834A6
:100E88000134F4341434FA3408340134F4340034BA
:100E9800FC3408340134F4341834FB34803410340E
:100EA80008340834003419341034FA34083400345F
:100EB80019341434FA3411348034103402340A34B6
:100EC800003419340B34003419341134803410349C
:100ED80008340A34003419340B340034193411340A
:100EE8008034103403340A34003419340B34003499
:100EF80019341134803410340A340A340034193463
:100F08000B340034193411348034103406340A3464
:100F1800003419340B340034193411348034083453
:100F28000034FA341434FA34803408340134F43494
:100F38000034FC34803408340434E2341434FA3491
:100F4800803408340434E2341434FA3480340A34F3
:100F58000034013480340B3400347D3480340E186E
:100F68000F1CB82F0F100E100E190F1DC22F0F11C6
:100F780075166808E80A0F390319F5158E188F1CBD
:100F8800C62F8F1021088A00200E8300FE0E7E0EC9
:100F980009007E088A007F088200CD278A11800018
:100FA800840A04087D0603190034FF0A0319FE0A9F
:100FB800D12F98348E342C3472343C3468348834CD
:100FC8005E34943454344A340D3482347C341730CB
:100FD8008316850083128500E3308316860063300C
:0A0FE8008312860083169E010800A4
:101BD00064008001840A0406031900340406E92D18
:101BE000081683168E018D018C0190168D12101629
:101BF0000D129E178312F510831610130D13831206
:101C000088120815003029260230E7000B308A11AF
:101C1000E2228A158A11BD238A158A1191238A1519
:101C2000B2008A11FD222E08BB002F08BC0030082C
:101C3000BD003108BE000310BE0CBD0CBC0CBB0CBB
:101C40003B089E009D1383168F138C130F130C13E8
:101C50000800A30023080319342E230803190800E1
:101C600004302302031808008F1783169217F330ED
:101C7000950583122308A20001300310A20DFF3E38
:101C80000310031D3E2E220D831695048A11D92BB5
:101C9000F61C0800191F5A2E4F08500403195A2E1B
:101CA0000130CF020030031CD003D0024F08500493
:101CB0000319991759085A040319642E0130D902DF
:101CC0000030031CDA03DA0259085A04031D6F2E90
:101CD0006B30D9000530DA006C08031DEC0357089F
:101CE00058040319792E0130D7020030031CD803A1
:101CF000D80257085804031D080002307002031868
:101D0000F0037130D7000230D800A3017008A200A0
:101D10000A302202031C902E0A30A202A30A882E47
:101D20002308031D952E0A30A3002308013E8400DA
:101D30008A1112278A15E5002208013E84008A11C3
:101D40001227E40008007312731B731683127317B3
:101D50009D1B731383161219AF2E831273138312F4
:101D6000731EB42E0130B52E0030A300731FBA2E9F
:101D70000130BB2E003023060319C12E0230F800BB
:101D80000800780803190800F8037808031D080004
:101D9000F311731BF3158312F31FD02E0130D12ED4
:101DA0000030A300F31DD62E0130D72E00302306BD
:101DB0000319DD2E83127314DF2E83127310731137
:101DC0007318F31DE42E7315F3107318F31FE92E27
:101DD000F314F313F319F317831273197418F62E0F
:101DE0000130F61475138A11C2228A15F31C0800FB
:101DF00099121913F61C08000230F6108A11C22A33
:101E0000F4137518F41783127510061B75148312DA
:101E1000F41F0C2F01300D2F0030BF00751C122F46
:101E20000130132F00303F060319192F0430F90039
:101E3000592F79080319592FF9037908031D592FD0
:101E40007413751C242F74178312F41E292F01306C
:101E50002A2F0030BF00741F2F2F0130302F003089
:101E60003F060319362F83127415382F831274110D
:101E700074127419741F3D2F7416F4117419F41E22
:101E8000422FF415F412741BF4168312F41D592F0B
:101E90004B30D500D60169080319DF013E30DF0A57
:101EA000E900741C592F741099120D308A11C22246
:101EB0008A155E278A119F208A117D296908031DD2
:101EC000080005305F02031C08000230DF01F40641
:101ED00099120A308A11C22A8A11EB278A158A11AF
:101EE00017258A158A114D258A158A15F0258A1518
:101EF00003308312CA000830C9007630C800C80B0E
:101F00007F2FC90B7F2FCA0B7F2F862F6430831240
:101F1000EC006B30D9000530DA008A110E258A15E5
:101F20008A1140248A156F08F0007130D700023002
:101F3000D800831612189218A82F83120630F517AE
:101F4000F4108A11C2228A158A1178238A15AD2FBE
:101F500000308A11C2228A15F414FA30F516D50021
:101F6000E130D601EE0183168900831288177313BE
:101F7000F3138E1764008312751ED02F173075125D
:101F80008A1143268A15F3167519F31ECA2F8A1172
:101F90004C268A158A15A3268A158A11D4208A15FB
:101FA0008312F51DF02FF5118A1500278A158A1561
:101FB00048268A158A1160258A158A112B208A15D0
:101FC000550856040319EA2F0130D5020030031CCE
:101FD000D603D6026A08031DEA036908031DE90354
:0E1FE0008A11E1218A158A11DD238A15BA2F94
:0A400000FD3FD53F293F773F283FE1
:00000001FF
