:040000008A110C282D
:10000800FE00030E8312A0000A08A1008A15822DA3
:100018008A110E28AE308313FD000D30FE006430C7
:10002800FF00A03084008A11EE278A11FF30F70004
:100038000430F800F9004B30840073308A154E25DF
:10004800F301F401F501F60183018A15162EF31266
:10005800F518F3168312F5149D1BF5108316121963
:1000680037288312F5108312F31E3C2801303D28EF
:100078000030BA00F51C42280130432800303A0607
:10008800031949280230F800080078080319080005
:10009800F8037808031D08007312F5187316831205
:1000A800751C5828013059280030BA00731E5E2884
:1000B80001305F2800303A06031965288312F314CB
:1000C80067288312F310F311F318731E6C28F315C5
:1000D8007311F318751C712873157510731A75143C
:1000E8008312F31D8028F6147513F31F7D280B3037
:1000F8007E280130DE228A11731D08009912191317
:10010800F61C0800F610F31F8C280D30F313DE2AB6
:100118000230DE2A081683168E018D018C01901696
:100128008D1210160D129E1783127310831610135A
:100138000D1383128812081500308A159C258A1120
:100148000230E7000B300A238A112308F200220844
:10015800F100B6238A11B20025232E08BB002F0810
:10016800BC003008BD003108BE000310BE0CBD0C39
:10017800BC0CBB0C3B089E009D1383168F138C137D
:100188000F130C1308000A300A238A112308F200FF
:100198002208F1000330B101B001AF00E830AE0031
:1001A8003B08A2003C08A300A401A5017108A60011
:1001B8007208A700A801A9016D238A11E9238A11F1
:1001C80025232F08BC002E08BB0008006908031D62
:1001D800080003305F060319741808000430DF01B3
:1001E800E70A6702031CFA28E701E70A0C30DE2257
:1001F8008A110B300A238A110C248A11670B0A29E9
:10020800CD238A11B20025238A11A62B0230670656
:10021800031D15297108B6238A11B20025238A11F6
:10022800A62B03306706031D0800C1238A11B200FC
:1002380025238A11A62BF61C0800751FC6298316CC
:100248008E1D0800831218083039031DC029831633
:100258008E110E128312751315080139C500C401D9
:100268001408C40417080139C700C6011608C604D3
:1002780000304702323003194602031CA829003017
:100288004502333003194402031CA8290B300A2302
:100298008A112308F2002208F1000D300A238A117E
:1002A8002308DC002208DB0006248A117108A2005A
:1002B8007208A3000330A401A501A901A801A700A1
:1002C800E830A6006D238A11E9238A1125238A11B3
:1002D8002F08C3002E08C2004608AE004708AF002A
:1002E800B001B1014408A2004508A300A401A5017A
:1002F8004208A6004308A700A801A9016D238A1196
:10030800E9238A1125238A113108BF003008BE006D
:100318002F08BD002E08BC003F08031DA8293E0871
:10032800031DA82902303D02031D9C29EE303C0222
:100338000318A829F610F31308159D170530EE14B5
:10034800DE22FA30EA000800081683168E110E1213
:100358009130BC2983168E11831275131508013943
:10036800C100C0011408C00483168E110E12833018
:10037800831298007517080030301805BB00103A32
:100388000319AE290816B82983160C080319462A3A
:100398008312741CD52983168C01831208159D17A6
:1003A800462A6E08031DDA2908159D1383168C1F2B
:1003B800E1298C13FB238A11DE2A0C1FE7290C1371
:1003C800FB238A11DE2A8C1EF9298C1283126A08F3
:1003D800031D0800F001F610F313991208159D1774
:1003E8000430EE15DE228A11462A0C1D022A0C1151
:1003F80083120330F610DE228A11462A8C1C082A42
:100408008C1083129912462A0C1C462A0C104B3069
:100418008312D5000B30D6010A238A110C248A11C5
:10042800670B192ACD238A11272A02306706031D74
:10043800212A7108B6238A11272A03306706031D6B
:100448002C2AC1238A11B20025238A11D9238A11A3
:10045800F31F302AF2238A117318372A0930DE2253
:100468009D176E1608006E126E0803199D13EE1D77
:100478003F2A0430DE2A6E18432AEE1C462A9D13B2
:100488006E10EE1083160D08031908008D1D6D2AD5
:100498008D118312F31399120030F7228A116430F8
:1004A80070020318602AF517F6185C2A0630DE2257
:1004B8008A11D8248A11682A6430F000F513F618D6
:1004C800682A0830DE228A11741C882A0A307410BF
:1004D800862A0D1D7C2A0D110130F7228A11F51F7D
:1004E800882A6430F513F000F618882A0830862A1E
:1004F8000D1C882A0D100030F7228A11F513F61802
:10050800882A0730DE228A1183160D1E902A0D12C2
:100518009E1383127314962A8D1E962A8D129E1787
:100528008312731083160D1F08000D138312991E72
:1005380008004B30D5000B30D6010A238A110C2451
:100548008A11F31FB42A7108AE007208AF001B307D
:10055800B001B101B501B4007730B3004030C72A0B
:10056800670BB92ACD238A11C72A02306706031DF3
:10057800C12A7108B6238A11C72A03306706031DEA
:10058800CC2AC1238A11B20025238A11D9238A11C2
:10059800731C322A6E126E0803199D13EE1DD62A9B
:1005A8000430DE2A6E18DA2AEE1C08009D136E103D
:1005B800EE1008008312B900173075118A11E1276F
:1005C8008A11D301D4013908E300E2017614A0238B
:1005D8008A11112483126308AE00A630AF018A1174
:1005E80007268A15722D8312A20022080319FE2AF3
:1005F800220B08008F17831692178312221C072BD1
:1006080083161717092B83161713022CA5008F17AB
:10061800831698149A0183122508831699001814D2
:100628001818142B98101B088312A700A60183160C
:100638001C088312A6048F132708A3002608A2000B
:100648000800B601B701B801B901310830042F0418
:100658002E040319642BBA01BA0AB11B392B0310F3
:10066800AE0DAF0DB00DB10D302B0310B60DB70D9B
:10067800B80DB90D31083502031D4C2B3008340272
:10068800031D4C2B2F083302031D4C2B2E0832025E
:10069800031C5E2B2E08B2022F08031C2F0FB30277
:1006A8003008031C300FB4023108031C310FB502A7
:1006B80036140310B10CB00CAF0CAE0CBA0B392BBE
:1006C8003908B1003808B0003708AF003608AE0066
:1006D8000800AA01AB01AC01AD01221C872B26083A
:1006E800AA07270803110318013E031DAB072808B2
:1006F80003110318013E031DAC0729080311031851
:10070800013E031DAD070310A60DA70DA80DA90DE9
:100718000310A50CA40CA30CA20C25082404230484
:100728002204031D712B2D08A5002C08A4002B08FA
:10073800A3002A08A20008008F17831692170E122A
:100748000E08022C2E08BB002F08BC003008BD0084
:100758003108BE000310BE0CBD0CBC0CBB0C3B0822
:100768009E000800AE007208AF002C30B001B10145
:10077800B501B4004030B30020347108AE007208EF
:10078800AF002D30B001B101B501B400C630B300DF
:10079800C0347108AE007208AF002A30B001B10150
:1007A800B501B400B930B30080342E08BB002F085F
:1007B800BC003008BD003108BE000310BE0CBD0CE3
:1007C800BC0CBB0C3B089E0008002508B50024089B
:1007D800B4002308B3002208B2000800F313191765
:1007E800E830F5107510D1000330D20008008312EC
:1007F800F610F3139912FA30EA00053492138312B3
:100808008F130800AE005C08AF00B001B10108000A
:100818002308F2002208F1000800881583168610C4
:10082800831286148316111193130513AC309300A9
:1008380004309400831208168316111191100800D1
:10084800831255085604031D08006A08031D080092
:1008580069080319F6180800F51F761808008316AA
:10086800121908008312F51E402CF512AF258A11C3
:10087800E1248A116F08F0008B0108109B01881091
:100888000816831690158D1110140D1010130D13E2
:100898000F140C1090168D1210160D1210110D1148
:1008A8008F128C120F110C118F108C10E8308505E7
:1008B8008312850583168612831286128316930186
:1008C80011110E1183128811433083168800831288
:1008D8008E148F100608D500D601881364000730DF
:1008E80083169F0063000000B8258A11EE25831641
:1008F8001011101090110F104B308312D500D60133
:10090800881764000800F51BF618080083168E1D6A
:100918009B2C8E11303083121805C100103A031D2C
:100928009B2C15080139DE00DD011408DD04831253
:10093800761808005A3070020318B72CE1248A117F
:10094800D8248A116F0870020318B32CFC258A1169
:10095800700BB32C0815EE116E0803199D130630A1
:10096800EB018A11DE2A02268A11C7208A1110306B
:100978003C02693003193B020318C72C0C30EB0A00
:100988006B02031CCA2CFC258A11EB01643070022F
:10099800031CD42C6430F0000830F5138A11DE2AC9
:1009A800D82406308A11DE2A181083168E11831275
:1009B8000816903098001814080002268A11C720DB
:1009C8008A113B08CB003C08CC008030CD01CE0119
:1009D800CB07F3300318F430CC07FF30031CCD07E6
:1009E800031CCE074E08031DAD2D4D08031DAD2D6C
:1009F80007304C02031D022DD0304B020318AD2DD9
:100A08004E08031D122D4D08031D122D02304C02F5
:100A1800031D102DEF304B02031C1D2DEE30F1008D
:100A28000230F200AA30DB000A30DC01EF005A3055
:100A3800362D4E08031D2B2D4D08031D2B2D01307F
:100A48004C02031D292DC3304B02031C382DC23024
:100A5800F1000130F2002C30DB000130DC005030B6
:100A6800EF000A30ED00582D4E08031D452D4D08A6
:100A7800031D452D4C08031D452D65304B02031CF5
:100A8800512D6430F1005E30F201DB000130DC00F2
:100A98000930EF00ED01ED0A582DF101F201DB01FB
:100AA800DB0ADC01EF01ED014E08A5004D08A400AA
:100AB8004C08A3004B08A2007108BD007208BE00D4
:100AC800BF01C0013D08A2023E08031C3E0FA3025D
:100AD8003F08031C3F0FA4024008031C400FA50257
:100AE8006F08A600A701A801A9018A116D238A1120
:100AF8002508CE002408CD002308CC002208CB000E
:100B08005B088A1106248A114E08B5004D08B40006
:100B18004C08B3004B08B2008A1125238A1131080A
:100B2800CE003008CD002F08CC002E08CB006D0871
:100B3800CB0701300318CC070318CD070318CE07DD
:100B48004B08EF0064306F02031C08006430EF00AC
:100B58000800EF010800081690309800C125230806
:100B6800DE002208DD0008008312081407308B001D
:100B78007D30890081010E1008000430F101F20176
:100B8800EF016F020318DC2D181483168E1DC92D72
:100B98008E11013083121505A4001408F1070318FB
:100BA800F20A2408F2070430EF0A6F02031CC82D6A
:100BB8007208A5007108A4000310A50CA40C03106A
:100BC800A50CA40C2408F1002508F200A300710864
:100BD800A200080088148D018C019101F930900061
:100BE800E3309B00F0309C051C080E15E801080056
:100BF8006B30F00AD9000530DA0008005E08BC0046
:100C08005D08BB000800B5002E30B200831235081D
:100C1800B50A84008A1500208A11B800380803191B
:100C28000800253A03191C2E38088C268A110A2E2A
:100C3800B3013508B50A84008A1500208A11B80066
:100C4800003A03198B2E643A03192E2E0D3A031914
:100C58002E2E0A2E3208840083130008B600840A58
:100C68000008B700B20AB20AB71F412E0330B30416
:100C7800B609B709B60A0319B70AB801B80A0310C2
:100C8800380D0D3E84008A1500208A11B0008A159F
:100C980000208A11B1003702031D542E3008360295
:100CA800031C5B2E0530B80A3806031D432E330893
:100CB80003390319622E2D308C268A1183123808C5
:100CC800B400862E0A30A900AA010310340D0D3E87
:100CD80084008A1500208A11A2008A1500208A1132
:100CE800A3003708A5003608A400B0268A112308F7
:100CF800AC002208AB00DA268A112908303EB80079
:100D08008C268A118312B403340F662E0A2E08002B
:100D1800A200831613168312220883169600FF304A
:100D28008312A3009D2E8312A303230F9C2EA02EB3
:100D3800000083168E1C972EFF308312A300AA2E64
:100D48008312A303230FA92EAD2E000083161318B8
:100D5800A42E831613120800A601A7012208230453
:100D68000319D52EA801A80AA31BBE2E0310A20D95
:100D7800A30DB72E0310A60DA70D23082502031DEA
:100D8800C72E22082402031CD12E2208A4022308FD
:100D9800031CA503A50226140310A30CA20CA80B80
:100DA800BE2E2708A3002608A200080029082A0446
:100DB8000319F92EAD01AD0AAA1BE62E0310A90DE1
:100DC800AA0DDF2E2A082C02031DEC2E29082B025F
:100DD800031CF52E2908AB022A08031CAC03AC023D
:100DE8000310AA0CA90CAD0BE62E2C08AA002B08A0
:100DF800A90008005308540403190E2F530A1F3082
:100E08000319540603190E2F0130D3020030031CB6
:100E1800D403D402761C080053085404031D0800A8
:100E2800662FD2278A1500208A11A500E20AD22748
:100E38008A1500208A11D9278A11882FD2278A1566
:100E480000208A11A500E20AD2278A1500208A11FB
:100E5800D9278A1117307511E1270800D2278A157A
:100E680000208A11A500E20AD2278A1500208A11DB
:100E7800D927FF30E400E500E60075150800D22701
:100E88008A1500208A11A500E20AD2278A150020B7
:100E98008A11D9278A11D2278A150020E600E20A8A
:100EA8000800D2278A150020E100E20A6208E00063
:100EB8000800E103031908006008E2000800173081
:100EC80076102F2F6308A03E84006208E20A83137D
:100ED800000784008A1500208A11083A0319152F83
:100EE800023A0319222F013A0319322F073A03193C
:100EF800432F1C3A0319552F013A03195D2F913AD4
:100F08000319632F872F0800D2278A1500208A111A
:100F1800A200E20AD2278A1500208A11A400E20A58
:100F28002208E600FA302406031D9C2F7008A72F1C
:100F3800FB302406031DA22F6C08A72FFC302406C3
:100F4800031DA82F6708A4006430A3012402031C12
:100F5800BA2F0330E604013084008A1500208A1174
:100F6800E5000130CC2F0A30A402A30A0A3024027B
:100F78000318B72F2308031DC32F0A30A300230823
:100F8800013E84008A1500208A11E5002408013EEC
:100F980084008A150020E400751508006308A03E47
:100FA80084006208000784000800A600E20A2508F9
:100FB800D400D3012608D3040800831685048312BD
:100FC8008504831686168312861608007E088A0012
:100FD8007F088200EA278A118000840A04087D06B7
:0C0FE80003190034FF0A0319FE0AEE2F63
:1010000008308A000408840A820700343F3406341A
:101010005B344F3466346D347D3407347F346F3441
:101020000034FF34013400340A34003464340034B2
:10103000E834033410342734083400347D34083461
:101040000634083400347D34083405340834003460
:101050007D3408340434083400347D3408340334D7
:10106000083400347D3408340234083400348934C0
:1010700008340134803408340134F4341434FA343C
:1010800008340134F4340034FC3408340134F434CA
:101090001834FB34803410340834083400341934E4
:1010A0001034FA340834003419341434FA34113456
:1010B0008034103402340A34003419340B340034D0
:1010C000193411348034103408340A34003419349B
:1010D0000B340034193411348034103403340A349E
:1010E000003419340B340034193411348034103482
:1010F0000A340A34003419340B34003419341134EE
:101100008034103406340A34003419340B3400347B
:1011100019341134803408340034FA341434FA3475
:10112000803408340134F4340034FC34803408341E
:101130000434E2341434FA34803408340434E234AD
:101140001434FA3480340A340034013480340B34DB
:1011500000347D34803446345F3450346C34613430
:1011600079344C3469346734683474342C3425341D
:0811700064340D340A3400342C
:101A9C0064008001840A04060319003404064F2DE7
:101AAC0017308316850083128500E3308316860079
:101ABC0063308312860083169E010800A23498348A
:101ACC0036347C3446347234923468349E345E340A
:101ADC00543417348C34863406308312A3003030DF
:101AEC00A200A20B772DA30B772D83128F178316D1
:101AFC0092170E168A11022C0E180F1C872D0F1020
:101B0C000E100E190F1D912D0F1175166808E80A8D
:101B1C000F390319F5158E188F1C952D8F10210870
:101B2C008A00200E8300FE0E7E0E0900A3002308FF
:101B3C000319A72D230803190800043023020318E6
:101B4C0008008F1783169217F3309505831223081C
:101B5C00A20001300310A20DFF3E0310031DB12D96
:101B6C00220D831695048A11022CF61C0800191FED
:101B7C00CD2D510852040319CD2D0130D102003066
:101B8C00031CD203D20251085204031999175908A5
:101B9C005A040319D72D0130D9020030031CDA0383
:101BAC00DA0259085A04031DE22D6B30D9000530B6
:101BBC00DA006C08031DEC03570858040319EC2DCC
:101BCC000130D7020030031CD803D8025708580440
:101BDC00031D0800023070020318F0037130D700A7
:101BEC000230D800A3017008A2000A302202031CA4
:101BFC00032E0A30A202A30AFB2D2308031D082E74
:101C0C000A30A3002308013E84008A1500208A159F
:101C1C00E5002208013E84008A150020E40008003B
:101C2C008A1556258A158A11B8258A158A11EE252A
:101C3C008A158A118E208A1503308312CA00083047
:101C4C00C9007630C800C80B292EC90B292ECA0B27
:101C5C00292E302E64308312EC006B30D900053005
:101C6C00DA008A11AF258A158A11E1248A156F08CA
:101C7C00F0007130D7000230D80083161218921879
:101C8C00522E83120630F51774108A11DE228A1533
:101C9C008A11D8248A15572E00308A11DE228A1513
:101CAC007414FA30F516D500E130D601EE01831626
:101CBC00890083128817F51075108E176400831233
:101CCC00751E7A2E173075128A11E1278A15731733
:101CDC007519731F742E8A1531278A158A112B20BA
:101CEC008A158A111F218A158312F51D9A2EF5115A
:101CFC008A15A1268A158A15BB258A158A11FE26F6
:101D0C008A158A1187248A15550856040319942EAE
:101D1C000130D5020030031CD603D6026A08031D1D
:101D2C00EA036908031DE9038A11C8218A158A117F
:101D3C0024248A15642E7413F41B74178312F41361
:101D4C00061BF4178312741FAD2E0130AE2E00301B
:101D5C00BF00F41FB32E0130B42E00303F06031920
:101D6C00BA2E0430F900FB2E79080319FB2EF90367
:101D7C007908031DFB2EF412F41FC52EF4168312E2
:101D8C00741ECA2E0130CB2E0030BF00F41ED02E94
:101D9C000130D12E00303F060319D72E8312F414D4
:101DAC00D92E8312F410F411F418F41EDE2EF4154F
:101DBC007411F418741EE32E74157412F41A74163C
:101DCC008312F4199912741DFB2E4B30D500D601D9
:101DDC00741C991669080319DF013E30DF0AE9000B
:101DEC00F31FFB2E8A11F2238A1500278A11EA2091
:101DFC008A150E2F6908031D080005305F02031CAD
:101E0C0008000130DF01F40699120A308A11DE2A2B
:101E1C0069080319F31B202F741CF41E202F0230A9
:101E2C005F06031D202FDF01F3179916EE30CF004C
:101E3C000230D000F31F08004F08500403190800AB
:101E4C000130CF020030031CD003D0024F085004E5
:101E5C00031999120800F70A7313E52F6418392F28
:101E6C00831605153B2F8316051183126419412F18
:101E7C0083168514432F831685108312641A492FF9
:101E8C00831605144B2F8316051083126619512FD8
:101E9C0083168616532F831686120512831205128B
:101EAC000800E4185C2F831605165E2F83160512A6
:101EBC0083126518642F83168514662F831685107C
:101ECC008312E6186C2F831605146E2F83160510DB
:101EDC008312E619742F83168616762F83168612B4
:101EEC000511831205110800E4197F2F83160516BE
:101EFC00812F831605128312E518872F831605157B
:101F0C00892F83160511831266188F2F83160514DB
:101F1C00912F831605108312661A972F8316861637
:101F2C00992F831686128510831285100800E41AE7
:101F3C00A22F83160516A42F831605128312E519FA
:101F4C00AA2F83160515AC2F83160511831265195C
:101F5C00B22F83168514B42F831685108312E61ABC
:101F6C00BA2F83168616BC2F831686120510831281
:101F7C0005100800641BC52F83160516C72F831682
:101F8C0005128312651ACD2F83160515CF2F8316D4
:101F9C0005118312E51AD52F83168514D72F8316B6
:101FAC0085108312651BDD2F83160514DF2F831616
:101FBC000510861283128612FF30F700080077088E
:101FCC00003A0319342F013A0319572F033A031916
:101FDC007A2F013A03199D2F073A0319C02FE22FCC
:021FEC000800EB
:0A400000FD3FD53F293F773F283FE1
:00000001FF
