:040000008A110C282D
:10000800FE00030E8312A0000A08A1008A15822EA2
:100018008A110E28AE308313FD000E30FE006430C6
:10002800FF00A03084008A1576268A11FF30F70079
:100038000430F800F9004B30840073308A154E26DE
:10004800F301F401F501F60183018A159C2E0816C7
:1000580083168E018D018C0190168D1210160D12CB
:100068009E1783127313831610130D1383128812AD
:100078000815003063208A110230E7000B30932501
:100088008A112308F2002208F1003D268A11B200E5
:10009800AE252E08BB002F08BC003008BD00310873
:1000A800BE000310BE0CBD0CBC0CBB0C3B089E0074
:1000B8009D1383168F138C130F130C130800A300C2
:1000C800230803196E2823080319080004302302A3
:1000D800031808008F1783169217F33095058312BB
:1000E8002308A20001300310A20DFF3E0310031DD8
:1000F8007828220D83169504AE2E7312F518731600
:100108008312F5149D1BF510831612198D2883127E
:10011800F5108312731E9228013093280030A30033
:10012800F51C9828013099280030230603199F28C8
:100138000230F8000800780803190800F803780866
:10014800031D0800F311F518F3158312751CAE286A
:100158000130AF280030A300F31DB4280130B528C2
:10016800003023060319BB2883127314BD28831299
:10017800731073117318F31DC2287315F3107318D5
:10018800751CC728F3147510F31975148312731DA1
:10019800D628F6147513F31FD3280B30D428013052
:1001A80074258A11F31C080099121913F61C08000B
:1001B800F610F31FE2280D30F313742D0230742D5E
:1001C800831255085604031D08006A08031D080019
:1001D80069080319F6180800F51F76180800831631
:1001E800121908008312F51E0029F512B7228A1188
:1001F800EC218A116F08F0008B0108109B01881010
:100208000816831690158D1110140D1010130D1368
:100218000F140C1090168D1210160D1210110D11CE
:100228008F128C120F110C118F108C10E83085056D
:10023800831285058316861283128612831693010C
:1002480011110E118312881143308316880083120E
:100258008E148F100608D500D60188136400073065
:1002680083169F0063000000C0228A112F26831680
:100278001011101090110F104B308312D500D601B9
:10028800881764000800F51BF618080083168E1DF1
:100298005B298E11303083121805C100103A031DF6
:1002A8005B2915080139DE00DD011408DD0483121D
:1002B800761808005A30700203187629EC218A1142
:1002C800F6258A116F08700203187329A3268A116C
:1002D800700B73290815EE116E0803199D1306306B
:1002E800EB01742DA9268A1196218A1110303C023F
:1002F800693003193B02031886290C30EB0A6B029C
:10030800031C8929A3268A11EB0164307002031C9F
:1003180092296430F0000830F513742DF6258A11FF
:100328000630742D0A3093258A112308F20022081A
:10033800F1000330B101B001AF00E830AE003B0876
:10034800A2003C08A300A401A5017108A600720838
:10035800A700A801A901B9218A1180268A11AE2512
:100368002F08BC002E08BB000800AA01AB01AC0195
:10037800AD01221CD3292608AA0727080311031850
:10038800013E031DAB07280803110318013E031D96
:10039800AC07290803110318013E031DAD0703101C
:1003A800A60DA70DA80DA90D0310A50CA40CA30C50
:1003B800A20C2508240423042204031DBD292D08AA
:1003C800A5002C08A4002B08A3002A08A2000800F6
:1003D800A9268A1196218A113B08CB003C08CC003B
:1003E8008030CD01CE01CB07F3300318F430CC07B1
:1003F800FF30031CCD07031CCE074E08031DB52A8A
:100408004D08031DB52A07304C02031D0D2AD030B4
:100418004B020318B52A4E08031D1D2A4D08031D5B
:100428001D2A02304C02031D1B2AEF304B02031C0D
:10043800282AEE30F1000230F200AA30DB000A3040
:10044800DC01EF005A30412A4E08031D362A4D08B8
:10045800031D362A01304C02031D342AC3304B02D7
:10046800031C432AC230F1000130F2002C30DB00BB
:100478000130DC005030EF000A30ED00632A4E08EE
:10048800031D502A4D08031D502A4C08031D502AED
:1004980065304B02031C5C2A6430F1005E30F201C7
:1004A800DB000130DC000930EF00ED01ED0A632AC2
:1004B800F101F201DB01DB0ADC01EF01ED014E087D
:1004C800A5004D08A4004C08A3004B08A200710821
:1004D800BD007208BE00BF01C0013D08A2023E086F
:1004E800031C3E0FA3023F08031C3F0FA402400851
:1004F800031C400FA5026F08A600A701A801A901C7
:10050800B9218A112508CE002408CD002308CC0083
:100518002208CB005B089D268A114E08B5004D08BD
:10052800B4004C08B3004B08B200AE258A1131085C
:10053800CE003008CD002F08CC002E08CB006D0867
:10054800CB0701300318CC070318CD070318CE07D3
:100558004B08EF0064306F02031C08006430EF00A2
:100568000800EF010800081690309800C9222308F7
:10057800DE002208DD0008008312081407308B0013
:100588007D30890081010E1008000430F101F2016C
:10059800EF016F020318E42A181483168E1DD12A5E
:1005A8008E11013083121505A4001408F1070318F1
:1005B800F20A2408F2070430EF0A6F02031CD02A5B
:1005C8007208A5007108A4000310A50CA40C031060
:1005D800A50CA40C2408F1002508F200A30071085A
:1005E800A20008007413F41B74178312F413061B7B
:1005F800F4178312741F022B0130032B0030BF0045
:10060800F41F082B0130092B00303F0603190F2B6C
:100618000430F9007A2B790803197A2BF903790841
:10062800031D7A2BF412F41F1A2BF4168312741E6E
:100638001F2B0130202B0030BF00F41E252B01306A
:10064800262B00303F0603192C2B8312F4142E2B73
:100658008312F410F411F418F41E332BF4157411EA
:10066800F418741E382B74157412F41A7416831245
:10067800F4199912741D7A2B4B30D500D601741CCD
:10068800991669080319DF013E30DF0AE900F31FF4
:100698007A2B0B30F31393258A1198268A11670B4E
:1006A800582B54268A11662B02306706031D602BCF
:1006B80071083D268A11662B03306706031D782BC7
:1006C80048268A11B200AE258A112E08BF002F08CD
:1006D800C0003008C1003108C2000310C20CC10CB0
:1006E800C00CBF0C3F089E0089268A11FF258A117D
:1006F8007F238A110C2E6908031D080003305F064A
:100708000319741808000430DF01E70A6702031CA4
:100718008F2BE701E70A0C3074258A110B309325DB
:100728008A1198268A11670B9F2B54268A11B200CA
:10073800AE258A11602E02306706031DAA2B7108A8
:100748003D268A11B200AE258A11602E0330670655
:10075800031D080048268A11B200AE258A11602EB2
:10076800F61C0800751F5B2C83168E1D080083126B
:1007780018083039031D552C83168E110E1283125A
:10078800751315080139C500C4011408C4041708F5
:100798000139C700C6011608C604003047023230C6
:1007A80003194602031C3D2C00304502333003195F
:1007B8004402031C3D2C0B3093258A112308F200B8
:1007C8002208F1000D3093258A112308DC00220845
:1007D800DB009D268A117108A2007208A30003306D
:1007E800A401A501A901A801A700E830A600B92124
:1007F8008A1180268A11AE258A112F08C3002E0877
:10080800C2004608AE004708AF00B001B101440875
:10081800A2004508A300A401A5014208A6004308B8
:10082800A700A801A901B9218A1180268A11AE253D
:100838008A113108BF003008BE002F08BD002E08FD
:10084800BC003F08031D3D2C3E08031D3D2C023013
:100858003D02031D312CEE303C0203183D2CF610EE
:10086800F31308159D170530EE147425FA30EA00C5
:100878000800081683168E110E129130512C83161B
:100888008E118312751315080139C100C0011408AF
:10089800C00483168E110E128330831298007517C8
:1008A800080030301805BB00103A0319432C08160D
:1008B8004D2C83160C080319DC2C8312741C6A2C2B
:1008C80083168C01831208159D17DC2C6E08031DF6
:1008D8006F2C08159D1383168C1F762C8C1391266C
:1008E8008A11742D0C1F7C2C0C1391268A11742DDF
:1008F8008C1E8E2C8C1283126A08031D0800F001CE
:10090800F610F313991208159D170430EE15742587
:100918008A11DC2C0C1D972C0C1183120330F61055
:1009280074258A11DC2C8C1C9D2C8C108312991236
:10093800DC2C0C1CDC2C0C104B308312D5000B303B
:10094800D60193258A1198268A11670BAE2C542656
:100958008A11BC2C02306706031DB62C71083D268F
:100968008A11BC2C03306706031DC12C48268A1146
:10097800B200AE258A1170268A11F31FC62CF31314
:1009880089268A11731BCD2C093074259D176E1684
:1009980008006E126E0803199D13EE1DD52C043045
:1009A800742D6E18D92CEE1CDC2C9D136E10EE10D5
:1009B80083160D08031908008D1D032D8D11831250
:1009C800F3139912003080258A11643070020318DD
:1009D800F62CF517F618F32C063074258A11F6252F
:1009E8008A11FE2C6430F000F513F618FE2C08303E
:1009F80074258A11741C1E2D0A3074101C2D0D1DAF
:100A0800122D0D11013080258A11F51F1E2D64301D
:100A1800F513F000F6181E2D08301C2D0D1C1E2D88
:100A28000D10003080258A11F513F6181E2D073099
:100A380074258A1183160D1E262D0D129E138312FE
:100A480073172C2D8D1E2C2D8D129E178312731348
:100A580083160D1F08000D138312991E08004B30D2
:100A6800D5000B30D60193258A1198268A11F31FD9
:100A78004A2D7108AE007208AF001B30B001B101F9
:100A8800B501B4007730B30040305D2D670B4F2DB2
:100A980054268A115D2D02306706031D572D7108F3
:100AA8003D268A115D2D03306706031D622D4826F9
:100AB8008A11B200AE258A1170268A11731FC82CBC
:100AC8006E126E0803199D13EE1D6C2D0430742DE3
:100AD8006E18702DEE1C08009D136E10EE100800A5
:100AE8008312A200173075119527D301D40122086B
:100AF800E300E201761408008312A2002208031919
:100B0800872D220B08008F17831692178312221C39
:100B1800902D83161717922D83161713AE2EA50046
:100B28008F17831698149A01831225088316990043
:100B3800181418189D2D98101B088312A700A601D9
:100B480083161C088312A6048F132708A3002608FF
:100B5800A2000800B601B701B801B9013108300494
:100B68002F042E040319ED2DBA01BA0AB11BC22DA8
:100B78000310AE0DAF0DB00DB10DB92D0310B60DAC
:100B8800B70DB80DB90D31083502031DD52D300844
:100B98003402031DD52D2F083302031DD52D2E0831
:100BA8003202031CE72D2E08B2022F08031C2F0F58
:100BB800B3023008031C300FB4023108031C310F94
:100BC800B50236140310B10CB00CAF0CAE0CBA0B56
:100BD800C22D3908B1003808B0003708AF00360810
:100BE800AE000800181083168E1183120816903074
:100BF8009800181408006908031D080005305F02F2
:100C0800031C08000130DF01F40699120A30742D24
:100C180069080319F31B1E2E741CF41E1E2E0230C5
:100C28005F06031D1E2EDF01F3179916EE30CF0065
:100C38000230D000F31F08004F08500403190800C1
:100C48000130CF020030031CD003D0024F085004FB
:100C580003199912080088148D018C019101F9304B
:100C68009000E3309B00F0309C051C080E15E8014D
:100C78000800AE007208AF002C30B001B101B50118
:100C8800B4004030B30020347108AE007208AF00E1
:100C98002D30B001B101B501B400C630B300C03485
:100CA8007108AE007208AF002A30B001B101B50179
:100CB800B400B930B30080342E08BB002F08BC0044
:100CC8003008BD003108BE000310BE0CBD0CBC0CC2
:100CD800BB0C3B089E0008002E08BB002F08BC0078
:100CE8003008BD003108BE000310BE0CBD0CBC0CA2
:100CF800BB0C3B089E0008002508B5002408B4007A
:100D08002308B3002208B20008001917E830F510CC
:100D18007510D1000330D20008008312F610F313C7
:100D28009912FA30EA0005342308F2002208F1008B
:100D38000800AE005C08AF00B001B10108006B30DC
:100D4800F00AD9000530DA0008005E08BC005D082A
:100D5800BB000800921383128F1308005308540431
:100D68000319C22E530A1F30031954060319C22E41
:100D78000130D3020030031CD403D402761C0800CF
:100D880053085404031D08001A2F86278A150020CB
:100D98008A11A500E20A86278A1500208A118D2764
:100DA8008A113C2F86278A1500208A11A500E20A9D
:100DB80086278A1500208A118D278A111730751108
:100DC8009527080086278A1500208A11A500E20ABF
:100DD80086278A1500208A118D27FF30E400E50058
:100DE800E6007515080086278A1500208A11A500D7
:100DF800E20A86278A1500208A118D278A118627FC
:100E08008A150020E600E20A080086278A150020D5
:100E1800E100E20A6208E0000800E10303190800A3
:100E28006008E200080017307610E32E6308A03E41
:100E380084006208E20A8313000784008A150020F0
:100E48008A11083A0319C92E023A0319D62E013A13
:100E58000319E62E073A0319F72E1C3A0319092F2E
:100E6800013A0319112F913A0319172F3B2F080044
:100E780086278A1500208A11A200E20A86278A1589
:100E880000208A11A400E20A2208E600FA302406AB
:100E9800031D502F70085B2FFB302406031D562FAF
:100EA8006C085B2FFC302406031D5C2F6708A40028
:100EB8006430A3012402031C6E2F0330E6040130C2
:100EC80084008A1500208A11E5000130802F0A303D
:100ED800A402A30A0A30240203186B2F2308031D57
:100EE800772F0A30A3002308013E84008A150020CA
:100EF8008A11E5002408013E84008A150020E400D8
:100F0800751508006308A03E840062080007840085
:100F18000800A600E20A2508D400D3012608D30455
:100F280008008316850483128504831686168312A7
:100F380086160800F61C0800191FB02F5108520425
:100F48000319B02F0130D1020030031CD203D202A2
:100F5800510852040319991759085A040319BA2F4A
:100F68000130D9020030031CDA03DA0259085A04A6
:100F7800031DC52F6B30D9000530DA006C08031D3E
:100F8800EC03570858040319CF2F0130D70200305B
:100F9800031CD803D80257085804031D0800023060
:100FA80070020318F0037130D7000230D800F31B29
:100FB8000800A3017008A2000A302202031CE82FCF
:100FC8000A30A202A30AE02F2308031DED2F0A30DE
:100FD800A3002308013E84008A1500208A11E50039
:0E0FE8002208013E84008A150020E400080063
:1010000008308A000408840A820700343F3406341A
:101010005B344F3466346D347D3407347F346F3441
:101020000034FF34083400347D3408340634083486
:1010300000347D3408340534083400347D340834F9
:101040000434083400347D34083403340834003464
:101050007D340834023408340034893408340134CF
:10106000803408340134F4341434FA34083401344C
:10107000F4340034FC3408340134F4341834FB34D0
:101080008034103408340A340034193408340034FD
:1010900019341434FA3411348034103402340A34DC
:1010A000003419340B3400341934113480341034C2
:1010B00008340A34003419340B3400341934113430
:1010C0008034103403340A34003419340B340034BF
:1010D00019341134803410340A340A340034193489
:1010E0000B340034193411348034103406340A348B
:1010F000003419340B34003419341134803408347A
:101100000034FA341434FA34803408340134F434BA
:101110000034FC34803408340034FA341434FA34A3
:10112000803408340434E2341434FA34803408341B
:101130000434E2341434FA3480340B3400347D3413
:021140008034F9
:101C9C0064008001840A04060319003404064F2EE4
:101CAC0017308316850083128500E3308316860077
:101CBC0063308312860083169E0108009834923498
:101CCC002C3470343C3466348C345C34863452346A
:101CDC0048340D3480347A347E088A007F088200C0
:101CEC0072268A158000840A04087D0603190034C4
:101CFC00FF0A0319FE0A762E0E180F1C872E0F10E2
:101D0C000E100E190F1D912E0F1175166808E80A8A
:101D1C000F390319F5158E188F1C952E8F1021086D
:101D2C008A00200E8300FE0E7E0E09008A155626B0
:101D3C008A158A11C0228A158A112F268A158A11B2
:101D4C002B208A1503308312CA000830C900763064
:101D5C00C800C80BAF2EC90BAF2ECA0BAF2EB62EB8
:101D6C0064308312EC006B30D9000530DA008A1134
:101D7C00B7228A158A11EC218A156F08F000713090
:101D8C00D7000230D800831612189218D82E83125E
:101D9C000630F51774108A1174258A158A11F625E8
:101DAC008A15DD2E00308A1174258A157414FA30C8
:101DBC00F516D500E130D601EE01831689008312A9
:101DCC008817F5107510191EEF2E731783169E13B6
:101DDC00F22E731383169E1783128E1764008312D0
:101DEC00751E0A2F173075128A1195278A15F3164E
:101DFC007519F31E042F8A1531278A158A11812033
:101E0C008A158A11B4238A158312F51D2A2FF51110
:101E1C008A11F6228A158A119E278A158A11B226F2
:101E2C008A158A1147218A15550856040319242F3F
:101E3C000130D5020030031CD603D6026A08031DFC
:101E4C00EA036908031DE9038A115D248A158A11C6
:101E5C00E4208A15F42EF70AF312E52F6418392FB3
:101E6C00831605153B2F8316051183126419412F18
:101E7C0083168514432F831685108312641A492FF9
:101E8C00831605144B2F8316051083126619512FD8
:101E9C0083168616532F831686120512831205128B
:101EAC000800E4185C2F831605165E2F83160512A6
:101EBC0083126518642F83168514662F831685107C
:101ECC008312E6186C2F831605146E2F83160510DB
:101EDC008312E619742F83168616762F83168612B4
:101EEC000511831205110800E4197F2F83160516BE
:101EFC00812F831605128312E518872F831605157B
:101F0C00892F83160511831266188F2F83160514DB
:101F1C00912F831605108312661A972F8316861637
:101F2C00992F831686128510831285100800E41AE7
:101F3C00A22F83160516A42F831605128312E519FA
:101F4C00AA2F83160515AC2F83160511831265195C
:101F5C00B22F83168514B42F831685108312E61ABC
:101F6C00BA2F83168616BC2F831686120510831281
:101F7C0005100800641BC52F83160516C72F831682
:101F8C0005128312651ACD2F83160515CF2F8316D4
:101F9C0005118312E51AD52F83168514D72F8316B6
:101FAC0085108312651BDD2F83160514DF2F831616
:101FBC000510861283128612FF30F700080077088E
:101FCC00003A0319342F013A0319572F033A031916
:101FDC007A2F013A03199D2F073A0319C02FE22FCC
:021FEC000800EB
:0A400000FD3FD53F293F773F283FE1
:00000001FF
