:040000008A110C282D
:10000800FE00030E8312A0000A08A1008A11D32F54
:100018008A110E28AE308313FD000E30FE00AB307F
:10002800FF00A03084008A11F1278A11FF30F70001
:100038000430F800F9004B30840073308A15952697
:10004800F301F401F501F60183018A156C2F0A30DA
:10005800F5228A112308F2002208F1000330B101C9
:10006800B001AF00E830AE003B08A2003C08A30096
:10007800A401A5017108A6007208A700A801A9019A
:1000880058238A11A6238A1110232F08BC002E0892
:10009800BB0008006908031D080003305F06031948
:1000A800F41808000430DF01E70A6702031C5E2821
:1000B800E701E70A0C30D5228A110B30F5228A11A4
:1000C800DC238A11670B6E28BB238A11B200102328
:1000D8008A118B2B02306706031D792871089B2330
:1000E8008A11B20010238A118B2B03306706031D77
:1000F8000800AF238A11B20010238A118B2BF61C3B
:100108000800751F2A2983168E1D080083121808F7
:100118003039031D242983168E110E12831275138C
:1001280015080139C500C4011408C40417080139A9
:10013800C700C6011608C60400304702323003194A
:100148004602031C0C2900304502333003194402CF
:10015800031C0C290B30F5228A112308F20022080F
:10016800F1000D30F5228A112308DC002208DB009B
:10017800D2238A117108A2007208A3000330A401D7
:10018800A501A901A801A700E830A60058238A11F3
:10019800A6238A1110238A112F08C3002E08C20033
:1001A8004608AE004708AF00B001B1014408A200FC
:1001B8004508A300A401A5014208A6004308A7001A
:1001C800A801A90158238A11A6238A1110238A118C
:1001D8003108BF003008BE002F08BD002E08BC0043
:1001E8003F08031D0C293E08031D0C2902303D025F
:1001F800031D0029EE303C0203180C29F610741078
:1002080008159D170530EE14D522FA30EA000800CB
:10021800081683168E110E129130202983168E111E
:100228008312751315080139C100C0011408C004F0
:1002380083168E110E1283308312980075170800EA
:1002480030301805BB00103A0319122908161C296A
:10025800F4137518F41783127510061B751483129E
:10026800F41F3829013039290030BF00751C3E2998
:1002780001303F2900303F06031945290430F900B1
:100288008D29790803198D29F9037908031D8D290A
:100298007413751C502974178312F41E55290130E4
:1002A80056290030BF00741F5B2901305C290030DB
:1002B8003F06031962298312741564298312741185
:1002C80074127419741F69297416F4117419F41EC0
:1002D8006E29F415F412741BF4168312F41D8D297B
:1002E8004B30D500D60169080319DF013E30DF0A1B
:1002F800E90005305F06031D86290230F4060A303E
:10030800D5228A11741C8D29741099120D30D522AA
:100318008A114E208A119029690803197418E02956
:10032800F418E02902305F06031DE029DF01F51803
:10033800A3290930D52208159D176E1608006E12DC
:100348006E08031DA92908159D13EE1DAD2904305B
:10035800D52A6E18B129EE1CB52908159D136E1003
:10036800EE1074149916EE30D1000230D2000B3022
:10037800F5228A11C7238A11AE007208AF001B301C
:10038800B001B101B501B4007730B3004030B2001C
:1003980010238A112E08BB002F08BC003008BD00AE
:1003A8003108BE000310BE0CBD0CBC0CBB0C3B08D6
:1003B8009E000B30D5228A11741C08005108520483
:1003C800031908000130D1020030031CD203D20205
:1003D80051085204031D0800741099120D30D52AD3
:1003E80083160C080319822A8312F41C012A831627
:1003F8008C01831208159D17822A6E08031D062A90
:1004080008159D1383168C1F0D2A8C13CC238A1173
:10041800D52A0C1F132A0C13CC238A11D52A8C1E1B
:10042800242A8C1283126A08031D0800F001F610B2
:10043800741008159D170430EE15D5228A11822AEA
:100448000C1D2D2A0C1183120330F610D5228A11A7
:10045800822A8C1C312A8C10822A0C1C822A0C10AD
:100468004B308312D5000B30D601F5228A11DC23DC
:100478008A11670B422ABB238A11502A0230670669
:10048800031D4A2A71089B238A11502A03306706E4
:10049800031D622AAF238A11B20010238A112E0885
:1004A800BB002F08BC003008BD003108BE00031097
:1004B800BE0CBD0CBC0CBB0C3B089E00741C6C2A0B
:1004C80074101917E8307313F313CF000330D000FA
:1004D800F518732A0930D5229D176E1608006E127A
:1004E8006E0803199D13EE1D7B2A0430D52A6E1859
:1004F8007F2AEE1C822A9D136E10EE1083160D08BB
:10050800031908008D1DA82A8D118312003074105C
:10051800E2228A116430700203189B2AF517F61834
:10052800972A0630D5228A1195248A11A32A643085
:10053800F000F513F618A32A0830D5228A11F41C06
:10054800C32A0A30F410C12A0D1DB72A0D11013033
:10055800E2228A11F51FC32A6430F513F000F61859
:10056800C32A0830C12A0D1CC32A0D100030E2220C
:100578008A11F513F618C32A0730D5228A11831673
:100588000D1ECB2A0D129E138312F514D12A8D1E2F
:10059800D12A8D129E178312F51083160D1B0D1389
:1005A80008008312A200173075118A11A726D301FB
:1005B800D4012208E300E201761408008312A200A5
:1005C80022080319E92A220B08008F1783169217AD
:1005D8008312221CF22A83161717F42A831617137C
:1005E800D82BA5008F17831698149A018312250813
:1005F8008316990018141818FF2A98101B088312DC
:10060800A700A60183161C088312A6048F132708C7
:10061800A3002608A2000800B601B701B801B90175
:10062800310830042F042E0403194F2BBA01BA0ADB
:10063800B11B242B0310AE0DAF0DB00DB10D1B2B4C
:100648000310B60DB70DB80DB90D31083502031DED
:10065800372B30083402031D372B2F083302031DB4
:10066800372B2E083202031C492B2E08B2022F0802
:10067800031C2F0FB3023008031C300FB4023108DB
:10068800031C310FB50236140310B10CB00CAF0CBB
:10069800AE0CBA0B242B3908B1003808B000370863
:1006A800AF003608AE000800AA01AB01AC01AD01ED
:1006B800221C722B2608AA07270803110318013EDB
:1006C800031DAB07280803110318013E031DAC07DF
:1006D800290803110318013E031DAD070310A60DD9
:1006E800A70DA80DA90D0310A50CA40CA30CA20C12
:1006F8002508240423042204031D5C2B2D08A500CF
:100708002C08A4002B08A3002A08A20008002E0821
:10071800BB002F08BC003008BD003108BE00031024
:10072800BE0CBD0CBC0CBB0C3B089E000800AE0008
:100738007208AF002C30B001B101B501B4004030EF
:10074800B30020342508B5002408B4002308B300FA
:100758002208B20008007108AE007208AF002D3000
:10076800B001B101B501B400C630B300C03471089E
:10077800AE007208AF002A30B001B101B501B40073
:10078800B930B30080342308F2002208F1000800D1
:100798008312FA30F6107410EA000534AE005C08D3
:1007A800AF00B001B1010800921383128F13080043
:1007B8002308F2002208F1000800831255085604A5
:1007C800031D08006A08031D080069080319F618C4
:1007D8000800F51F761808008316121908008312FE
:1007E800F51EFD2BF5126C258A119E248A116F08BF
:1007F800F0008B0108109B018810081683169015CD
:100808008D1110140D1010130D130F140C109016D9
:100818008D1210160D1210110D118F128C120F114E
:100828000C118F108C10E83085058312850583160E
:100838008612831286128316930111110E118312E8
:10084800881143308316880083128E148F1006088F
:10085800D500D60188136400073083169F00630013
:10086800000075258A11AB25831610111010901100
:100878000F104B308312D500D6018817640008008A
:10088800F51BF618080083168E1D582C8E11303073
:1008980083121805C100103A031D582C1508013998
:1008A800DE00DD011408DD048312761808005A30D2
:1008B80070020318742C9E248A1195248A116F08DB
:1008C80070020318702CB9258A11700B702C08154A
:1008D800EE116E0803199D130630EB018A11D52A13
:1008E800BF258A112B208A1110303C026930031968
:1008F8003B020318842C0C30EB0A6B02031C872C78
:10090800B9258A11EB0164307002031C912C643004
:10091800F0000830F5138A11D52A952406308A117B
:10092800D52A181083168E11831208169030980055
:1009380018140800BF258A112B208A113B08CB0008
:100948003C08CC008030CD01CE01CB07F330031832
:10095800F430CC07FF30031CCD07031CCE074E082C
:10096800031D6A2D4D08031D6A2D07304C02031D17
:10097800BF2CD0304B0203186A2D4E08031DCF2C14
:100988004D08031DCF2C02304C02031DCD2CEF3037
:100998004B02031CDA2CEE30F1000230F200AA30D0
:1009A800DB000A30DC01EF005A30F32C4E08031D3F
:1009B800E82C4D08031DE82C01304C02031DE62CE1
:1009C800C3304B02031CF52CC230F1000130F20099
:1009D8002C30DB000130DC005030EF000A30ED0035
:1009E800152D4E08031D022D4D08031D022D4C0820
:1009F800031D022D65304B02031C0E2D6430F100DF
:100A08005E30F201DB000130DC000930EF00ED015F
:100A1800ED0A152DF101F201DB01DB0ADC01EF0122
:100A2800ED014E08A5004D08A4004C08A3004B0892
:100A3800A2007108BD007208BE00BF01C0013D08D8
:100A4800A2023E08031C3E0FA3023F08031C3F0FEF
:100A5800A4024008031C400FA5026F08A600A701C6
:100A6800A801A9018A1158238A112508CE00240853
:100A7800CD002308CC002208CB005B088A11D223C2
:100A88008A114E08B5004D08B4004C08B3004B0855
:100A9800B2008A1110238A113108CE003008CD0027
:100AA8002F08CC002E08CB006D08CB0701300318A7
:100AB800CC070318CD070318CE074B08EF006430A6
:100AC8006F02031C08006430EF000800EF01080003
:100AD8000816903098007E252308DE002208DD00E5
:100AE80008008312081407308B007D3089008101CB
:100AF8000E1008000430F101F201EF016F02031833
:100B0800992D181483168E1D862D8E11013083128F
:100B18001505A4001408F1070318F20A2408F207BF
:100B28000430EF0A6F02031C852D7208A5007108B6
:100B3800A4000310A50CA40C0310A50CA40C2408F5
:100B4800F1002508F200A3007108A200080088142B
:100B58008D018C019101F9309000E3309B00F03059
:100B68009C051C080E15E80108006B30F00AD90036
:100B78000530DA0008005E08BC005D08BB0008000C
:100B8800530854040319D42D530A1F30031954066B
:100B98000319D42D0130D3020030031CD403D4022E
:100BA800761C080053085404031D08002C2E9826B0
:100BB8008A1500208A11A500E20A98268A150020C5
:100BC8008A119F268A114E2E98268A1500208A118E
:100BD800A500E20A98268A1500208A119F268A1104
:100BE80017307511A726080098268A1500208A1143
:100BF800A500E20A98268A1500208A119F26FF3050
:100C0800E400E500E6007515080098268A1500201E
:100C18008A11A500E20A98268A1500208A119F26C3
:100C28008A1198268A150020E600E20A080098260C
:100C38008A150020E100E20A6208E0000800E103EA
:100C4800031908006008E200080017307610F52D37
:100C58006308A03E84006208E20A83130007840048
:100C68008A1500208A11083A0319DB2D023A031964
:100C7800E82D013A0319F82D073A0319092E1C3AF1
:100C880003191B2E013A0319232E913A0319292E11
:100C98004D2E080098268A1500208A11A200E20A23
:100CA80098268A1500208A11A400E20A2208E60084
:100CB800FA302406031D622E70086D2EFB302406C0
:100CC800031D682E6C086D2EFC302406031D6E2E45
:100CD8006708A4006430A3012402031C802E03309B
:100CE800E604013084008A1500208A11E5000130ED
:100CF800922E0A30A402A30A0A30240203187D2E79
:100D08002308031D892E0A30A3002308013E84000E
:100D18008A1500208A11E5002408013E84008A15FE
:100D28000020E400751508006308A03E84006208EE
:100D3800000784000800A600E20A2508D400D301B1
:100D48002608D304080083168504831285048316B5
:100D58008616831286160800F70AF312642F6418A1
:100D6800B82E83160515BA2E831605118312641939
:100D7800C02E83168514C22E831685108312641A1A
:100D8800C82E83160514CA2E8316051083126619F9
:100D9800D02E83168616D22E83168612051283123B
:100DA80005120800E418DB2E83160516DD2E8316BF
:100DB800051283126518E32E83168514E52E831613
:100DC80085108312E618EB2E83160514ED2E831674
:100DD80005108312E619F32E83168616F52E831650
:100DE80086120511831205110800E419FE2E8316D8
:100DF8000516002F831605128312E518062F831691
:100E08000515082F83160511831266180E2F8316F1
:100E18000514102F831605108312661A162F8316D1
:100E28008616182F831686128510831285100800DF
:100E3800E41A212F83160516232F83160512831211
:100E4800E519292F831605152B2F831605118312F3
:100E58006519312F83168514332F83168510831255
:100E6800E61A392F831686163B2F8316861205102D
:100E7800831205100800641B442F83160516462F9D
:100E8800831605128312651A4C2F831605154E2FEB
:100E9800831605118312E51A542F83168514562FCD
:100EA800831685108312651B5C2F831605145E2F2D
:100EB80083160510861283128612FF30F700080089
:100EC8007708003A0319B32E013A0319D62E033ACC
:100ED8000319F92E013A03191C2F073A03193F2F5A
:100EE800612F08007312731B7316831273179D1BEF
:100EF800731383161219822F831273138312731EAE
:100F0800872F0130882F0030A300731F8D2F0130E9
:100F18008E2F003023060319942F0230F8000800A2
:100F2800780803190800F8037808031D0800F3116E
:100F3800731BF3158312F31FA32F0130A42F003066
:100F4800A300F31DA92F0130AA2F0030230603198F
:100F5800B02F83127314B22F831273107311731886
:100F6800F31DB72F7315F3107318F31FBC2FF31469
:100F7800F313F319F317831273197418C92F013077
:100F8800F61475138A11D5228A11F31C08009912D8
:100F98001913F61C08000230F6108A11D52A0E180B
:100FA8000F1CD82F0F100E100E190F1DE22F0F1146
:100FB80075166808E80A0F390319F5158E188F1C7D
:100FC800E62F8F1021088A00200E8300FE0E7E0E69
:100FD80009007E088A007F088200ED278A118000B8
:100FE800840A04087D0603190034FF0A0319FE0A5F
:020FF800F12FD7
:1010000008308A000408840A820700343F3406341A
:101010005B344F3466346D347D3407347F346F3441
:101020000034FF34083400347D3408340634083486
:1010300000347D3408340534083400347D340834F9
:101040000434083400347D34083403340834003464
:101050007D340834023408340034893408340134CF
:10106000803408340134F4341434FA34083401344C
:10107000F4340034FC3408340134F4341834FB34D0
:101080008034103408340834003419341034FA34FD
:101090000834003419341434FA34113480341034E0
:1010A00002340A34003419340B3400341934113446
:1010B0008034103408340A34003419340B340034CA
:1010C000193411348034103403340A3400341934A0
:1010D0000B34003419341134803410340A340A3497
:1010E000003419340B340034193411348034103482
:1010F00006340A34003419340B34003419341134F2
:10110000803408340034FA341434FA348034083427
:101110000134F4340034FC34803408340434E234D0
:101120001434FA34803408340434E2341434FA3495
:1011300080340A340034013480340B3400347D347C
:021140008034F9
:101D2A0064008001840A0406031900340406962E0E
:101D3A0017308316850083128500E33083168600E8
:101D4A0063308312860083169E01080098348E340D
:101D5A002C3472343C34683488345E3494345434C9
:101D6A004A340D3482347C34081683168E018D0170
:101D7A008C0190168D1210160D129E178312F510F3
:101D8A00831610130D138312881208150030F226D9
:101D9A000230E7000B308A11F5228A158A11C7230F
:101DAA008A158A119B238A15B2008A1110232E08DC
:101DBA00BB002F08BC003008BD003108BE0003106C
:101DCA00BE0CBD0CBC0CBB0C3B089E009D138316BD
:101DDA008F138C130F130C130800A3002308031985
:101DEA00FD2E2308031908000430230203180800F3
:101DFA008F1783169217F330950583122308A200D2
:101E0A0001300310A20DFF3E0310031D072F220D00
:101E1A00831695048A11D82BF61C0800191F232F44
:101E2A004F0850040319232F0130CF020030031C3E
:101E3A00D003D0024F0850040319991759085A04BD
:101E4A0003192D2F0130D9020030031CDA03DA02FC
:101E5A0059085A04031D382F6B30D9000530DA00AF
:101E6A006C08031DEC03570858040319422F01306C
:101E7A00D7020030031CD803D80257085804031DA0
:101E8A000800023070020318F0037130D7000230E4
:101E9A00D800A3017008A2000A302202031C592F9D
:101EAA000A30A202A30A512F2308031D5E2F0A300B
:101EBA00A3002308013E84008A1500208A15E50044
:101ECA002208013E84008A150020E40008008A15D1
:101EDA009D268A158A1175258A158A11AB258A15B8
:101EEA008A15B9268A1503308312CA000830C90038
:101EFA007630C800C80B7F2FC90B7F2FCA0B7F2FE4
:101F0A00862F64308312EC006B30D9000530DA007A
:101F1A008A116C258A158A119E248A156F08F00089
:101F2A007130D7000230D800831612189218A82FE1
:101F3A0083120630F517F4108A11D5228A158A11F0
:101F4A0095248A15AD2F00308A11D5228A15F414EA
:101F5A00FA30F516D500E130D601EE018316890074
:101F6A00831288177313F3138E1764008312751E76
:101F7A00D02F173075128A11A7268A15F3167519EC
:101F8A00F31ECA2F8A11B0268A158A1176278A1556
:101F9A008A1183208A158312F51DF02FF5118A11F3
:101FAA002C218A158A1511278A158A11C4258A15A2
:101FBA008A1144248A15550856040319EA2F013058
:101FCA00D5020030031CD603D6026A08031DEA03B1
:101FDA006908031DE9038A11F4218A158A11E1238C
:041FEA008A15BA2F6B
:0A400000FD3FD53F293F773F283FE1
:00000001FF
