:040000008A110C282D
:10000800FE00030E8312A0000A08A1008A15222E02
:100018008A110E28AF308313FD000E30FE00033026
:10002800FF00A03084008A1516268A11FF30F700D9
:100038000430F800F9004B30840073308A15ED2540
:10004800F301F401F501F60183018A15A12E0816C2
:1000580083168E018D018C0190168D1210160D12CB
:100068009E178312F313831610130D13831288122D
:100078000815003063208A110230E7000B300B238B
:100088008A112308F2002208F100A1238A11B20084
:1000980026232E08BB002F08BC003008BD003108FD
:1000A800BE000310BE0CBD0CBC0CBB0C3B089E0074
:1000B8009D1383168F138C130F130C130800A300C2
:1000C800230803196E2823080319080004302302A3
:1000D800031808008F1783169217F33095058312BB
:1000E8002308A20001300310A20DFF3E0310031DD8
:1000F8007828220D83169504082C0A300B238A11C0
:100108002308F2002208F1000330B101B001AF006A
:10011800E830AE003B08A2003C08A300A401A501FA
:100128007108A6007208A700A801A9016E238A1108
:10013800E5238A1126232F08BC002E08BB000800DF
:100148006908031D080003305F060319F418080046
:100158000430DF01E70A6702031CB428E701E70A55
:100168000C30EB228A110B300B238A11FD238A11E4
:10017800670BC428B9238A11B20026238A11C52B1C
:1001880002306706031DCF287108A1238A11B20027
:1001980026238A11C52B03306706031D0800AC23EC
:1001A8008A1126238A11C52B761D0800F51F7F2981
:1001B80083168E1D0800831218083039031D79290B
:1001C80083168E110E128312F51315080139C50016
:1001D800C4011408C40417080139C700C601160869
:1001E800C60400304702323003194602031C612955
:1001F80000304502333003194402031C61290B30D7
:100208000B238A112308F2002208F1000D300B237A
:100218008A112308DA002208D90002248A117108F9
:10022800A2007208A3000330A401A501A901A80136
:10023800A700E830A6006E238A11E5238A11262339
:100248008A112F08C3002E08C2004608AE004708CE
:10025800AF00B001B1014408A2004508A300A40101
:10026800A5014208A6004308A700A801A9016E231A
:100278008A11E5238A1126238A113108BF00300824
:10028800BE002F08BD002E08BC003F08031D6129D1
:100298003E08031D612902303D02031D5529EE3039
:1002A8003C02031861297611741008159D17053052
:1002B800EE14EB22FA30EA000800081683168E11B5
:1002C8000E129130752983168E118312F5131508B5
:1002D8000139C100C0011408C00483168E110E1222
:1002E800833083129800F517080030301805BB00DA
:1002F800103A031967290816712983160C0803197F
:100308001D2A8312F41C8E2983168C01831208156A
:100318009D171D2A6E08031D932908159D13831622
:100328008C1F9A298C13F6238A11EB2A0C1FA029FB
:100338000C13F6238A11EB2A8C1EB2298C12831215
:100348006A08031D0800F001761174109912081547
:100358009D170430EE15EB228A111D2A0C1DBB29AE
:100368000C11831203307611EB228A111D2A8C1C82
:10037800DE298C1083129912081603308312BC00F0
:100388009730BB00BB0BC629BC0BC62900008312E3
:10039800061FD029731C1D2A991203308312BC0032
:1003A8009730BB00BB0BD629BC0BD62900008312A3
:1003B80099161D2A0C1C1D2A0C104B308312D500CF
:1003C8000B30D6010B238A11FD238A11670BEF2905
:1003D800B9238A11F62902306706031DF829710826
:1003E800A1238A11B200FE2903306706031D022AE1
:1003F800AC238A1126238A11D5238A11741C072A53
:100408007410EE238A11F31B0E2A0930EB229D1774
:100418006E1608006E126E0803199D13EE1D162A3B
:100428000430EB2A6E181A2AEE1C1D2A9D136E1032
:10043800EE1083160D08031908008D1F532A8D131B
:100448001D08803AFF0081307F02031D2D2AFF30EE
:100458001C020318512A831619088312BC0083163C
:1004680018088312BB000530FF003C0DBC0CBB0C08
:10047800FF0B392A3C08803ABD0083161D08803AD4
:1004880083123D02031D4C2A83161C0883123B026B
:100498000318512A83127314532A83127310831674
:1004A8008D1D7A2A8D118312741099120030F8224A
:1004B8008A116430700203186D2A76147619662A38
:1004C8000630EB228A11C0248A11F41C952A0A30BE
:1004D800782A6430F00076107619752A0830EB22F5
:1004E8008A11F41C952A0E30F410932A0D1D892ABE
:1004F8000D110130F8228A11761C952A6430761085
:10050800F0007619952A0830932A0D1C952A0D10AB
:100518000030F8228A1176107619952A0730EB22D6
:100528008A1183160D1E9D2A0D129E138312F3172E
:10053800A32A8D1EA32A8D129E178312F3138316E6
:100548000D1F08000D138312991E08004B30D500AB
:100558000B30D6010B238A11FD238A11741CC12A82
:100568007108AE007208AF001C30B001B101B501CE
:10057800B4001330B3008030CD2A670BC62AB923E4
:100588008A11CD2A02306706031DCF2A7108A123DC
:100598008A11B200D52A03306706031DD92AAC2375
:1005A8008A1126238A11D5238A11F31F092A6E126C
:1005B8006E0803199D13EE1DE32A0430EB2A6E180A
:1005C800E72AEE1C08009D136E10EE100800831237
:1005D800A2001730F5118A11D226D301D4012208BE
:1005E800E300E201F61408008312A20022080319AE
:1005F800FF2A220B08008F17831692178312221CDA
:10060800082B831617170A2B83161713082CA50017
:100618008F17831698149A01831225088316990058
:1006280018141818152B98101B088312A700A60178
:1006380083161C088312A6048F132708A300260814
:10064800A2000800B601B701B801B90131083004A9
:100658002F042E040319652BBA01BA0AB11B3A2BD1
:100668000310AE0DAF0DB00DB10D312B0310B60D4B
:10067800B70DB80DB90D31083502031D4D2B3008E3
:100688003402031D4D2B2F083302031D4D2B2E085A
:100698003202031C5F2B2E08B2022F08031C2F0FF7
:1006A800B3023008031C300FB4023108031C310FA9
:1006B800B50236140310B10CB00CAF0CAE0CBA0B6B
:1006C8003A2B3908B1003808B0003708AF003608AF
:1006D800AE000800AA01AB01AC01AD01221C882BB9
:1006E8002608AA07270803110318013E031DAB07B4
:1006F800280803110318013E031DAC07290803113C
:100708000318013E031DAD070310A60DA70DA80D84
:10071800A90D0310A50CA40CA30CA20C25082404F5
:1007280023042204031D722B2D08A5002C08A40005
:100738002B08A3002A08A2000800AE007208AF0028
:100748002C30B001B101B501B400DC30B300603425
:100758007108AE007208AF002E30B001B101B501CA
:10076800B4006330B300B20108007108AE0072082B
:10077800AF002B30B001B101B501B4005530B30062
:10078800C0342E08BB002F08BC003008BD0031085B
:10079800BE000310BE0CBD0CBC0CBB0C3B089E007D
:1007A80008002E08BB002F08BC003008BD00310827
:1007B800BE000310BE0CBD0CBC0CBB0C3B089E005D
:1007C80008002508B5002408B4002308B30022084F
:1007D800B20008001917E8307511F510D100033080
:1007E800D20008008312761174109912FA30EA00C8
:1007F80005342308F2002208F1000800AE005A0868
:10080800AF00B001B1010800921383128F130800E2
:10081800831255085604031D08006A08031D0800C2
:100828006908031976190800761CF618080083165B
:10083800121908008312751F282C751397258A1121
:10084800C9248A116F08F0008B0108109B018810D9
:100858000816831690158D1110140D1010130D1312
:100868000F140C1090168D1210160D1210110D1178
:100878008F128C120F110C118F108C10E830850517
:1008880083128505831686128312861283169301B6
:1008980011110E11831288114330831688008312B8
:1008A8008E148F100608D500D6018813640007300F
:1008B80083169F0063000000A0258A11D6258316A1
:1008C8001011101090110F104B308312D500D60163
:1008D80088176400080076187619080083168E1D9C
:1008E800832C8E11303083121805C100103A031D75
:1008F800832C15080139DE00DD011408DD0483129C
:10090800F61808005A30700203189F2CC9248A115F
:10091800C0248A116F08700203189B2CE4258A11E1
:10092800700B9B2C0815EE116E0803199D130630E9
:10093800EB018A11EB2AEA258A1181208A111030ED
:100948003C02693003193B020318AF2C0C30EB0A48
:100958006B02031CB22CE4258A11EB01643070028F
:10096800031CBC2C6430F000083076108A11EB2A86
:10097800C02406308A11EB2A181083168E118312B0
:1009880008169030980018140800EA258A1181206A
:100998008A113B08CB003C08CC008030CD01CE0149
:1009A800CB07F3300318F430CC07FF30031CCD0716
:1009B800031CCE074E08031D952D4D08031D952DCC
:1009C80007304C02031DEA2CD0304B020318952D3A
:1009D8004E08031DFA2C4D08031DFA2C02304C0258
:1009E800031DF82CEF304B02031C052DEE30F100EF
:1009F8000230F200AA30D9000A30DA01EF005A308A
:100A08001E2D4E08031D132D4D08031D132D0130F7
:100A18004C02031D112DC3304B02031C202DC23084
:100A2800F1000130F2002C30D9000130DA005030EA
:100A3800EF000A30ED00402D4E08031D2D2D4D0806
:100A4800031D2D2D4C08031D2D2D65304B02031C55
:100A5800392D6430F1005E30F201D9000130DA003E
:100A68000930EF00ED01ED0A402DF101F201D90145
:100A7800D90ADA01EF01ED014E08A5004D08A400DE
:100A88004C08A3004B08A2007108BD007208BE0004
:100A9800BF01C0013D08A2023E08031C3E0FA3028D
:100AA8003F08031C3F0FA4024008031C400FA50287
:100AB8006F08A600A701A801A9018A116E238A114F
:100AC8002508CE002408CD002308CC002208CB003E
:100AD80059088A1102248A114E08B5004D08B4003D
:100AE8004C08B3004B08B2008A1126238A1131083A
:100AF800CE003008CD002F08CC002E08CB006D08A2
:100B0800CB0701300318CC070318CD070318CE070D
:100B18004B08EF0064306F02031C08006430EF00DC
:100B28000800EF010800081690309800A92523084E
:100B3800DE002208DD0008008312081407308B004D
:100B48007D30890081010E1008000430F101F201A6
:100B5800EF016F020318C42D181483168E1DB12DD2
:100B68008E11013083121505A4001408F10703182B
:100B7800F20A2408F2070430EF0A6F02031CB02DB2
:100B88007208A5007108A4000310A50CA40C03109A
:100B9800A50CA40C2408F1002508F200A300710894
:100BA800A200080088148D018C019101F930900091
:100BB800E3309B00F0309C051C080E15E801080086
:100BC800B530F00ADB000130DC0008005E08BC002C
:100BD8005D08BB000800530854040319FF2D530A8D
:100BE8001F30031954060319FF2D0130D3020030BA
:100BF800031CD403D402F61C080053085404031D34
:100C08000800572EC3268A1500208A11A500E20A7B
:100C1800C3268A1500208A11CA268A11792EC3266E
:100C28008A1500208A11A500E20AC3268A15002029
:100C38008A11CA268A111730F511D2260800C32650
:100C48008A1500208A11A500E20AC3268A15002009
:100C58008A11CA26FF30E400E500E600F515080011
:100C6800C3268A1500208A11A500E20AC3268A1520
:100C780000208A11CA268A11C3268A150020E60098
:100C8800E20A0800C3268A150020E100E20A620889
:100C9800E0000800E103031908006008E20008000A
:100CA8001730F610202E6308A03E84006208E20A7E
:100CB8008313000784008A1500208A11083A031953
:100CC800062E023A0319132E013A0319232E073A66
:100CD8000319342E1C3A0319462E013A03194E2ED5
:100CE800913A0319542E782E0800C3268A1500203D
:100CF8008A11A200E20AC3268A1500208A11A400DC
:100D0800E20A2208E600FA302406031D8D2E700838
:100D1800982EFB302406031D932E6C08982EFC3069
:100D28002406031D992E6708A4006430A301240239
:100D3800031CAB2E0330E604013084008A15002022
:100D48008A11E5000130BD2E0A30A402A30A0A3038
:100D580024020318A82E2308031DB42E0A30A3006A
:100D68002308013E84008A1500208A11E500240822
:100D7800013E84008A150020E400F5150800630888
:100D8800A03E84006208000784000800A600E20A6A
:100D98002508D400D3012608D30408008316850447
:100DA8008312850483168616831286160800F70AAE
:100DB80073138F2F6418E32E83160515E52E8316FB
:100DC800051183126419EB2E83168514ED2E8316F4
:100DD80085108312641AF32E83160514F52E8316D4
:100DE800051083126619FB2E83168616FD2E8316B0
:100DF80086120512831205120800E418062F8316BE
:100E08000516082F83160512831265180E2F8316F0
:100E18008514102F831685108312E618162F831653
:100E28000514182F831605108312E6191E2F831632
:100E38008616202F831686120511831205110800C5
:100E4800E419292F831605162B2F831605128312F2
:100E5800E518312F83160515332F831605118312D4
:100E68006618392F831605143B2F83160510831235
:100E7800661A412F83168616432F8316861285100D
:100E8800831285100800E41A4C2F831605164E2F7E
:100E9800831605128312E519542F83160515562F4C
:100EA80083160511831265195C2F831685145E2F2E
:100EB800831685108312E61A642F83168616662F0A
:100EC800831686120510831205100800641B6F2F05
:100ED80083160516712F831605128312651A772F4C
:100EE80083160515792F831605118312E51A7F2FAE
:100EF80083168514812F831685108312651B872F0F
:100F080083160514892F83160510861283128612FC
:100F1800FF30F70008007708003A0319DE2E013A7F
:100F28000319012F033A0319242F013A0319472FF4
:100F3800073A03196A2F8C2F0800761D0800191F1D
:100F4800B32F510852040319B32F0130D1020030D6
:100F5800031CD203D20251085204031999177418BA
:100F6800CA2F570858040319BF2F0130D702003081
:100F7800031CD803D80257085804031DCA2F6B3026
:100F8800D7000530D8006C08031DEC035B085C042F
:100F98000319D42F0130DB020030031CDC03DC0210
:100FA8005B085C04031D0800023070020318F0039C
:100FB800B530DB000130DC0074180800A3017008AC
:100FC800A2000A302202031CED2F0A30A202A30A53
:100FD800E52F2308031DF22F0A30A3002308013E42
:100FE80084008A1500208A11E5002208013E840049
:100FF8008A150020E400080008308A000408840AE2
:10100800820700343F3406345B344F3466346D3421
:101018007D3407347F346F340034FF3408340034AF
:101028007D3408340634083400347D3408340534FB
:10103800083400347D3408340434083400347D34F2
:1010480008340334083400347D3408340234083456
:101058000034893408340134803408340134F434D9
:101068001434FA3408340134F4340034FC340834C9
:101078000134F4341834FB348034103402340A3424
:1010880000341F340B3400341F3411340834003456
:10109800FA341434FA348034103408340A340034FE
:1010A8001F34083400341F341434FA3411348034B3
:1010B800103402340A3400341F340B3400341F3423
:1010C80011348034103408340A3400341F340B349B
:1010D80000341F3411348034103403340A3400349B
:1010E8001F340B3400341F341134803410340A3464
:1010F8000A3400341F340B3400341F341134803464
:10110800103406340A3400341F340B3400341F34CE
:101118001134803408340034FA341434FA34803406
:1011280008340134F4340034FC3480340834003496
:10113800FA341434FA34803408340434E23414347D
:10114800FA34803408340434E2341434FA34803401
:081158000B3400347D348034B7
:101BDA0064008001840A0406031900340406EE2D09
:101BEA0017308316850083128500E330831686003A
:101BFA0063308312860083169E010800A734A1343D
:101C0A002C347F344B3475349B346B3495346134C3
:101C1A0057340D348F3489343C347E088A007F0867
:101C2A00820012268A158000840A04087D06031998
:101C3A000034FF0A0319FE0A162E0E180F1C272E4F
:101C4A000F100E100E190F1D312E0F11F516680800
:101C5A00E80A0F39031975168E188F1C352E8F1046
:101C6A0021088A00200E8300FE0E7E0E0900F31260
:101C7A007519F316831275159D1B751183161219A2
:101C8A00482E831275118312F31E4D2E01304E2EEB
:101C9A000030A300751D532E0130542E0030230648
:101CAA0003195A2E0630F8000800780803190800AC
:101CBA00F8037808031D0800731275197316831246
:101CCA00F51C692E01306A2E0030A300731E6F2E98
:101CDA000130702E003023060319762E8312F31476
:101CEA00782E8312F310F311F318731E7D2EF31559
:101CFA007311F318F51C822E7315F510731AF51467
:101D0A008312F31D922E7615F513741C8E2E0B304A
:101D1A008F2E01308A11EB228A15731D08001913C0
:101D2A00761D08007611741C9E2E0D3074108A11CF
:101D3A00EB2A02308A11EB2A8A15F5258A158A11AF
:101D4A00A0258A158A11D6258A158A112B208A156B
:101D5A0003308312CA000830C9007630C800C80BA5
:101D6A00B42EC90BB42ECA0BB42EBB2E6430831208
:101D7A00EC006B30D7000530D8008A1197258A15F8
:101D8A008A11C9248A156F08F000B530DB000130CA
:101D9A00DC00831612189218DD2E83120630761490
:101DAA00F4108A11EB228A158A11C0248A15E22EB0
:101DBA0000308A11EB228A15F414FA307517D5000F
:101DCA00E130D601EE018316890083128817751156
:101DDA00F510191EF42EF31783169E13F72EF3131C
:101DEA0083169E1783128E1764008312F51E0F2F17
:101DFA001730F5128A11D2268A157317F519731F2F
:101E0A00092F8A11DB268A158A153C268A158A111A
:101E1A00D8208A158312751E2F2F75128A15362718
:101E2A008A158A11A1278A158A11EF258A158A111E
:101E3A006F248A15550856040319292F0130D50233
:101E4A000030031CD603D6026A08031DEA03690898
:101E5A00031DE9038A1181218A158A110C248A1526
:101E6A00F92EF4137518F41783127510061B7514DE
:101E7A008312F41F422F0130432F0030BF00751C1C
:101E8A00482F0130492F00303F0603194F2F0430E5
:101E9A00F900C12F79080319C12FF9037908031D25
:101EAA00C12F7413751C5A2F74178312F41E5F2FD7
:101EBA000130602F0030BF00741F652F0130662F7C
:101ECA0000303F0603196C2F831274156E2F83128C
:101EDA00741174127419741F732F7416F41174190F
:101EEA00F41E782FF415F412741BF4168312741A64
:101EFA009912F41DC12F4B30D500D601F41C991646
:101F0A0069080319DF013E30DF0AE900741CC12F9A
:101F1A000B3074108A110B238A158A11FD238A1536
:101F2A00670B9B2F8A11B9238A15A32F02306706E4
:101F3A00031DA52F71088A11A1238A15B200AC2F9F
:101F4A0003306706031DBE2F8A11AC238A158A1136
:101F5A0026238A152E08BF002F08C0003008C100AA
:101F6A003108C2000310C20CC10CC00CBF0C3F08E0
:101F7A009E008A11EE238A15C6278A11A4208A1583
:101F8A00D42F6908031D080005305F02031C0800EE
:101F9A000230DF01F40699120A308A11EB2A690825
:101FAA0003197418E62FF41C741FE62F02305F061B
:101FBA00031DE62FDF0174149916EE30CF000230AC
:101FCA00D000741C08004F0850040319080001309F
:101FDA00CF020030031CD003D0024F08500403196B
:041FEA009912080040
:0A400000FD3FD53F293F773F283FE1
:00000001FF
