:040000008A110C282D
:10000800FE00030E8312A0000A08A1008A11A62A86
:100018008A110E28AF308313FD000230FE00D03065
:10002800FF00A03084008A11C4228A11FF30F70033
:100038000430F800F9004B30840073308A11ED2247
:10004800F301F401F501F60183018A11B029F70AD9
:10005800F312DF286418332883160515352883160C
:100068000511831264193B28831685143D288316CD
:1000780085108312641A43288316051445288316AD
:100088000510831266194B28831686164D28831689
:1000980086120512831205120800E41856288316E2
:1000A8000516582883160512831265185E288316CC
:1000B80085146028831685108312E618662883162F
:1000C80005146828831605108312E6196E2883160E
:1000D80086167028831686120511831205110800EA
:1000E800E4197928831605167B28831605128312CE
:1000F800E5188128831605158328831605118312B0
:1001080066188928831605148B2883160510831210
:10011800661A9128831686169328831686128510E8
:10012800831285100800E41A9C28831605169E2859
:10013800831605128312E519A42883160515A62827
:100148008316051183126519AC2883168514AE2809
:10015800831685108312E61AB42883168616B628E5
:10016800831686120510831205100800641BBF2829
:1001780083160516C128831605128312651AC72827
:1001880083160515C928831605118312E51ACF2889
:1001980083168514D128831685108312651BD728EA
:1001A80083160514D9288316051086128312861221
:1001B800FF30F70008007708003A03192E28013AA3
:1001C80003195128033A03197428013A0319972887
:0A01D800073A0319BA28DC280800D2
:1002000001308A000408840A820700343F3406342F
:100210005B344F3466346D347D3407347F346F344F
:100220000034FF34083400347D3408340634083494
:1002300000347D3408340534083400347D34083407
:100240000434083400347D34083403340834003472
:100250007D340834023408340034893408340134DD
:10026000803408340134F4341434FA34083401345A
:10027000F4340034FC3408340134F4341834FB34DE
:100280008034103402340A3400341F340B34003408
:100290001F34113408340034FA341434FA348034FE
:1002A000103408340A3400341F34083400341F3446
:1002B0001434FA3411348034103402340A340034E3
:1002C0001F340B3400341F3411348034103408349C
:1002D0000A3400341F340B3400341F34113480349A
:1002E000103403340A3400341F340B3400341F3408
:1002F0001134803410340A340A3400341F340B347F
:1003000000341F3411348034103406340A3400347D
:100310001F340B3400341F3411348034083400345B
:10032000FA341434FA34803408340134F4340034A8
:10033000FC34803408340034FA341434FA34803411
:1003400008340434E2341434FA3480340834043485
:10035000E2341434FA3480340B3400347D34803485
:100360008A11DF228A118A1586208A118A15BC20FB
:100370008A118A15CA208A1103308312CA000830F4
:10038000C9007630C800C80BC329C90BC329CA0BE2
:10039000C329CA2964308312EC006B30D7000530C2
:1003A000D8008A157D208A118A157A228A116F0851
:1003B000F000B530DB000130DC0083161218921813
:1003C000EC2983120630761474108A1596268A1149
:1003D0008A1571228A11F12900308A1596268A1110
:1003E0007414FA307517D500E130D601EE0183168A
:1003F0008900831288177511F510191E032A7317C7
:1004000083169E13062A731383169E1783128E1764
:1004100064008312F51E1E2A1730F5128A15A727CD
:100420008A11F316F519F31E182A8A112B208A1146
:100430008A1502218A118A1570248A118312751E69
:100440003E2A75128A1564218A118A1145228A1161
:100450008A1568238A118A1521228A1155085604A3
:100460000319382A0130D5020030031CD603D60206
:100470006A08031DEA036908031DE9038A151925A3
:100480008A118A151A208A11082A761D0800191F58
:10049000572A510852040319572A0130D10200305B
:1004A000031CD203D2025108520403199917F31BFB
:1004B0006E2A570858040319632A0130D702003006
:1004C000031CD803D80257085804031D6E2A6B304A
:1004D000D7000530D8006C08031DEC035B085C04F2
:1004E0000319782A0130DB020030031CDC03DC0234
:1004F0005B085C04031D0800023070020318F0035F
:10050000B530DB000130DC00F31B0800A3017008EC
:10051000A2000A302202031C912A0A30A202A30A76
:10052000892A2308031D962A0A30A300FC30E60519
:100530002308013E84008A1100218A11E500220867
:10054000013E84008A110021E40008000E180F1CEF
:10055000AB2A0F100E100E190F1DB52A0F11F5162C
:100560006808E80A0F39031975168E188F1CB92A06
:100570008F1021088A00200E8300FE0E7E0E0900D7
:100580007E088A007F088200C0228A118000840AC7
:1005900004087D0603190034FF0A0319FE0AC42A61
:1005A000A734A1342C347F344B3475349B346B34F2
:1005B0009534613457340D348F3489343C341730DA
:1005C0008316850083128500E3308316860063302E
:1005D0008312860083169E01080064008001840A4D
:0A05E0000406031900340406EE2A95
:10103400831255085604031D08006A08031D08009E
:101044006908031976190800761CF6180800831637
:10105400121908008312751F362875137D208A150E
:101064007A228A156F08F0008B0108109B01881002
:101074000816831690158D1110140D1010130D13EE
:101084000F140C1090168D1210160D1210110D1154
:101094008F128C120F110C118F108C10E8308505F3
:1010A4008312850583168612831286128316930192
:1010B40011110E1183128811433083168800831294
:1010C4008E148F100608D500D601881364000730EB
:1010D40083169F006300000086208A15BC208316B7
:1010E4001011101090110F104B308312D500D6013F
:1010F4008817640008000816903098008F20230891
:10110400DE002208DD0008008312081407308B007B
:101114007D30890081010E1008000430F101F201D4
:10112400EF016F020318AA28181483168E1D97283E
:101134008E11013083121505A4001408F107031859
:10114400F20A2408F2070430EF0A6F02031C9628FF
:101154007208A5007108A4000310A50CA40C0310C8
:10116400A50CA40C2408F1002508F200A3007108C2
:10117400A200080088148D018C019101F9309000BF
:10118400E3309B00F0309C051C080E15E8010800B4
:10119400081683168E018D018C0190168D1210167F
:1011A4000D129E1783127313831610130D138312DB
:1011B400881208150030D9278A150230E7000B3051
:1011C400B5268A152308F2002208F1004B278A1558
:1011D400B200D0262E08BB002F08BC003008BD008A
:1011E4003108BE000310BE0CBD0CBC0CBB0C3B088C
:1011F4009E009D1383168F138C130F130C1308007A
:10120400731275197316831275159D1B7511831648
:1012140012190E29831275118312731E13290130BA
:1012240014290030A300751D192901301A29003032
:101234002306031920290630F8000800780803194A
:101244000800F8037808031D0800F3117519F31555
:101254008312F51C2F29013030290030A300F31D1F
:101264003529013036290030230603193C2983121D
:1012740073143E298312731073117318F31D4329D9
:101284007315F3107318F51C4829F314F510F319AA
:10129400F5148312731D57297615F513F31F54297A
:1012A4000B305529013096268A15F31C08001913B2
:1012B400761D08007611F31F62290D30F313962E64
:1012C4000230962E7413F41B74178312F413061B46
:1012D400F4178312741F7029013071290030BF0084
:1012E400F41F76290130772900303F0603197D2940
:1012F4000430F900E82979080319E829F903790881
:10130400031DE829F412F41F8829F4168312741EAD
:101314008D2901308E290030BF00F41E932901303D
:10132400942900303F0603199A298312F4149C2946
:101334008312F410F411F418F41EA129F415741195
:10134400F418741EA62974157412F41A74168312F0
:10135400F4199912741DE8294B30D500D601741C78
:10136400991669080319DF013E30DF0AE900F31F0B
:10137400E8290B30F313B5268A15BF278A15670BA6
:10138400C6296A278A15CD2902306706031DCF298D
:1013940071084B278A15B200D52903306706031D4F
:1013A400E6295D278A15D0268A152E08BF002F0846
:1013B400C0003008C1003108C2000310C20CC10CC7
:1013C400C00CBF0C3F089E00B0278A157518EF2982
:1013D400F1218A153C248A15FE29DF0108006908D9
:1013E400031D080005305F02031C08000130DF0103
:1013F400F40699120A30962E69080319F31B102A71
:10140400741CF41E102A02305F06031D102ADF012B
:10141400F3179916EE30CF000230D000F31F080006
:101424004F085004031908000130CF020030031C98
:10143400D003D0024F0850040319991208007618FB
:101444007619080083168E1D352A8E1130308312CA
:101454001805C100103A031D352A15080139DE00AC
:10146400DD011408DD048312F61808005A307002F6
:1014740003184F2A7A228A1571228A156F0870027E
:1014840003184D2ACA278A15700B4D2A0815EE1128
:101494006E0803199D13EB016D2AD0278A15452385
:1014A4008A1510303C02693003193B0203185F2A85
:1014B4000C30EB0A6B02031C622ACA278A15EB0163
:1014C40064307002031C6B2A6430F000083076101C
:1014D4006E2A71228A15063096268A15682B1810F2
:1014E40083168E1183120816903098001814080081
:1014F400D0278A1545238A153B08CB003C08CC002D
:101504008030CD01CE01CB07F3300318F430CC0783
:10151400FF30031CCD07031CCE074E08031D432BCD
:101524004D08031D432B07304C02031D9B2AD0306A
:101534004B020318432B4E08031DAB2A4D08031D11
:10154400AB2A02304C02031DA92AEF304B02031CC4
:10155400B62AEE30F1000230F200AA30D9000A3087
:10156400DA01EF005A30CF2A4E08031DC42A4D0871
:10157400031DC42A01304C02031DC22AC3304B028E
:10158400031CD12AC230F1000130F2002C30D90002
:101594000130DA005030EF000A30ED00F12A4E0835
:1015A400031DDE2A4D08031DDE2A4C08031DDE2A16
:1015B40065304B02031CEA2A6430F1005E30F2010C
:1015C400D9000130DA000930EF00ED01ED0AF12A0B
:1015D400F101F201D901D90ADA01EF01ED014E0856
:1015E400A5004D08A4004C08A3004B08A2007108F4
:1015F400BD007208BE00BF01C0013D08A2023E0842
:10160400031C3E0FA3023F08031C3F0FA402400823
:10161400031C400FA5026F08A600A701A801A90199
:1016240018278A152508CE002408CD002308CC00ED
:101634002208CB005908C4278A154E08B5004D0866
:10164400B4004C08B3004B08B200D0268A15310808
:10165400CE003008CD002F08CC002E08CB006D083A
:10166400CB0701300318CC070318CD070318CE07A6
:101674004B08EF0064306F02031C08006430EF0075
:101684000800EF0108000A30B5268A152308F20085
:101694002208F1000330B101B001AF00E830AE0020
:1016A4003B08A2003C08A300A401A5017108A60000
:1016B4007208A700A801A90118278A159E278A1570
:1016C400D0262F08BC002E08BB0008005308540481
:1016D4000319782B530A1F30031954060319782B66
:1016E4000130D3020030031CD403D402F61C0800DA
:1016F40053085404031D0800D02B56278A110021D7
:101704008A15A500E20A56278A1100218A15962710
:101714008A15F22B56278A1100218A15A500E20AA0
:1017240056278A1100218A1596278A151730F51134
:10173400A727080056278A1100218A15A500E20A66
:1017440056278A1100218A159627FF30E400E50008
:10175400E600F515080056278A1100218A15A50010
:10176400E20A56278A1100218A1596278A155627D8
:101774008A110021E600E20A080056278A11002196
:10178400E100E20A6208E0000800E103031908002E
:101794006008E20008001730F610992B6308A03E99
:1017A40084006208E20A8313000784008A1100217E
:1017B4008A15083A03197F2B023A03198C2B013A34
:1017C40003199C2B073A0319AD2B1C3A0319BF2BA1
:1017D400013A0319C72B913A0319CD2BF12B0800B9
:1017E40056278A1100218A15A200E20A56278A1177
:1017F40000218A15A400E20A2208E600FA30240631
:10180400031D062C7008112CFB302406031D0C2C20
:101814006C08112CFC302406031D122C6708A4004C
:101824006430A3012402031C242C0330E604013099
:1018340084008A1100218A15E5000130362C0A3013
:10184400A402A30A0A3024020318212C2308031D2E
:101854002D2C0A30A3002308013E84008A110021A4
:101864008A15E5002408013E84008A110021E40061
:10187400F51508006908031D080003305F06031905
:10188400741808000430DF01E70A6702031C4C2CBB
:10189400E701E70A0C3096268A150B30B5268A151F
:1018A400BF278A15670B5C2C6A278A15B200D026DD
:1018B4008A15762F02306706031D672C71084B27A3
:1018C4008A15B200D0268A15762F03306706031DC9
:1018D40008005D278A15D0268A15762F761D080004
:1018E400F51F172D83168E1D080083121808303932
:1018F400031D112D83168E110E128312F513150874
:101904000139C500C4011408C40417080139C7000B
:10191400C6011608C60400304702323003194602D5
:10192400031CF92C00304502333003194402031C14
:10193400F92C0B30B5268A152308F2002208F10091
:101944000D30B5268A152308DA002208D900C427E9
:101954008A157108A2007208A3000330A401A5012E
:10196400A901A801A700E830A60018278A159E2718
:101974008A15D0268A152F08C3002E08C2004608EF
:10198400AE004708AF00B001B1014408A200450809
:10199400A300A401A5014208A6004308A700A801CA
:1019A400A90118278A159E278A15D0268A15310879
:1019B400BF003008BE002F08BD002E08BC003F0841
:1019C400031DF92C3E08031DF92C02303D02031DB2
:1019D400ED2CEE303C020318F92C7611F3130815A4
:1019E4009D170530EE149626FA30EA000800081612
:1019F40083168E110E1291300D2D83168E118312C3
:101A0400F51315080139C100C0011408C004831678
:101A14008E110E12833083129800F51708003030AF
:101A24001805BB00103A0319FF2C0816092D83165C
:101A34000C080319F32D8312741C262D83168C01B4
:101A4400831208159D17F32D6E08031D2B2D081501
:101A54009D1383168C1F322D8C13B8278A15962E4E
:101A64000C1F382D0C13B8278A15962E8C1E4A2D60
:101A74008C1283126A08031D0800F0017611F31317
:101A8400991208159D170430EE1596268A15F32D24
:101A94000C1D532D0C1183120330761196268A15D2
:101AA400F32D8C1CA42D8C10831299120816831606
:101AB40019083F398312C400C3018316180883121E
:101AC400C30483161B083F398312C000BF01831669
:101AD4001A088312BF0404308312BC001C30BB00FC
:101AE400BB0B722DBC0B722D83124408BC0043083F
:101AF400BB0005300310BC0CBB0CFF3E031D7C2D4A
:101B04003B08C1003C08C2003F08C1070318C20AD1
:101B14004008C207061F962D44084202031D942D57
:101B2400430841020318F32D991203308312BC00B9
:101B34009730BB00BB0B9C2DBC0B9C2D000083126B
:101B44009916F32D0C1CF32D0C104B308312D50079
:101B54000B30D601B5268A15BF278A15670BB52D1C
:101B64006A278A15BC2D02306706031DBE2D710835
:101B74004B278A15B200C42D03306706031DC82DF8
:101B84005D278A15D0268A1586278A15751CD82DB7
:101B9400991606308312BC00B530BB00BB0BD02DA8
:101BA400BC0BD02D0000831299120800F31FDD2D09
:101BB400F313B0278A15731BE42D093096269D175D
:101BC4006E1608006E126E0803199D13EE1DEC2D9F
:101BD4000430962E6E18F02DEE1CF32D9D136E100E
:101BE400EE1083160D08031908008D1D1E2E8D118D
:101BF40083127514F31399120030A2268A156430E7
:101C040070020318112E761476190B2E06309626C0
:101C14008A1571228A15741C3B2E0A301C2E6430DE
:101C2400F00076107619192E083096268A15741C41
:101C34003B2E0E307410392E0D1D2D2E0D1101303A
:101C4400A2268A15761C3B2E64307610F000761995
:101C54003B2E0830392E0D1C3B2E0D108312003004
:101C64007510A2268A15761076193B2E0730962613
:101C74008A1583160D1E432E0D129E13831273179D
:101C8400492E8D1E492E8D129E17831273138316AF
:101C94000D1F08000D138312991E08004B30D50048
:101CA4000B30D601B5268A15BF278A15F31F672E78
:101CB4007108AE007208AF001C30B001B101B5016B
:101CC400B4001330B3008030732E670B6C2E6A2778
:101CD4008A15732E02306706031D752E71084B2773
:101CE4008A15B2007B2E03306706031D7F2E5D2705
:101CF4008A15D0268A1586278A15751C842E991272
:101D0400F3130800731FDF2D6E126E0803199D1361
:101D1400EE1D8E2E0430962E6E18922EEE1C0800A8
:101D24009D136E10EE1008008312A2001730F511F7
:101D3400A727D301D4012208E300E201F614080026
:101D44008312A20022080319A92E220B08008F1760
:101D5400831692178312221CB22E83161717B42EE1
:101D640083161713D52FA5008F17831698149A017D
:101D7400831225088316990018141818BF2E98107A
:101D84001B088312A700A60183161C088312A6044D
:101D94008F132708A3002608A2000800B601B70184
:101DA400B801B901310830042F042E0403190F2F90
:101DB400BA01BA0AB11BE42E0310AE0DAF0DB00D7B
:101DC400B10DDB2E0310B60DB70DB80DB90D3108EA
:101DD4003502031DF72E30083402031DF72E2F0899
:101DE4003302031DF72E2E083202031C092F2E087E
:101DF400B2022F08031C2F0FB3023008031C300F4C
:101E0400B4023108031C310FB50236140310B10CAF
:101E1400B00CAF0CAE0CBA0BE42E3908B100380884
:101E2400B0003708AF003608AE000800AA01AB01C5
:101E3400AC01AD01221C322F2608AA072708031182
:101E44000318013E031DAB07280803110318013EC4
:101E5400031DAC07290803110318013E031DAD0738
:101E64000310A60DA70DA80DA90D0310A50CA40C15
:101E7400A30CA20C2508240423042204031D1C2FF4
:101E84002D08A5002C08A4002B08A3002A08A200F2
:101E94000800AE007208AF002C30B001B101B501EA
:101EA400B400DC30B30060346308A03E84006208F0
:101EB4000007840008007108AE007208AF002E30DD
:101EC400B001B101B501B4006330B300B201080040
:101ED4007108AE007208AF002B30B001B101B5013A
:101EE400B4005530B300C0342E08BB002F08BC002A
:101EF4003008BD003108BE000310BE0CBD0CBC0C84
:101F0400BB0C3B089E0008002E08BB002F08BC0039
:101F14003008BD003108BE000310BE0CBD0CBC0C63
:101F2400BB0C3B089E000800A600E20A2508D4006A
:101F3400D3012608D30408002508B5002408B400FA
:101F44002308B3002208B200080083168504831214
:101F54008504831686168312861608001917E8303E
:101F64007511F510D1000330D200080083127611E8
:101F7400F3139912FA30EA0005342308F200220818
:101F8400F1000800AE005A08AF00B001B10108002A
:101F9400B530F00ADB000130DC0008005E08BC004C
:101FA4005D08BB000800921383128F130800A3007E
:101FB40023080319E42F230803190800043023021B
:101FC400031808008F1783169217F33095058312B0
:101FD4002308A20001300310A20DFF3E0310031DCD
:0A1FE400EE2F220D83169504D52F71
:0A400000FD3FD53F293F773F283FE1
:00000001FF
