:040000008A110C282D
:10000800FE00030E8312A0000A08A1008A15222E02
:100018008A110E28AF308313FD000E30FE00033026
:10002800FF00A03084008A1516268A11FF30F700D9
:100038000430F800F9004B30840073308A15ED2540
:10004800F301F401F501F60183018A15A12E0816C2
:1000580083168E018D018C0190168D1210160D12CB
:100068009E1783127313831610130D1383128812AD
:100078000815003063208A110230E7000B3007238F
:100088008A112308F2002208F1009D238A11B20088
:1000980022232E08BB002F08BC003008BD00310801
:1000A800BE000310BE0CBD0CBC0CBB0C3B089E0074
:1000B8009D1383168F138C130F130C130800A300C2
:1000C800230803196E2823080319080004302302A3
:1000D800031808008F1783169217F33095058312BB
:1000E8002308A20001300310A20DFF3E0310031DD8
:1000F8007828220D83169504042C0A3007238A11C8
:100108002308F2002208F1000330B101B001AF006A
:10011800E830AE003B08A2003C08A300A401A501FA
:100128007108A6007208A700A801A9016A238A110C
:10013800E1238A1122232F08BC002E08BB000800E7
:100148006908031D080003305F06031974180800C6
:100158000430DF01E70A6702031CB428E701E70A55
:100168000C30E7228A110B3007238A11F9238A11F0
:10017800670BC428B5238A11B20022238A11C12B28
:1001880002306706031DCF2871089D238A11B2002B
:1001980022238A11C12B03306706031D0800A823F8
:1001A8008A1122238A11C12BF61C0800751F7F298A
:1001B80083168E1D0800831218083039031D79290B
:1001C80083168E110E128312751315080139C50096
:1001D800C4011408C40417080139C700C601160869
:1001E800C60400304702323003194602031C612955
:1001F80000304502333003194402031C61290B30D7
:1002080007238A112308F2002208F1000D30072382
:100218008A112308DA002208D900FE238A117108FE
:10022800A2007208A3000330A401A501A901A80136
:10023800A700E830A6006A238A11E1238A11222345
:100248008A112F08C3002E08C2004608AE004708CE
:10025800AF00B001B1014408A2004508A300A40101
:10026800A5014208A6004308A700A801A9016A231E
:100278008A11E1238A1122238A113108BF0030082C
:10028800BE002F08BD002E08BC003F08031D6129D1
:100298003E08031D612902303D02031D5529EE3039
:1002A8003C0203186129F610F31308159D17053051
:1002B800EE14E722FA30EA000800081683168E11B9
:1002C8000E129130752983168E1183127513150835
:1002D8000139C100C0011408C00483168E110E1222
:1002E8008330831298007517080030301805BB005A
:1002F800103A031967290816712983160C0803197F
:100308004C2A8312741C8E2983168C0183120815BB
:100318009D174C2A6E08031D932908159D138316F3
:100328008C1F9A298C13EA238A11E72A0C1FA0290B
:100338000C13EA238A11E72A8C1EB2298C12831225
:100348006A08031D0800F001F610F3139912081546
:100358009D170430EE15E7228A114C2A0C1DBB2983
:100368000C1183120330F610E7228A114C2A8C1CD8
:100378000D2A8C10831299120816831619083F3912
:100388008312C400C301831618088312C30483169A
:100398001B083F398312C000BF0183161A08831255
:1003A800BF0403308312BC009730BB00BB0BDA29B3
:1003B800BC0BDA29000083124408BC004308BB00C8
:1003C80005300310BC0CBB0CFF3E031DE5293B08A0
:1003D800C1003C08C2003F08C1070318C20A400810
:1003E800C207061FFF2944084202031DFD294308CE
:1003F800410203184C2A991203308312BC0097302B
:10040800BB00BB0B052ABC0B052A000083129916FA
:100418004C2A0C1C4C2A0C104B308312D5000B3084
:10042800D60107238A11F9238A11670B1E2AB523DF
:100438008A11252A02306706031D272A71089D2381
:100448008A11B2002D2A03306706031D312AA8231A
:100458008A1122238A11D1238A11F31F362AF31312
:10046800F1238A11731B3D2A0930E7229D176E1666
:1004780008006E126E0803199D13EE1D452A0430FC
:10048800E72A6E18492AEE1C4C2A9D136E10EE10AE
:1004980083160D08031908008D1D762A8D11831205
:1004A800F31399120030F4228A1164307002031891
:1004B800692AF517F618622A0630E7228A11BC2441
:1004C8008A11741C912A0A30742A6430F000F513DA
:1004D800F618712A0830E7228A11741C912A0E3006
:1004E80074108F2A0D1D852A0D110130F4228A11EE
:1004F800F51F912A6430F513F000F618912A083098
:100508008F2A0D1C912A0D100030F4228A11F51340
:10051800F618912A0730E7228A1183160D1E992AA8
:100528000D129E13831273179F2A8D1E9F2A8D12F8
:100538009E178312731383160D1F08000D13831261
:10054800991E08004B30D5000B30D60107238A11BD
:10055800F9238A11F31FBD2A7108AE007208AF0093
:100568001C30B001B101B501B4001330B3008030C4
:10057800C92A670BC22AB5238A11C92A023067061D
:10058800031DCB2A71089D238A11B200D12A03309A
:100598006706031DD52AA8238A1122238A11D1238D
:1005A8008A11731F382A6E126E0803199D13EE1DE7
:1005B800DF2A0430E72A6E18E32AEE1C08009D1390
:1005C8006E10EE1008008312A200173075118A1100
:1005D800CE26D301D4012208E300E20176140800F4
:1005E8008312A20022080319FB2A220B08008F1786
:1005F800831692178312221C042B83161717062BB7
:1006080083161713042CA5008F17831698149A01C4
:10061800831225088316990018141818112B98109E
:100628001B088312A700A60183161C088312A604C0
:100638008F132708A3002608A2000800B601B701F7
:10064800B801B901310830042F042E040319612BB5
:10065800BA01BA0AB11B362B0310AE0DAF0DB00D9F
:10066800B10D2D2B0310B60DB70DB80DB90D31080E
:100678003502031D492B30083402031D492B2F086E
:100688003302031D492B2E083202031C5B2B2E0854
:10069800B2022F08031C2F0FB3023008031C300FBF
:1006A800B4023108031C310FB50236140310B10C23
:1006B800B00CAF0CAE0CBA0B362B3908B1003808A9
:1006C800B0003708AF003608AE000800AA01AB0139
:1006D800AC01AD01221C842B2608AA0727080311A8
:1006E8000318013E031DAB07280803110318013E38
:1006F800031DAC07290803110318013E031DAD07AC
:100708000310A60DA70DA80DA90D0310A50CA40C88
:10071800A30CA20C2508240423042204031D6E2B19
:100728002D08A5002C08A4002B08A3002A08A20065
:100738000800AE007208AF002C30B001B101B5015D
:10074800B400DC30B30060347108AE007208AF004A
:100758002E30B001B101B501B4006330B300B2016D
:1007680008007108AE007208AF002B30B001B1016B
:10077800B501B4005530B300C0342E08BB002F08B3
:10078800BC003008BD003108BE000310BE0CBD0C13
:10079800BC0CBB0C3B089E0008002E08BB002F08B1
:1007A800BC003008BD003108BE000310BE0CBD0CF3
:1007B800BC0CBB0C3B089E0008002508B5002408AB
:1007C800B4002308B3002208B20008008312F61010
:1007D800F3139912FA30EA0005341917E830F510C6
:1007E8007510D1000330D20008002308F200220857
:1007F800F1000800AE005A08AF00B001B1010800CE
:10080800921383128F130800831255085604031D90
:1008180008006A08031D080069080319F61808008B
:10082800F51F761808008316121908008312F51EA2
:10083800242CF51293258A11C5248A116F08F0001B
:100848008B0108109B0188100816831690158D11CE
:1008580010140D1010130D130F140C1090168D1288
:1008680010160D1210110D118F128C120F110C1180
:100878008F108C10E8308505831285058316861243
:10088800831286128316930111110E118312881197
:1008980043308316880083128E148F100608D50003
:1008A800D60188136400073083169F006300000098
:1008B8009C258A11D22583161011101090110F1043
:1008C8004B308312D500D601881764000800F51B49
:1008D800F618080083168E1D7F2C8E113030831277
:1008E8001805C100103A031D7F2C15080139DE00D8
:1008F800DD011408DD048312761808005A307002EE
:1009080003189B2CC5248A11BC248A116F08700215
:100918000318972CE0258A11700B972C0815EE11F7
:100928006E0803199D130630EB018A11E72AE625A4
:100938008A1181208A1110303C02693003193B0268
:100948000318AB2C0C30EB0A6B02031CAE2CE02511
:100958008A11EB0164307002031CB82C6430F0007B
:100968000830F5138A11E72ABC2406308A11E72AD1
:10097800181083168E1183120816903098001814D8
:100988000800E6258A1181208A113B08CB003C0823
:10099800CC008030CD01CE01CB07F3300318F43002
:1009A800CC07FF30031CCD07031CCE074E08031DE0
:1009B800912D4D08031D912D07304C02031DE62C87
:1009C800D0304B020318912D4E08031DF62C4D080C
:1009D800031DF62C02304C02031DF42CEF304B02A1
:1009E800031C012DEE30F1000230F200AA30D900CC
:1009F8000A30DA01EF005A301A2D4E08031D0F2D68
:100A08004D08031D0F2D01304C02031D0D2DC33061
:100A18004B02031C1C2DC230F1000130F2002C30B7
:100A2800D9000130DA005030EF000A30ED003C2DDB
:100A38004E08031D292D4D08031D292D4C08031DA3
:100A4800292D65304B02031C352D6430F1005E30D2
:100A5800F201D9000130DA000930EF00ED01ED0AAA
:100A68003C2DF101F201D901D90ADA01EF01ED01BA
:100A78004E08A5004D08A4004C08A3004B08A2008E
:100A88007108BD007208BE00BF01C0013D08A20286
:100A98003E08031C3E0FA3023F08031C3F0FA4029D
:100AA8004008031C400FA5026F08A600A701A80173
:100AB800A9018A116A238A112508CE002408CD00CD
:100AC8002308CC002208CB0059088A11FE238A117A
:100AD8004E08B5004D08B4004C08B3004B08B200EE
:100AE8008A1122238A113108CE003008CD002F0840
:100AF800CC002E08CB006D08CB0701300318CC07BB
:100B08000318CD070318CE074B08EF0064306F02B7
:100B1800031C08006430EF000800EF010800081605
:100B280090309800A5252308DE002208DD00080083
:100B38008312081407308B007D30890081010E1064
:100B480008000430F101F201EF016F020318C02D13
:100B5800181483168E1DAD2D8E11013083121505C4
:100B6800A4001408F1070318F20A2408F207043055
:100B7800EF0A6F02031CAC2D7208A5007108A400CF
:100B88000310A50CA40C0310A50CA40C2408F10058
:100B98002508F200A3007108A200080088148D013E
:100BA8008C019101F9309000E3309B00F0309C05F6
:100BB8001C080E15E8010800B530F00ADB0001300A
:100BC800DC0008005E08BC005D08BB000800530894
:100BD80054040319FB2D530A1F3003195406031933
:100BE800FB2D0130D3020030031CD403D402761C41
:100BF800080053085404031D0800532EBF268A1505
:100C080000208A11A500E20ABF268A1500208A1151
:100C1800C6268A11752EBF268A1500208A11A500BE
:100C2800E20ABF268A1500208A11C6268A111730C3
:100C38007511CE260800BF268A1500208A11A50046
:100C4800E20ABF268A1500208A11C626FF30E40072
:100C5800E500E60075150800BF268A1500208A11F0
:100C6800A500E20ABF268A1500208A11C6268A1125
:100C7800BF268A150020E600E20A0800BF268A156A
:100C88000020E100E20A6208E0000800E10303191D
:100C980008006008E2000800173076101C2E630870
:100CA800A03E84006208E20A8313000784008A15C4
:100CB80000208A11083A0319022E023A03190F2E4E
:100CC800013A03191F2E073A0319302E1C3A03194B
:100CD800422E013A03194A2E913A0319502E742EC6
:100CE8000800BF268A1500208A11A200E20ABF2642
:100CF8008A1500208A11A400E20A2208E600FA30C8
:100D08002406031D892E7008942EFB302406031D2B
:100D18008F2E6C08942EFC302406031D952E670830
:100D2800A4006430A3012402031CA72E0330E604A8
:100D3800013084008A1500208A11E5000130B92E9F
:100D48000A30A402A30A0A3024020318A42E230896
:100D5800031DB02E0A30A3002308013E84008A1523
:100D680000208A11E5002408013E84008A1500202D
:100D7800E400751508006308A03E840062080007B7
:100D880084000800A600E20A2508D400D30126083A
:100D9800D3040800831685048312850483168616F7
:100DA800831286160800F70AF3128B2F6418DF2EB9
:100DB80083160515E12E8316051183126419E72E93
:100DC80083168514E92E831685108312641AEF2E74
:100DD80083160514F12E8316051083126619F72E53
:100DE80083168616F92E83168612051283120512AB
:100DF8000800E418022F83160516042F831605121F
:100E0800831265180A2F831685140C2F83168510F4
:100E18008312E618122F83160514142F8316051053
:100E28008312E6191A2F831686161C2F831686122C
:100E38000511831205110800E419252F83160516DC
:100E4800272F831605128312E5182D2F83160515F3
:100E58002F2F8316051183126618352F8316051454
:100E6800372F831605108312661A3D2F83168616B0
:100E78003F2F831686128510831285100800E41A06
:100E8800482F831605164A2F831605128312E51973
:100E9800502F83160515522F8316051183126519D5
:100EA800582F831685145A2F831685108312E61A35
:100EB800602F83168616622F8316861205108312FA
:100EC80005100800641B6B2F831605166D2F8316FB
:100ED80005128312651A732F83160515752F83164D
:100EE80005118312E51A7B2F831685147D2F83162F
:100EF80085108312651B832F83160514852F83168F
:100F08000510861283128612FF30F7000800770852
:100F1800003A0319DA2E013A0319FD2E033A031990
:100F2800202F013A0319432F073A0319662F882FF8
:100F38000800F61C0800191FAF2F510852040319A6
:100F4800AF2F0130D1020030031CD203D202510866
:100F5800520403199917F31BC62F5708580403198D
:100F6800BB2F0130D7020030031CD803D802570822
:100F78005804031DC62F6B30D7000530D8006C0805
:100F8800031DEC035B085C040319D02F0130DB025E
:100F98000030031CDC03DC025B085C04031D080052
:100FA800023070020318F003B530DB000130DC00BA
:100FB800F31B0800A3017008A2000A302202031CD8
:100FC800E92F0A30A202A30AE12F2308031DEE2FFE
:100FD8000A30A3002308013E84008A1500208A11E4
:100FE800E5002208013E84008A150020E40008007C
:1010000008308A000408840A820700343F3406341A
:101010005B344F3466346D347D3407347F346F3441
:101020000034FF34083400347D3408340634083486
:1010300000347D3408340534083400347D340834F9
:101040000434083400347D34083403340834003464
:101050007D340834023408340034893408340134CF
:10106000803408340134F4341434FA34083401344C
:10107000F4340034FC3408340134F4341834FB34D0
:101080008034103402340A3400341F340B340034FA
:101090001F34113408340034FA341434FA348034F0
:1010A000103408340A3400341F34083400341F3438
:1010B0001434FA3411348034103402340A340034D5
:1010C0001F340B3400341F3411348034103408348E
:1010D0000A3400341F340B3400341F34113480348C
:1010E000103403340A3400341F340B3400341F34FA
:1010F0001134803410340A340A3400341F340B3471
:1011000000341F3411348034103406340A3400346F
:101110001F340B3400341F3411348034083400344D
:10112000FA341434FA34803408340134F43400349A
:10113000FC34803408340034FA341434FA34803403
:1011400008340434E2341434FA3480340834043477
:10115000E2341434FA3480340B3400347D34803477
:101BDA0064008001840A0406031900340406EE2D09
:101BEA0017308316850083128500E330831686003A
:101BFA0063308312860083169E010800A734A1343D
:101C0A002C347F344B3475349B346B3495346134C3
:101C1A0057340D348F3489343C347E088A007F0867
:101C2A00820012268A158000840A04087D06031998
:101C3A000034FF0A0319FE0A162E0E180F1C272E4F
:101C4A000F100E100E190F1D312E0F117516680880
:101C5A00E80A0F390319F5158E188F1C352E8F10C7
:101C6A0021088A00200E8300FE0E7E0E09007312E0
:101C7A00F51873168312F5149D1BF51083161219A5
:101C8A00482E8312F5108312731E4D2E01304E2EEC
:101C9A000030A300F51C532E0130542E00302306C9
:101CAA0003195A2E0630F8000800780803190800AC
:101CBA00F8037808031D0800F311F518F3158312C9
:101CCA00751C692E01306A2E0030A300F31D6F2E99
:101CDA000130702E003023060319762E83127314F6
:101CEA00782E8312731073117318F31D7D2E7315DA
:101CFA00F3107318751C822EF3147510F3197514EA
:101D0A008312731D922EF6147513F31F8E2E0B3049
:101D1A008F2E01308A11E7228A15F31C0800191345
:101D2A00F61C0800F610F31F9E2E0D30F3138A11CD
:101D3A00E72A02308A11E72A8A15F5258A158A11B7
:101D4A009C258A158A11D2258A158A112B208A1573
:101D5A0003308312CA000830C9007630C800C80BA5
:101D6A00B42EC90BB42ECA0BB42EBB2E6430831208
:101D7A00EC006B30D7000530D8008A1193258A15FC
:101D8A008A11C5248A156F08F000B530DB000130CE
:101D9A00DC00831612189218DD2E83120630F5170E
:101DAA0074108A11E7228A158A11BC248A15E22E38
:101DBA0000308A11E7228A157414FA30F516D50014
:101DCA00E130D601EE018316890083128817F510D7
:101DDA007510191EF42E731783169E13F72E73139C
:101DEA0083169E1783128E1764008312751E0F2F97
:101DFA00173075128A11CE268A15F3167519F31E35
:101E0A00092F8A11D7268A158A153C268A158A111E
:101E1A00D8208A158312F51D2F2FF5118A1536271A
:101E2A008A158A119D278A158A11EB258A158A1126
:101E3A006B248A15550856040319292F0130D50237
:101E4A000030031CD603D6026A08031DEA03690898
:101E5A00031DE9038A1181218A158A1108248A152A
:101E6A00F92E7413F41B74178312F413061BF41758
:101E7A008312741F422F0130432F0030BF00F41F1A
:101E8A00482F0130492F00303F0603194F2F0430E5
:101E9A00F900C12F79080319C12FF9037908031D25
:101EAA00C12FF412F41F5A2FF4168312741E5F2FD7
:101EBA000130602F0030BF00F41E652F0130662FFD
:101ECA0000303F0603196C2F8312F4146E2F83120D
:101EDA00F410F411F418F41E732FF4157411F41895
:101EEA00741E782F74157412F41A74168312F41966
:101EFA009912741DC12F4B30D500D601741C991646
:101F0A0069080319DF013E30DF0AE900F31FC12F18
:101F1A000B30F3138A1107238A158A11F9238A15BC
:101F2A00670B9B2F8A11B5238A15A32F02306706E8
:101F3A00031DA52F71088A119D238A15B200AC2FA3
:101F4A0003306706031DBE2F8A11A8238A158A113A
:101F5A0022238A152E08BF002F08C0003008C100AE
:101F6A003108C2000310C20CC10CC00CBF0C3F08E0
:101F7A009E008A11F1238A15C6278A11A4208A1580
:101F8A00D42F6908031D080005305F02031C0800EE
:101F9A000130DF01F40699120A308A11E72A69082A
:101FAA000319F31BE62F741CF41EE62F02305F069A
:101FBA00031DE62FDF01F3179916EE30CF0002302A
:101FCA00D000F31F08004F0850040319080001301D
:101FDA00CF020030031CD003D0024F08500403196B
:041FEA009912080040
:0A400000FD3FD53F293F773F283FE1
:00000001FF
