:040000008A110C282D
:10000800FE00030E8312A0000A08A1008A15822EA2
:100018008A110E28AF308313FD000E30FE006330C6
:10002800FF00A03084008A1576268A11FF30F70079
:100038000430F800F9004B30840073308A154D26DF
:10004800F301F401F501F60183018A159C2E0816C7
:1000580083168E018D018C0190168D1210160D12CB
:100068009E1783127313831610130D1383128812AD
:100078000815003063208A110230E7000B309625FE
:100088008A112308F2002208F10040268A11B200E2
:10009800B1252E08BB002F08BC003008BD00310870
:1000A800BE000310BE0CBD0CBC0CBB0C3B089E0074
:1000B8009D1383168F138C130F130C130800A300C2
:1000C800230803196E2823080319080004302302A3
:1000D800031808008F1783169217F33095058312BB
:1000E8002308A20001300310A20DFF3E0310031DD8
:1000F8007828220D83169504B12E7312F5187316FD
:100108008312F5149D1BF510831612198D2883127E
:10011800F5108312731E9228013093280030A30033
:10012800F51C9828013099280030230603199F28C8
:100138000230F8000800780803190800F803780866
:10014800031D0800F311F518F3158312751CAE286A
:100158000130AF280030A300F31DB4280130B528C2
:10016800003023060319BB2883127314BD28831299
:10017800731073117318F31DC2287315F3107318D5
:10018800751CC728F3147510F31975148312731DA1
:10019800D628F6147513F31FD3280B30D428013052
:1001A80077258A11F31C080099121913F61C080008
:1001B800F610F31FE2280D30F313772D0230772D58
:1001C800831255085604031D08006A08031D080019
:1001D80069080319F6180800F51F76180800831631
:1001E800121908008312F51E0029F512B7228A1188
:1001F800EC218A116F08F0008B0108109B01881010
:100208000816831690158D1110140D1010130D1368
:100218000F140C1090168D1210160D1210110D11CE
:100228008F128C120F110C118F108C10E83085056D
:10023800831285058316861283128612831693010C
:1002480011110E118312881143308316880083120E
:100258008E148F100608D500D60188136400073065
:1002680083169F0063000000C0228A11322683167D
:100278001011101090110F104B308312D500D601B9
:10028800881764000800F51BF618080083168E1DF1
:100298005B298E11303083121805C100103A031DF6
:1002A8005B2915080139DE00DD011408DD0483121D
:1002B800761808005A30700203187629EC218A1142
:1002C800F9258A116F08700203187329A6268A1166
:1002D800700B73290815EE116E0803199D1306306B
:1002E800EB01772DAC268A1196218A1110303C0239
:1002F800693003193B02031886290C30EB0A6B029C
:10030800031C8929A6268A11EB0164307002031C9C
:1003180092296430F0000830F513772DF9258A11F9
:100328000630772D0A3096258A112308F200220814
:10033800F1000330B101B001AF00E830AE003B0876
:10034800A2003C08A300A401A5017108A600720838
:10035800A700A801A901B9218A1183268A11B1250C
:100368002F08BC002E08BB000800AA01AB01AC0195
:10037800AD01221CD3292608AA0727080311031850
:10038800013E031DAB07280803110318013E031D96
:10039800AC07290803110318013E031DAD0703101C
:1003A800A60DA70DA80DA90D0310A50CA40CA30C50
:1003B800A20C2508240423042204031DBD292D08AA
:1003C800A5002C08A4002B08A3002A08A2000800F6
:1003D800AC268A1196218A113B08CB003C08CC0038
:1003E8008030CD01CE01CB07F3300318F430CC07B1
:1003F800FF30031CCD07031CCE074E08031DB52A8A
:100408004D08031DB52A07304C02031D0D2AD030B4
:100418004B020318B52A4E08031D1D2A4D08031D5B
:100428001D2A02304C02031D1B2AEF304B02031C0D
:10043800282AEE30F1000230F200AA30D9000A3042
:10044800DA01EF005A30412A4E08031D362A4D08BA
:10045800031D362A01304C02031D342AC3304B02D7
:10046800031C432AC230F1000130F2002C30D900BD
:100478000130DA005030EF000A30ED00632A4E08F0
:10048800031D502A4D08031D502A4C08031D502AED
:1004980065304B02031C5C2A6430F1005E30F201C7
:1004A800D9000130DA000930EF00ED01ED0A632AC6
:1004B800F101F201D901D90ADA01EF01ED014E0883
:1004C800A5004D08A4004C08A3004B08A200710821
:1004D800BD007208BE00BF01C0013D08A2023E086F
:1004E800031C3E0FA3023F08031C3F0FA402400851
:1004F800031C400FA5026F08A600A701A801A901C7
:10050800B9218A112508CE002408CD002308CC0083
:100518002208CB005908A0268A114E08B5004D08BC
:10052800B4004C08B3004B08B200B1258A11310859
:10053800CE003008CD002F08CC002E08CB006D0867
:10054800CB0701300318CC070318CD070318CE07D3
:100558004B08EF0064306F02031C08006430EF00A2
:100568000800EF010800081690309800C9222308F7
:10057800DE002208DD0008008312081407308B0013
:100588007D30890081010E1008000430F101F2016C
:10059800EF016F020318E42A181483168E1DD12A5E
:1005A8008E11013083121505A4001408F1070318F1
:1005B800F20A2408F2070430EF0A6F02031CD02A5B
:1005C8007208A5007108A4000310A50CA40C031060
:1005D800A50CA40C2408F1002508F200A30071085A
:1005E800A20008007413F41B74178312F413061B7B
:1005F800F4178312741F022B0130032B0030BF0045
:10060800F41F082B0130092B00303F0603190F2B6C
:100618000430F9007A2B790803197A2BF903790841
:10062800031D7A2BF412F41F1A2BF4168312741E6E
:100638001F2B0130202B0030BF00F41E252B01306A
:10064800262B00303F0603192C2B8312F4142E2B73
:100658008312F410F411F418F41E332BF4157411EA
:10066800F418741E382B74157412F41A7416831245
:10067800F4199912741D7A2B4B30D500D601741CCD
:10068800991669080319DF013E30DF0AE900F31FF4
:100698007A2B0B30F31396258A119B268A11670B48
:1006A800582B57268A11662B02306706031D602BCC
:1006B800710840268A11662B03306706031D782BC4
:1006C8004B268A11B200B1258A112E08BF002F08C7
:1006D800C0003008C1003108C2000310C20CC10CB0
:1006E800C00CBF0C3F089E008C268A1102268A1176
:1006F8007F238A110F2E6908031D080003305F0647
:100708000319741808000430DF01E70A6702031CA4
:100718008F2BE701E70A0C3077258A110B309625D5
:100728008A119B268A11670B9F2B57268A11B200C4
:10073800B1258A11632E02306706031DAA2B7108A2
:1007480040268A11B200B1258A11632E033067064C
:10075800031D08004B268A11B200B1258A11632EA9
:10076800F61C0800751F5B2C83168E1D080083126B
:1007780018083039031D552C83168E110E1283125A
:10078800751315080139C500C4011408C4041708F5
:100798000139C700C6011608C604003047023230C6
:1007A80003194602031C3D2C00304502333003195F
:1007B8004402031C3D2C0B3096258A112308F200B5
:1007C8002208F1000D3096258A112308DA00220844
:1007D800D900A0268A117108A2007208A30003306C
:1007E800A401A501A901A801A700E830A600B92124
:1007F8008A1183268A11B1258A112F08C3002E0871
:10080800C2004608AE004708AF00B001B101440875
:10081800A2004508A300A401A5014208A6004308B8
:10082800A700A801A901B9218A1183268A11B12537
:100838008A113108BF003008BE002F08BD002E08FD
:10084800BC003F08031D3D2C3E08031D3D2C023013
:100858003D02031D312CEE303C0203183D2CF610EE
:10086800F31308159D170530EE147725FA30EA00C2
:100878000800081683168E110E129130512C83161B
:100888008E118312751315080139C100C0011408AF
:10089800C00483168E110E128330831298007517C8
:1008A800080030301805BB00103A0319432C08160D
:1008B8004D2C83160C080319DC2C8312741C6A2C2B
:1008C80083168C01831208159D17DC2C6E08031DF6
:1008D8006F2C08159D1383168C1F762C8C13942669
:1008E8008A11772D0C1F7C2C0C1394268A11772DD6
:1008F8008C1E8E2C8C1283126A08031D0800F001CE
:10090800F610F313991208159D170430EE15772584
:100918008A11DC2C0C1D972C0C1183120330F61055
:1009280077258A11DC2C8C1C9D2C8C108312991233
:10093800DC2C0C1CDC2C0C104B308312D5000B303B
:10094800D60196258A119B268A11670BAE2C57264D
:100958008A11BC2C02306706031DB62C710840268C
:100968008A11BC2C03306706031DC12C4B268A1143
:10097800B200B1258A1173268A11F31FC62CF3130E
:100988008C268A11731BCD2C093077259D176E167E
:1009980008006E126E0803199D13EE1DD52C043045
:1009A800772D6E18D92CEE1CDC2C9D136E10EE10D2
:1009B80083160D08031908008D1D062D8D1183124D
:1009C800F3139912003083258A11643070020318DA
:1009D800F92CF517F618F32C063077258A11F92526
:1009E8008A11741C212D0A30042D6430F000F5138F
:1009F800F618012D083077258A11741C212D0E3028
:100A080074101F2D0D1D152D0D11013083258A1110
:100A1800F51F212D6430F513F000F618212D08304C
:100A28001F2D0D1C212D0D10003083258A11F51363
:100A3800F618212D073077258A1183160D1E292DCA
:100A48000D129E13831273172F2D8D1E2F2D8D12AD
:100A58009E178312731383160D1F08000D1383123C
:100A6800991E08004B30D5000B30D60196258A1107
:100A78009B268A11F31F4D2D7108AE007208AF0036
:100A88001B30B001B101B501B4007730B30040307C
:100A9800602D670B522D57268A11602D023067068C
:100AA800031D5A2D710840268A11602D03306706F0
:100AB800031D652D4B268A11B200B1258A117326B4
:100AC8008A11731FC82C6E126E0803199D13EE1D30
:100AD8006F2D0430772D6E18732DEE1C08009D13B2
:100AE8006E10EE1008008312A200173075119827B7
:100AF800D301D4012208E300E2017614080083122E
:100B0800A200220803198A2D220B08008F178316CA
:100B180092178312221C932D83161717952D83166F
:100B28001713B12EA5008F17831698149A018312F4
:100B380025088316990018141818A02D98101B085A
:100B48008312A700A60183161C088312A6048F131C
:100B58002708A3002608A2000800B601B701B801BB
:100B6800B901310830042F042E040319F02DBA01FD
:100B7800BA0AB11BC52D0310AE0DAF0DB00DB10DE6
:100B8800BC2D0310B60DB70DB80DB90D31083502DF
:100B9800031DD82D30083402031DD82D2F08330229
:100BA800031DD82D2E083202031CEA2D2E08B2028E
:100BB8002F08031C2F0FB3023008031C300FB40298
:100BC8003108031C310FB50236140310B10CB00CF8
:100BD800AF0CAE0CBA0BC52D3908B1003808B000FF
:100BE8003708AF003608AE000800181083168E11BB
:100BF8008312081690309800181408006908031D1D
:100C0800080005305F02031C08000130DF01F4060C
:100C180099120A30772D69080319F31B212E741CC9
:100C2800F41E212E02305F06031D212EDF01F3176B
:100C38009916EE30CF000230D000F31F08004F089D
:100C48005004031908000130CF020030031CD00300
:100C5800D0024F08500403199912080088148D0116
:100C68008C019101F9309000E3309B00F0309C0535
:100C78001C080E15E8010800AE007208AF002C3001
:100C8800B001B101B501B4004030B300203471089F
:100C9800AE007208AF002D30B001B101B501B4004B
:100CA800C630B300C0347108AE007208AF002A30F5
:100CB800B001B101B501B400B930B30080342E08D9
:100CC800BB002F08BC003008BD003108BE0003106F
:100CD800BE0CBD0CBC0CBB0C3B089E0008002E08CB
:100CE800BB002F08BC003008BD003108BE0003104F
:100CF800BE0CBD0CBC0CBB0C3B089E0008002508B4
:100D0800B5002408B4002308B3002208B200080084
:100D18001917E830F5107510D1000330D20008001B
:100D28008312F610F3139912FA30EA0005342308F7
:100D3800F2002208F1000800AE005A08AF00B00126
:100D4800B10108007130F00ADB000230DC00080055
:100D58005E08BC005D08BB000800921383128F1365
:100D68000800530854040319C52E530A1F300319E9
:100D780054060319C52E0130D3020030031CD403D6
:100D8800D402761C080053085404031D08001D2FC4
:100D980089278A1500208A11A500E20A89278A1561
:100DA80000208A1190278A113F2F89278A15002051
:100DB8008A11A500E20A89278A1500208A1190273E
:100DC8008A11173075119827080089278A1500207D
:100DD8008A11A500E20A89278A1500208A1190271E
:100DE800FF30E400E500E6007515080089278A153C
:100DF80000208A11A500E20A89278A1500208A1195
:100E080090278A1189278A150020E600E20A08003F
:100E180089278A150020E100E20A6208E00008003C
:100E2800E103031908006008E20008001730761093
:100E3800E62E6308A03E84006208E20A83130007D6
:100E480084008A1500208A11083A0319CC2E023A28
:100E58000319D92E013A0319E92E073A0319FA2E74
:100E68001C3A03190C2F013A0319142F913A03194C
:100E78001A2F3E2F080089278A1500208A11A20000
:100E8800E20A89278A1500208A11A400E20A2208AA
:100E9800E600FA302406031D532F70085E2FFB303E
:100EA8002406031D592F6C085E2FFC302406031DF1
:100EB8005F2F6708A4006430A3012402031C712F6C
:100EC8000330E604013084008A1500208A11E50009
:100ED8000130832F0A30A402A30A0A30240203181F
:100EE8006E2F2308031D7A2F0A30A3002308013E22
:100EF80084008A1500208A11E5002408013E840038
:100F08008A150020E400751508006308A03E8400D7
:100F18006208000784000800A600E20A2508D40039
:100F2800D3012608D3040800831685048312850498
:100F380083168616831286160800F61C0800191FE9
:100F4800B32F510852040319B32F0130D1020030D6
:100F5800031CD203D20251085204031999175708E7
:100F680058040319BD2F0130D7020030031CD803E1
:100F7800D80257085804031DC82F6B30D700053016
:100F8800D8006C08031DEC035B085C040319D22F1E
:100F98000130DB020030031CDC03DC025B085C046C
:100FA800031D0800023070020318F0037130DB00E3
:100FB8000230DC00F31B0800A3017008A2000A300D
:100FC8002202031CEB2F0A30A202A30AE32F2308F4
:100FD800031DF02F0A30A3002308013E84008A1560
:100FE80000208A11E5002208013E84008A150020AD
:040FF800E400080009
:1010000008308A000408840A820700343F3406341A
:101010005B344F3466346D347D3407347F346F3441
:101020000034FF34083400347D3408340634083486
:1010300000347D3408340534083400347D340834F9
:101040000434083400347D34083403340834003464
:101050007D340834023408340034893408340134CF
:10106000803408340134F4341434FA34083401344C
:10107000F4340034FC3408340134F4341834FB34D0
:101080008034103402340A34003419340B34003400
:101090001934113408340034FA341434FA348034F6
:1010A000103408340A340034193408340034193444
:1010B0001434FA3411348034103402340A340034D5
:1010C00019340B340034193411348034103408349A
:1010D0000A34003419340B34003419341134803498
:1010E000103403340A34003419340B340034193406
:1010F0001134803410340A340A34003419340B3477
:101100000034193411348034103406340A34003475
:1011100019340B3400341934113480340834003459
:10112000FA341434FA34803408340134F43400349A
:10113000FC34803408340034FA341434FA34803403
:1011400008340434E2341434FA3480340834043477
:10115000E2341434FA3480340B3400347D34803477
:101C9A0064008001840A04060319003404064E2EE7
:101CAA0017308316850083128500E3308316860079
:101CBA0063308312860083169E010800A734A1347C
:101CCA002C347F344B3475349B346B349534613403
:101CDA0057340D348F3489343C347E088A007F08A7
:101CEA00820072268A158000840A04087D06031978
:101CFA000034FF0A0319FE0A762E0E180F1C872ECF
:101D0A000F100E100E190F1D912E0F11751668085F
:101D1A00E80A0F390319F5158E188F1C952E8F10A6
:101D2A0021088A00200E8300FE0E7E0E09008A1505
:101D3A0055268A158A11C0228A158A1132268A15D1
:101D4A008A112B208A1503308312CA000830C90071
:101D5A007630C800C80BAF2EC90BAF2ECA0BAF2EF8
:101D6A00B62E64308312EC006B30D7000530D800F1
:101D7A008A11B7228A158A11EC218A156F08F00098
:101D8A007130DB000230DC00831612189218D82E4C
:101D9A0083120630F51774108A1177258A158A116D
:101DAA00F9258A15DD2E00308A1177258A157414D3
:101DBA00FA30F516D500E130D601EE018316890016
:101DCA0083128817F5107510191EEF2E73178316D4
:101DDA009E13F22E731383169E1783128E176400B6
:101DEA008312751E0A2F173075128A1198278A15C1
:101DFA00F3167519F31E042F8A1531278A158A11CD
:101E0A0081208A158A11B4238A158312F51D2A2F77
:101E1A00F5118A11F6228A158A11A1278A158A11C3
:101E2A00B5268A158A1147218A15550856040319B9
:101E3A00242F0130D5020030031CD603D6026A08CB
:101E4A00031DEA036908031DE9038A115D248A1543
:101E5A008A11E4208A15F42EF70AF312E52F641882
:101E6A00392F831605153B2F831605118312641922
:101E7A00412F83168514432F831685108312641A03
:101E8A00492F831605144B2F8316051083126619E2
:101E9A00512F83168616532F831686120512831224
:101EAA0005120800E4185C2F831605165E2F8316A8
:101EBA00051283126518642F83168514662F8316FC
:101ECA0085108312E6186C2F831605146E2F83165D
:101EDA0005108312E619742F83168616762F831639
:101EEA0086120511831205110800E4197F2F831643
:101EFA000516812F831605128312E518872F83167C
:101F0A000515892F83160511831266188F2F8316DC
:101F1A000514912F831605108312661A972F8316BC
:101F2A008616992F8316861285108312851008004B
:101F3A00E41AA22F83160516A42F831605128312FC
:101F4A00E519AA2F83160515AC2F831605118312DE
:101F5A006519B22F83168514B42F83168510831240
:101F6A00E61ABA2F83168616BC2F83168612051018
:101F7A00831205100800641BC52F83160516C72F88
:101F8A00831605128312651ACD2F83160515CF2FD6
:101F9A00831605118312E51AD52F83168514D72FB8
:101FAA00831685108312651BDD2F83160514DF2F18
:101FBA0083160510861283128612FF30F700080076
:101FCA007708003A0319342F013A0319572F033AB5
:101FDA0003197A2F013A03199D2F073A0319C02FC3
:041FEA00E22F0800DA
:0A400000FD3FD53F293F773F283FE1
:00000001FF
